:020000040000fa
:080000000002040000000000f2
:020000040000fa
:100400006fca21000e7f22000e018800000000004c
:100410000c000700a01323000100200011000700ba
:10042000000020000000e000020032000000020096
:10043000000000001e260200000000000040da005c
:100440000000fe004440a900c02920000000e00098
:100450000300320000002000a00188004440a800f2
:100460000000060091018800800078000000eb0089
:1004700015003700e280400032a0b4009101ba00bc
:10048000e280400032a0b4009102ba00e280400055
:1004900032a0b4000002eb00472bde00f507b200eb
:1004a000602ce10004003a000059eb008301e900f0
:1004b000fdff3e00040037006128e100010032002a
:1004c0000082eb00040007001101ba000200e00006
:1004d000e8ff3a00000006003159ba008301e90044
:1004e0000c0032002159ba008301e90008003200f3
:1004f0000400e00003003a00e280400032a0b400b3
:10050000f5ff370011d9ba008301e900faff3a007c
:100510008100e800e180400032a0b4000000060045
:100520000040da000000fe0003f0a200889fbe0039
:100530008a9fbe008c1f7800860107008d01330062
:100540006450e1004f0032006420e10052003200ac
:1005500003826c0007003b000905d0000306d000b1
:10056000820f54000c065d000200390002003200c8
:1005700089017800030678008582550004003d005b
:100580000003fd008103fd008502ea008b85420027
:10059000840f720002003b0060001000e080180031
:1005a0006011b8000005eb007a28e1000a0039006c
:1005b00006007800c75ddd00f707b2008780750090
:1005c0002d003700828171000a017800610560000a
:1005d0008180d1000080d3008502e900f9ff3b0053
:1005e000060440008784480002003b0060041400b9
:1005f000e0841c000988a300070032008a81710092
:1006000082817100610164008904d1000884d300f3
:100610008b05e800170037000978a30013003a00a3
:100620000b00e000130034008b05e90008044400cf
:1006300089844c000a4474000978a3000d003a0034
:100640000b00e000070034008b05e90008044400bb
:1006500089844c0001003a000b0020000978a300b7
:10066000f7ff32000001eb000200370082817100c9
:100670000a017800fc0007000cf0a70001f0a000c0
:10068000450137006420e10002003a00838f6c00ce
:10069000450133000801be000200be003e013700e4
:1006a000889fbe008a9fbe008c1f7800290107002a
:1006b0003001330003866c006450e1002e003200ec
:1006c0006420e100330032006150e1002f0032006d
:1006d0006120e1003100320085855500eb07b00054
:1006e0000900200008042000050037000804440029
:1006f00089844c000a0031000603430087834b00c5
:100700000001530081815b00f8ff33000203be004b
:100710000800a0000804440089844c00f6ff39005a
:10072000c639dd0083017300010032001300200090
:100730008904d1000884d3000998a3000500320081
:100740000800a7000300a0008904d1000884d3009a
:100750008b05e8008904d1000884d3000001eb0078
:100760000281d200c000070001f0a1000cf0a70038
:1007700001f0a000080137006420e1000a01320006
:100780000801be000200be00f7ff37006120e10053
:10079000050132006000b800f3ff370000002000c0
:1007a00001f82700f0ff3700839f68000100e00098
:1007b00002003d0060001000e08018000300e0002f
:1007c00002003d0060011100e08119002d010700c9
:1007d0004f00e00002003b0060001000e0801800c5
:1007e000000006001400200039013700f4ff2f003c
:1007f000370137000001be00c10007000470a700e8
:1008000003f0a1006509b100160032000d003500ab
:100810006828e10006003500f0ff2f00f1ff2700f7
:100820000300e00013003b00010028000000050069
:1008300000004000818048008502e900fcff3a008a
:1008400008003700f88f420002003c008000eb00f7
:10085000000005008100d1000080d3008502e8007f
:10086000fcff3a000300e00002003b0060001000c3
:10087000e080180000000600889fbe008a9fbe002e
:10088000010578000100e0000400350008003c008c
:100890000000e0002000320005003700600010007a
:1008a000e080180002003b0001f02c001a00370025
:1008b0000004be006011b8006b0920000982cf005f
:1008c000020039000882cf000441b00069425200a2
:1008d0000e00320008003b0082817100610164005b
:1008e0008904d1000884d3008b05e8000442e800a5
:1008f000f9ff3a00050037000804440089844c00e1
:100900008b05e9000442e900fbff3a0056000700ae
:100910000af0a70001f0a0004f05be004f04be0082
:10092000000006000400200000003700889fbe0081
:100930008a9fbe008c1f78004f26dd0085000700cf
:100940008c0033006120e100430032006250e1007e
:1009500041003e003e0039006420e1003c003200ce
:10096000058255000f003b000402e80038003a0001
:10097000800f5300818f5b00350034000800be00fb
:1009800003f0a10001f0a60003f0a0000cf0a70006
:10099000e6fe0700800037000603430087834b0014
:1009a0000c4646000005530081855b0002003300c1
:1009b0000a03be000c00a0000402e900f6ff3b00a1
:1009c000850578000602430087824b0004003a0048
:1009d0006000b80009f0a70001f0a0006e00370029
:1009e0000002520081825a000704e0000400330034
:1009f0000603430087834b008b05e900faff3700ad
:100a0000090578000604be000203be006011b800ac
:100a100015000700e00f5200e08f5a000700350074
:100a200002003c000c08a300040032000601be00d6
:100a300003f0a0000cf0a700bcfe07000a856800c8
:100a400001f0a1000af0a70001f0a0005200370059
:100a50000800be0050003700100220000cf0a60075
:100a600050bd880050003700810020006180550093
:100a70000b003d000b00200061fe2f000100e10093
:100a80001d00340082817100610164008904d1007d
:100a90000884d3000000e800faff3a00710020004b
:100aa0006100640003007000020060000900320071
:100ab00061044400e0844c000988a5000500320070
:100ac0008b05e8006808e10002003a008904d100c3
:100ad0000884d300f20f20000258e10005003d0019
:100ae000c75ddd00f907b200898075000800780055
:100af000000006000bf827008b00780000000500be
:100b0000c70ade00f107b200f50fb200080032009c
:100b1000e1cf4200020032000170a0002400050075
:100b2000810f700001003200040805004400050038
:100b3000810f700002003a00140005008502e900f0
:100b40000000400081c04800fcff3b000170a00095
:100b5000240005000004be00e9ff07000003be00fa
:100b60000405be000200be00e5ff0700844f7500cb
:100b7000000006000200be006450e10005003600df
:100b80006420e100020036000968a30001003a0079
:100b90000800be000160a0004f0678004f05be00af
:100ba0004f04be0000000600f0ff2f00f1ff2700f9
:100bb000f9ff3700889fbe008a9fbe008c1f780017
:100bc000e4ff0700ebff330003866c006450e10094
:100bd000240032006420e100270032006150e1006f
:100be000220032006120e100210032008b854200aa
:100bf000eb07b1000134b800003ab8000804420025
:100c000089844a00013ab8000030b800888040006a
:100c100009014a00040033000000400081804800c0
:100c2000020149008b05e900c909dd00830170005c
:100c30000100320013002000c814de004814dd005b
:100c40004709de001200b200c808de000884700008
:100c500085ff070001f0a1000cf0a70001f0a00043
:100c6000cdff37006120e100cfff32000801be0058
:100c70000200be00f7ff37006150e100fcff3a00c0
:100c8000c9ff37006022b800060220000000d00033
:100c90008180d2000482d2008582d2000000a000b0
:100ca0000202520083825a00030031000202420015
:100cb00083824a000000a1000603e900f3ff3a0026
:100cc00000000600efff07000400be000000060061
:100cd000889fbe008a9fbe00841f78009dff07008a
:100ce0004f00780011003300f0ff2f00838f6c005d
:100cf00006003b00040565000a00a7000800370055
:100d000009f0a6001000200008003700820f5400f0
:100d1000838f5c00030039001000200001003e00ba
:100d20000000200009f0a7000000ea004f05be0007
:100d30004f04be000000e000000006000001780043
:100d400000c2b300010037000201e80092407800c1
:100d500080cf5000fcff3200e9cf5000faff320094
:100d6000d0c2b30080cf500003003a000201e80077
:100d700014c0b300050037000042eb00b0c2b3005e
:100d800080cf500001003a000201e8008000eb0033
:100d900005fd2f00040037006a08b90000804100fb
:100da000850040000201e8009201fb00058041003f
:100db000e90f5000f8ff36000404e00001003200a3
:100dc0008100ea0001007800000006008000780041
:100dd0003004e000feff3a00010050000000e9008e
:100de00000000600810178000002eb000b003700d4
:100df000e44078000104e000030032000402e8004f
:100e000093cf5000040032008180fb001380fb0070
:100e100000805000000006008301e800820f5200ad
:100e2000f3ff3a00000005000c00fa00889fbe00a6
:100e300000047800cfb09700f0ff2700d0bf9f00dc
:100e40008004eb0099bf9f0088bf9f00a8bf9f0050
:100e5000200c2000b0bf9f007881570070805700a1
:100e6000080007000fb89700094878000fb89700ee
:100e700008045000080078004f04be000080fa000b
:100e800000000600fe874700889fbe008a9fbe00c4
:100e90008c9fbe008e1f7800f0b79f00010778007e
:100ea00082bf9f000000eb00a0b79f009f023700a9
:100eb0008006eb0050c2b30080cf50000900320022
:100ec0000100fb00ffb0970071040700e10f400034
:100ed00096023200afb097008100e800a1b79f00f2
:100ee000920237009e407800d0c2b30080cf5000fd
:100ef0000c00320007003c006d40500080cf5000d5
:100f00000a0032006b40400080cf50000e003a00d3
:100f10000800370000c3b30080cf50000a003a0039
:100f2000060037000d30a000050037000d00a000be
:100f3000030037000d10a000010037000d20a000b5
:100f40000e07e800e7ff37000d18a300010032008c
:100f50000d00a1000d38a300010032000d20a100fa
:100f60000100fb0002fd2f0002004000e90f5000cd
:100f70000e003e000002eb00c4b79f008201780023
:100f8000cfb297006a28b9001e01fb0000014100a2
:100f900003014100c2b79f005e00fb000300400058
:100fa000e90f50000b003e00f5ff37000006eb0094
:100fb000ccb79f00a0c2b30080cf500005003a001c
:100fc0000fb89700c000780080bf9f00c1b79f0096
:100fd0000e07e8000001eb00b2b79f00e0c2b300cb
:100fe0009e4f100018003a000de0a0008e00e800af
:100ff00064405000914f1000020032000107780059
:101000000c0037000fba9700c402780084bf9f001d
:10101000b5b79f000e87e8000b0037003fb697007a
:101020006a60b9000000410003004000b0b79f00b3
:101030000e07e8001e01fb0003fd2f000300410026
:10104000e90f5000f5ff3600be407800e1d79f0061
:10105000c0c6b30080cf5000220032000f003c0019
:101060006940500080cf50007700320004003c00ff
:101070000104e000310232006b4050000f003700e5
:1010800040c6b30080cf500093003200654040005e
:1010900080cf50008b003a008f00370030c7b3007c
:1010a00080cf50001a00320007003c00644050001e
:1010b00080cf5000110032000040e80080cf500087
:1010c00080003a000f00370050c7b30080cf5000b7
:1010d000800032006340400080cf500079003a0029
:1010e00009003700000028000d48a30001003a0065
:1010f0000001200080867600d3ff37000d60a0003d
:10110000750037000d50a0000d70a0007200370070
:101110008fb897004100780081bf9f0000047800dd
:101120000000e00001003a00c88421008004eb00c8
:10113000010037008104e80089007800088044003d
:101140001004e000fbff3a003fb197000200e0000e
:1011500003003200890f5100010031008204780041
:101160000002eb00e4af9f00cfb29700898f5200de
:101170000200360009805200e0af9f004368de00a5
:10118000e10660001b003a000d06780009003700f8
:10119000ffb0970000022000bd030700e10f4000f0
:1011a000030032002fb097000000e800a0b79f00b6
:1011b0000c06e800efa89700810f5600f4ff3a00f4
:1011c0000081eb00e2af9f000a0037008800780042
:1011d0003100fb0001047800ffb09700ac0307006a
:1011e000e10f4000030032002fb297000402e80034
:1011f000a4b79f000900e90080047800e10f4000d7
:10120000f2ff3a000006eb000d00e0000a003a0091
:10121000c6013700ffb09700000220009c030700c2
:10122000e10f400003003200afb297008502e800f2
:10123000a5b79f000c06e8006fa89700800f560026
:10124000f4ff3a00b90137008fb8970041007800e9
:1012500081bf9f00cf80de0001017800820178000d
:101260000205be000004be000203be000002be0074
:101270004822de00482edd0004027600e4d79f00fd
:101280000d48a3000a0032000404e0000800320008
:10129000e14f42000600320071fd2f00018047003f
:1012a0000448780018409800290020000200370008
:1012b000f0d79f001900200072fd2f000284470024
:1012c000a1ff370064fd2f000484470019002000af
:1012d0009dff37000d0cb3000d007800000cb2002c
:1012e00028003a000d00e00005003d008fba97008d
:1012f0004505be004504be0085bf9f0014003700b1
:101300000d48a3000b0032000fbe97004c00be003a
:101310008cbf9f004f89de00cf91de000002be002f
:1013200002037800820378000605be000404be00b4
:10133000070037008fb897004100780081bf9f00f9
:1013400000047800cfc4de00090578008a05780023
:10135000e00f5400e08f5c00e00f5d00e08f5d0067
:101360001f003d003d00b3006000b8006011b800f0
:1013700008045000898458000a0559008b855900db
:10138000170037000d00e00005003d000fb9970081
:101390004205be004204be0082bf9f00100037001d
:1013a0000d48a300070032000fba97004400be00aa
:1013b00084bf9f006011b8000205be000004be009b
:1013c000070037008fba97004500780085bf9f005f
:1013d00000047800090020000a0020000b00200013
:1013e0003fb697000c00e00007003a00e00f540001
:1013f000e08f5c00e00f5d00e08f5d0002003a00ce
:1014000010002000b0b79f008d007800010cb200e2
:10141000e1b79f0000042000808f500030003200b0
:1014200003003c000100e0000800320040003700eb
:10143000000820006fb19700800f510014003200a7
:10144000000c2000800f510039003a0014c0b30096
:10145000c57a21000b0037000400fb004300dd00cb
:10146000050040005001be004000be000040e10009
:1014700001c8e10002d0e10003d8e1002b003900ef
:101480000442e800f44f5200f3ff3a00270037000f
:1014900000012000010020006011b80014c0b3005a
:1014a0000040e10001c8e10002d0e10003d8e10002
:1014b0001e003900450020000000d0008180d200cd
:1014c0000281d2008381d2008502e900faff3a004e
:1014d0000442e800f04f5200f1ff3a0013003700d9
:1014e00080002000010020006011b80014c0b3008b
:1014f0000040e10001c8e10002d0e10003d8e100b2
:101500000a0039003c0020000000d0008180d20099
:101510000281d2008381d2000c06e900faff3a0072
:101520000442e800f54f5200f1ff3a00e4d79f0073
:10153000efd097000100fb003fb19700820f5000f1
:1015400002003d00e2d79f00040037003fb2970041
:10155000800f520001003d00b0b79f00cfb297004e
:101560000500e000040032006380660002003200e3
:101570008502e900c5b79f000de8a3000b0032000b
:101580004fb697003fb09700800f560003003c0015
:101590008000eb00c1b79f00040037004fb19700f7
:1015a0003fb2970004015100c2b79f00efd29700ed
:1015b0000500fb000006eb00dcaf9f00cfb09700fa
:1015c000808f50000200340000805000d0af9f0098
:1015d0000d28a30037003200e18066000d18a3003b
:1015e0000c003200d00220000100e00001003a00af
:1015f0000080e900ffb09700a5020700e10f40005e
:101600000e0032002fb197000201e800a2b79f0040
:101610000a0037000100e00008003200ffb0970028
:10162000000220009a020700e10f40000300320090
:101630002fb297000402e800a4b79f00dfaa97002a
:101640000500e0000f0032000006eb00ffb097003d
:10165000000320008e020700e10f4000030032006b
:101660002fb097000000e800a0b79f000c06e8002c
:10167000dfa89700810f5600f4ff3a000001eb004d
:10168000d2af9f003fb29700c320dd00407a210017
:101690008080400091b79f004220dd006400500030
:1016a00080b79f006320b900f0af9f006306500031
:1016b00084003700dfaa97000500e0001100320027
:1016c000688066000f003a0000067800ffb09700bf
:1016d000000220006e020700e10f4000030032000c
:1016e0002fb097000000e800a0b79f000c06e800ac
:1016f000dfa89700810f5600f4ff3a000001eb00cd
:10170000d2af9f00e18066000d18a3000c003200ec
:10171000d00220000100e00001003a000080e90052
:10172000ffb097005a020700e10f4000d5ff3200da
:101730002fb297000402e800a4b79f00d1ff370042
:101740000100e000cfff3200ffb097000002200050
:101750004f020700e10f4000caff3200afb297000e
:101760008502e800a5b79f00c6ff370000042000ef
:10177000efb09700808f50003100320003003c0032
:101780000100e000080032003e00370000082000a1
:101790006fb19700800f510011003200000c200043
:1017a000800f510037003a001fb097003002be0092
:1017b0002003be000800be000a01be007704070037
:1017c000a4002000050020006033b8007a04070060
:1017d00004c3b30004424000e4d79f00290037004f
:1017e00035852100d5b79f000d58a30002003a00af
:1017f00040862100d0b79f00140020000500200083
:101800006033b8008fb097008100e9000500330015
:101810000402d0008582d2000683d2008783d200e2
:10182000f9ff37000800be000a01be005b04070094
:101830006f0060005fb197006240780010003700d1
:1018400014002000050020006033b8000c00780070
:101850000000e900050033000402d0008582d200b8
:101860000683d2008783d200f9ff37000800be004c
:101870000a01be0049040700674060000043b00051
:10188000e0d79f00efd097000100fb00ffb097006a
:10189000ff010700e10f4000030032002fb1970065
:1018a0000201e800a2b79f001fb297006802520031
:1018b00094b79f008fb29700e482520085b79f00d3
:1018c00063065600d0ff2f003fb197000090b9008b
:1018d0007faa97000000420063005000800f56006e
:1018e000a2ff3a000d38a30010003200dfaa9700d3
:1018f0000500e0000d0034000006eb00ffb097008b
:1019000000022000e2010700e10f40000300320066
:101910002fb097000000e800a0b79f000c06e80079
:10192000dfa89700810f5600f4ff3a00be40780010
:10193000e1d79f000104e0005dfd3a002fb0970061
:101940004f0778004f06be004f05be004f04be0093
:10195000ef01b100000006000000fa004fb9970047
:10196000e8815700020007000080fa00000006002e
:101970000c00fa00881f78000002780082027800cc
:10198000030178008001eb00e18f50000e0036006b
:101990000100e900e0bf9f000004eb00a8bf9f002a
:1019a00094bf9f00b4bf9f00200c2000c0bf9f00c9
:1019b000850078006e80570032fd070080017800b6
:1019c0001fb8970008487800030078004f0478009b
:1019d0000080fa00000006000c00fa00a0bf9f0083
:1019e000c0bf9f00f9fc0700b0bf9f00f0bf9f0081
:1019f000100c2000d0bf9f0074815700efb09700fb
:101a00006c8057002e0007000080fa0000000600de
:101a1000889fbe00000478008144780000fd2f00fc
:101a200000004400e90f500002003e000001780071
:101a30000d00370008007800540107000000e000a6
:101a40000300320008007800560107000004780007
:101a5000080078003b0107000000e00007003200aa
:101a600090fa2f00000144000980fb00800f510014
:101a700002003d000280fb0001003700f00f200053
:101a80004f04be0000000600881f780010c58000cb
:101a90004b01070000047800340107000000e0005b
:101aa000faff3a00e10f44000300320011c5800044
:101ab00008007800c00107004f047800000006000d
:101ac000ec874700889fbe008a9fbe008c9fbe00a7
:101ad0008e1f780081bf9f000207780010c5880024
:101ae0008046eb00040137008884fb000900780081
:101af0001e010700800078000000e00002003200b4
:101b0000e1ff0700fc00370050c2b300804f5400d3
:101b1000f0003a000fbd970020c0b300c0ef9f0057
:101b2000d1ef9f0081ef9f000300370040c0b3005a
:101b3000c0ef9f000fbd97000fb99700b24078002b
:101b400082bf9f008184fb0090c6b30080cf50000d
:101b50003500320017003e006640500080cf500034
:101b6000620032000c003e007740500080cf5000f1
:101b70002800320006003e000104e0009b00320015
:101b8000a0c2b30080cf50006e003a001d003700a5
:101b900080c5b3001600370040c6b30080cf5000a8
:101ba000210032006440400080cf500065003a00c0
:101bb0001200370030c7b30080cf50001e00320043
:101bc00007003e006740500080cf500011003200f7
:101bd0006340400080cf50005a003a0014003700a4
:101be00050c7b30080cf50000f0032006340400068
:101bf00080cf500053003a006500370020c0b3008a
:101c0000cbff3700dfe897008140e800d1ef9f006d
:101c1000c8ff37004fe9970080c0b300e24f510082
:101c2000c3ff3a00c1ff3700acc0b3005900370012
:101c30008cc0b3005700370093ff0700dfe8970020
:101c40000104e00002003a004e017800d2b79f0084
:101c500010c58000da00070000047800e10f4000a2
:101c6000a20032008fec9700120037000a85e800ce
:101c70008abf9f00160037008fb897001100fb0045
:101c8000800f5400f9ff32005fe997000204e00082
:101c900003003a005fb0970008587800d0b79f0063
:101ca0008944e9000a00320010c58000c400070022
:101cb000000478000800e800e10f5000040036003e
:101cc00008007800a90007000000e000eaff3200e9
:101cd000dfe897000104e00087003a008d46e80045
:101ce0005fb1970001497800830037005fe89700f3
:101cf0000004e00003003a008d46e800ce007800c2
:101d0000d1b79f0010c58000ad000700e10f400073
:101d1000760032005fe997000204e00003003a0019
:101d2000dfb0970080587800d1b79f000fe9970087
:101d30000241e90082ef9f004240a9006e0034009a
:101d4000f0ff37000180fb0008fd2f000800400075
:101d5000e90f50005f003e000a007800f7fb070023
:101d600080ef9f0088007800030037000fb89700cd
:101d70000000e80080bf9f000fb997001200fb0031
:101d800001004000e90f5000f8ff360069ff3700fe
:101d90000cc1b3003cff070010c58000880007009d
:101da000000578000040eb00e0ef9f00d00220002b
:101db000800f550005003a0010c580008000070024
:101dc0000005780011c0b300e1ef9f008c4078005f
:101dd0000a0078000eff0700e14f40000a003a00b9
:101de00011c580000a007800f30007000d04e00030
:101df0004b003a0010c58000300090000048a3005e
:101e000043003200480037008fed97006044b8006f
:101e10000c81fb00030020000800be003202070016
:101e20000004be008c4078000a007800f8fe07002d
:101e30000080fb0001002000080440008984480065
:101e40008b45e9000700320010c580005c000700e8
:101e5000000578008c407800edfe0700e14f40005f
:101e6000ebff3a008c4078000a007800e8fe07009b
:101e7000e14f400003003a0011c580000a007800dd
:101e8000cd0007006fe997000204e0000200320075
:101e900060041400e0841c005fe897000004e00088
:101ea00015003a008d46e800cfe89700e4cf5000d7
:101eb00003003a004e0078000888be000e0037008c
:101ec0000e81e90002077800120078000808780007
:101ed0000900370010c5800039000700808f5400ca
:101ee00005003200e10f40000b003a000d04e00055
:101ef0000d0032000a0037008fb897003144780097
:101f000081bf9f000804e000f7fe3a00040037009c
:101f10000000eb000500370011c58000a600070097
:101f20000d80fb00010037000080eb004f077800b8
:101f30004f06be004f05be004f04be00cf00b100eb
:101f4000000006001004b100070035009001b10048
:101f5000040034007000b100030035009001b100ae
:101f600001003c0010000500000005006900e100d0
:101f7000040035006d00e100030034000002b100f0
:101f80000100320000000500100005001004b1003f
:101f9000030035009001b10001003c001000050075
:101fa00000000500800078001104b1000300350036
:101fb0009101b10001003c000050a00000000600ab
:101fc000881f780000047800b00090000148a3004a
:101fd00007003a000108a300050032000198a300a1
:101fe00008003200100090000000e0000500320000
:101ff000380090000040a000300498008080eb0082
:10200000200037000190a1003104980018009000d2
:102010000000e000060034000000e9001004980011
:1020200018007800b080fb00000c78000600370034
:10203000380090000068a300edff3a000800780027
:102040007e00070080007800380090000078a30030
:102050000c003a00fa8f500008003a002800900067
:102060000000e000e2ff3200180090000000e800ed
:1020700010049800180ce900ddff3700ed8f5000c8
:10208000e2ff3200010078004f04780000000600f3
:10209000889fbe000001780001047800b100900024
:1020a0000118a300400032000198a30003003a0089
:1020b000180090000000e0003b003a000190a000f2
:1020c0003104980082047800f90fb20018009000e3
:1020d0000000e00002003a0028009000000c7800a8
:1020e000ea8f540006003a00380090000078a30000
:1020f00003003a0088007800d0002000e4ff0700c9
:10210000180290006121b90058009000e80090008a
:10211000800f5100818f59000b0032000400e8004d
:10212000100498001800780009587800000c780016
:1021300011c0b300008a210001487800ea8f5400e2
:102140000600320019003700880078000940780046
:1021500088000700800478001400370038009000e1
:102160000088a3001100320018019000a800900020
:10217000480090002501070098009000810f500052
:1021800004003200380090000003b30030049800cf
:102190008084eb000000eb00100498002800900001
:1021a000000c7800010037008084eb000900780003
:1021b0004f04be0000000600000378000102780012
:1021c000e10f40001a003200310090000008a30027
:1021d000170032000098a30015003a00a1039000f8
:1021e0000700e00012003200910290006129b9005e
:1021f00051009000e1009000800f5100818f590044
:102200000b00320014007800870f500002003a00e3
:10221000000ae800020037000500e80010029800fc
:102220001400e900000a7800064878000100370031
:102230000083eb0006007800000006000200fa00b0
:10224000889fbe008a1f7800000478000000eb0021
:1022500010049800380090008080eb000008a30074
:102260003f003200008a21001004e000100032001c
:1022700089872100ea8721001a0078006c05450053
:102280002010b20021102000810f500002003a00ff
:10229000090078007a000700ec844400c08921001e
:1022a000808f5400f4ff3a00008a21000048eb00c0
:1022b00048009000580190000200e0000d003a0034
:1022c0001204980012002000e880570096000700d2
:1022d000e10f500003003a000ff897008080fb00e8
:1022e0001f003700380090000040a0003004980024
:1022f00012003700a80090008b000700100498001f
:102300000000e00003003200e10f40000d003a0041
:1023100003003700380090000040a00002003700a2
:10232000380090000003b30030049800a80090002b
:10233000010c78000000eb00100498008080eb0096
:1023400007003700a8009000010c78000000e900a9
:102350001004980001007800b080fb00000c7800a9
:10236000010078004f0578004f04be000080fa009d
:10237000000006000200fa00889fbe00a0ff9f0038
:1023800001047800b1009000810478000904b200d3
:10239000020032000000fb00360037000118a300e5
:1023a00005003a000103b3003104980019049800b5
:1023b0000080eb002f003700580090000000e00084
:1023c00006003a004800900012002000e680570006
:1023d0008e000700190498002400370028009000a0
:1023e0000000e00008003a00c089210020049800a5
:1023f000000c780020002000500498001004980081
:102400000130a0003104980018019000a80090004d
:10241000480090007d00070028009000000c780024
:102420000080eb001004980018007800aff89700c7
:1024300001587800000c78002ff89700ea4f500000
:102440000a003a00380090000088a300070032001c
:1024500018019000a8009000480090006b00070051
:1024600019049800a8009000010c7800aff89700bc
:102470000100fb004f04be000080fa0000000600cf
:10248000881f780000047800300090000008a30046
:1024900007003200800078000120b20004003a00fa
:1024a00011049800a8009000010c78001700370074
:1024b0000018a300190032000098a3001700320092
:1024c000a80090000100e000140032001801900004
:1024d0000200e00011003200480090004b000700ad
:1024e00098009000810f50000300320038009000e7
:1024f0000003b300300498000000eb0010049800c3
:1025000028009000000c7800380090000058a300cc
:10251000020032000080eb00010037000000eb00f9
:102520004f047800000006000a00fa00881f7800b7
:10253000800178000000e00029003a0020c58000fa
:10254000e10f500008003200802320000000e0006e
:1025500005003200042320002523200067232000eb
:10256000800178000400370004222000252220008a
:102570006722200083222000144090000004e00025
:10258000040035008009eb00144090000074a000a6
:10259000104298000002eb000c003700130a2000e4
:1025a000154478006140640002003a008301e900ac
:1025b000fbff3a000402e8009541780061c0610029
:1025c000050032001700780080587800040351009d
:1025d000820f5200f1ff3a00060051000800370058
:1025e00020002000a0bf9f00b3bf9f00c1bf9f007d
:1025f000d2bf9f006c80570000c0da005fb8970020
:102600004f0478000080fa00000006000a00fa007b
:1026100080017800e20f500028003e0020c58000b5
:10262000e10f500008003200802320000000e0008d
:10263000050032000423200025232000462320002b
:1026400080017800040037000422200025222000a9
:102650004622200083222000144090000004e00065
:10266000040035008009eb00144090000074a000c5
:1026700010429800154090000028a30003003a0083
:10268000154090000024a000904298008001eb00cb
:1026900007003700154090000008a300fdff32003e
:1026a00063c078000000fb00000b78008301e800a5
:1026b000828f5100f7ff3a000800370030002000f9
:1026c000b0bf9f00c3bf9f00d1bf9f00e2bf9f006c
:1026d0006a80570000c0da006fb9970002007800e6
:1026e0000080fa0000000600020ab900001bb900d1
:1026f0000200b80081004200810043000000060093
:10270000881f7800000478005001be004000be0021
:102710000400400085804800060149008781490087
:10272000009cbe000294be000400e1000588e100a8
:102730000690e1000798e1000200310068004400c3
:102740001008e8004f04780000000600f4874700f6
:10275000889fbe008a9fbe008c9fbe008e1f78009f
:102760000205be000004be00d4b79f00e5b79f007d
:10277000f6b79f0087bf9f000000eb00c0b79f0027
:10278000b0b79f00a0b79f0090b79f0080b79f0091
:102790000d042000bfb097004fb09700000140002b
:1027a0000000e0000f003d004f08de000000710057
:1027b000c0b79f004d00070001003d00120020003f
:1027c0005000070001003d001200200055000700e6
:1027d00061000700660007000f004000c8ff070007
:1027e000220037004f08de0000067100ccb79f00c2
:1027f0003e00070001003d001200200041000700dc
:1028000001003d00120020004600070052000700b2
:102810000fb297009fb297002fb39700bfb39700f6
:10282000590007000000520081805a0002015b003d
:1028300083815b0080b79f0091b79f00a2b79f0084
:10284000b3b79f000007eb004f0007000020e10036
:1028500001a8e10002b0e10003b8e100010031008d
:102860001e0020000e005600c0b79f004fb2970018
:102870000400e000070035001000200001002000e7
:102880006011b80008047000898470000a057100a6
:102890008b8571008d06e900beff3a000400e00060
:1028a00003003d00320007000f00400094ff0700c6
:1028b0004fa897000000e00004003a000fb4970012
:1028c0009fb497002fb59700bfb597000800be00d2
:1028d0000a01be004f0778004f06be004f05be003c
:1028e0004f04be004f01b10000000600018040000f
:1028f00090b79f000001eb008fb097000100e0004f
:10290000000006000200700090b79f0001804000a8
:1029100080b79f000001eb00ffa897000100e000d6
:10292000000006000200700080b79f000180400098
:102930006faa9700cf20de0001007000f0af9f006b
:10294000040242000800be000a01be004f18de006b
:102950000002720000000600e4af9f00080444007b
:1029600089844c000a054d008b854d00000006004f
:102970003fb29700cfb297005fb39700efb39700d5
:1029800000fe2f00000006003fb09700cfb0970078
:102990005fb19700efb1970000000600881f780034
:1029a00018002000881f780068ff07008f87e90063
:1029b0004f04780000000600801feb0063ff070053
:1029c0008f87e90000000600889fbe008a9fbe0036
:1029d0008c1f78000205be000004be00e00f50000e
:1029e000e08f5800e00f5900e08f59000c003d00c7
:1029f0006000b8006011b8000804500089845800d5
:102a00000a0559008b8559001c0020001f00070093
:102a100008003d00180007000006eb000500370025
:102a20000006eb001900070002003d000f00070040
:102a30001c0020000800be000a01be00d7ff0700ee
:102a40000203be000002be000c00e00001003200e4
:102a5000060007000400be000601be004f06780015
:102a60004f05be004f04be00000006006000b80025
:102a70006011b80000003700040250008582580041
:102a8000060359008783590000000600e00f52003a
:102a9000e08f5a00e00f5b00e08f5b000000060053
:102aa000889fbe008a9fbe008c1f78000205be0072
:102ab0000004be00e00f5000e08f5800e00f590006
:102ac000e08f59000a003d006000b8006011b800b6
:102ad00008045000898458000a0559008b85590064
:102ae0001c0020001800070007003d00050037000b
:102af0000006eb001400070003003d006000b80072
:102b00006011b800150007000800be000a01be00f1
:102b1000a9ff07000203be000002be000c00e00097
:102b2000030032006000b8006011b8000b0007001d
:102b30000400be000601be004f0678004f05be002f
:102b40004f04be0000000600e00f5200e08f5a0064
:102b5000e00f5b00e08f5b00000006000402500005
:102b6000858258000603590087835900000006003b
:020000040000fa
:0200000401f009
:04000c00f8ff0000f9
:020000040000fa
:0200000401f009
:040010007bff000072
:020000040000fa
:0200000401f009
:040014007fff00006a
:020000040000fa
:0200000401f009
:04001c00dfff000002
:020000040000fa
:1000080090020000900200009002000090020000a0
:100018009002000090020000900200009002000090
:100028009002000090020000900200009a18000060
:10003800900200009002000090020000d818000012
:10004800900200009002000090020000662f00005d
:10005800ba2f0000900200009002000090020000f9
:100068009002000090020000900200009002000040
:100078009002000090020000900200009002000030
:100088009002000090020000900200009002000020
:100098009002000090020000900200009002000010
:1000a8009002000090020000900200009002000000
:1000b80090020000900200009002000090020000f0
:1000c80090020000900200009002000090020000e0
:1000d80090020000900200009002000090020000d0
:1000e80090020000900200009002000090020000c0
:1000f80090020000900200009002000090020000b0
:10010800900200009002000090020000900200009f
:10011800900200009002000090020000900200008f
:10012800900200009002000090020000900200007f
:10013800900200009002000090020000900200006f
:10014800900200009002000090020000900200005f
:10015800900200009002000090020000900200004f
:10016800900200009002000090020000900200003f
:10017800900200009002000090020000900200002f
:10018800900200009002000090020000900200001f
:10019800900200009002000090020000900200000f
:1001a80090020000900200009002000090020000ff
:1001b80090020000900200009002000090020000ef
:1001c80090020000900200009002000090020000df
:1001d80090020000900200009002000090020000cf
:1001e80090020000900200009002000090020000bf
:0801f8009002000090020000db
:020000040000fa
:10020800900200009002000090020000900200009e
:10021800900200009002000090020000900200008e
:100228009002000090020000900200009a1800005e
:10023800900200009002000090020000d818000010
:10024800900200009002000090020000662f00005b
:10025800ba2f0000900200009002000090020000f7
:10026800900200009002000090020000900200003e
:10027800900200009002000090020000900200002e
:10028800900200009002000090020000900200001e
:10029800900200009002000090020000900200000e
:1002a80090020000900200009002000090020000fe
:1002b80090020000900200009002000090020000ee
:1002c80090020000900200009002000090020000de
:1002d80090020000900200009002000090020000ce
:1002e80090020000900200009002000090020000be
:1002f80090020000900200009002000090020000ae
:10030800900200009002000090020000900200009d
:10031800900200009002000090020000900200008d
:10032800900200009002000090020000900200007d
:10033800900200009002000090020000900200006d
:10034800900200009002000090020000900200005d
:10035800900200009002000090020000900200004d
:10036800900200009002000090020000900200003d
:10037800900200009002000090020000900200002d
:10038800900200009002000090020000900200001d
:10039800900200009002000090020000900200000d
:1003a80090020000900200009002000090020000fd
:1003b80090020000900200009002000090020000ed
:1003c80090020000900200009002000090020000dd
:1003d80090020000900200009002000090020000cd
:1003e80090020000900200009002000090020000bd
:0803f8009002000090020000d9
:020000040000fa
:102b70003c6d00003e61000076650000726100005f
:102b8000676500002f730000636100006c6900003e
:102b90006e6700003a0a0000613a0000202500003c
:102ba0006c6400002f2500006c6400000a620000c5
:102bb0003a200000256c0000642f0000256c000006
:102bc000640a0000633a0000202500006c640000e5
:102bd0002f2500006c6400000a6400003a20000009
:102be000256c0000642f0000256c0000643c000090
:102bf0002f6d00003e0a0000003c00006d3e00000a
:102c00005379000073740000656d000020700000af
:102c100061750000736900006e6700003c2f0000c2
:102c20006d3e00000a0000003c6d00003e530000b5
:102c300079730000746500006d200000726500006b
:102c4000737500006d6900006e6700003c2f000086
:102c50006d3e00000a0000002573000020250000e2
:102c60007320000025730000003c0000683e000057
:102c700000090000003c00002f6800003e0a000030
:102c8000003c0000753e0000003c00002f75000075
:102c90003e0a0000003c0000723e0000003c0000c4
:102ca0002f7200003e0a00000070000061750000f5
:102cb00073650000006700006f0000003c6d0000bd
:102cc0003e53000079730000746500006d20000021
:102cd000676f0000213c00002f6d00003e0a0000dd
:102ce000007200006573000065740000003c000085
:102cf0006d3e0000456e00007465000072690000c2
:102d00006e670000207200006573000065740000ab
:102d1000206d00006f640000652e00003c2f000055
:102d20006d3e00000a000000636100006c69000055
:102d30006200000073650000740000007361000011
:102d40006d7000006c650000746900006d65000026
:102d5000007000006f730000747200006174000066
:102d6000650000003c6d00003e5000006f730000e5
:102d7000746900006e67000020700000657200003a
:102d8000696f00006420000073650000742000007b
:102d9000746f0000200000003c2f00006d3e00001a
:102da0000a000000626c0000696e00006b72000097
:102db00061740000650000003c6d00003e420000b0
:102dc0006c6900006e6b00002070000065720000ee
:102dd000696f00006420000073650000742000002b
:102de000746f000020000000737400006570000024
:102df0007261000074650000003c00006d3e000040
:102e000053740000657000002070000065720000bf
:102e1000696f0000642000007365000074200000ea
:102e2000746f0000200000007800000079000000ae
:102e3000616c0000706800006100000073740000a5
:102e40006f700000007000006f7300007469000074
:102e50006e670000003c00006d3e0000506f0000f7
:102e600073740000696e0000672000007374000036
:102e70006f70000070650000642e00002054000098
:102e80007970000065200000277300007461000065
:102e900072740000207000006f73000074690000fd
:102ea0006e67000027200000746f00002072000091
:102eb00065730000756d0000652e00003c2f00005a
:102ec0006d3e00000a0000006d6f0000746f00008e
:102ed00072730000007300007461000072740000df
:102ee0000078000070000000786d0000007900009c
:102ef00070000000796d0000003c00006d3e000095
:102f0000436f00006d6d0000616e000064200000e2
:102f1000756e00006b6e00006f7700006e3a000067
:102f2000200000002000000073650000636f0000b7
:102f30006e64000073000000696e00000063000012
:102f40007473000000000000949700009c9700003c
:102f50009c9700009f9700009f9700009f9700009c
:102f60009f9700009f9700009f9700009f97000089
:102f70009f9700009f9700009f97000054690000f2
:102f80006d650000005800002d53000074650000be
:102f900070000000592d000053740000657000009f
:102fa0000051000075610000644100000051000004
:102fb000756100006442000000510000756100006e
:102fc000644300000051000075610000644400008b
:102fd00000540000656d0000700000005175000095
:102fe00061640000415f0000666900006c740000cd
:102ff0000051000075610000644200005f6600003f
:10300000696c0000740000005175000061640000ec
:10301000435f0000666900006c740000005100000e
:1030200075610000644400005f660000696c000088
:1030300074000000546500006d7000005f660000c1
:10304000696c000074000000be970000c397000088
:10305000ca970000d1970000d7970000dd970000c5
:10306000e3970000e9970000ee970000f997000051
:10307000049800000f9800001a980000256c0000ca
:10308000752e000025300000336c00007500000034
:10309000256300002e25000030340000640000008d
:0830a000256c00006400000033
:020000040000fa
:1030a8000000fa0090022000303a880044c7bf00b0
:1030b800f043b20044e7b700417420009140780023
:1030c80000ceb30000c0600044e7b7001200200043
:1030d80081072000a009200033742000814978006e
:1030e800804978008249780012002000610420009d
:1030f80070052000237420008149780080497800f9
:103108008249780043c7bf000047b200f04f500023
:10311800fcff3a0042c7bf000042b2000004e000d2
:10312800fcff32000080fa00000006003600f800bc
:10313800809fbe00829fbe00849fbe00869fbe0007
:103148000000fa00f0b8800001b98000610040007a
:10315800e0804800f0b8880001b98800f4b8800021
:1031680005b9800010b980006101b9000400be00f3
:10317800d2f60700e00f5000e08f580002003a0036
:103188001000200020b988008460a9000080fa009f
:103198004f03be004f02be004f01be004f00be00ed
:1031a8003600f900004006000000fa0084e0a9009b
:1031b8000080fa00004006000000fa000000eb0062
:1031c80000088800703521001008880000012800d8
:1031d800200888008460a9009460a8000080fa0094
:1031e800000006000000fa0000fc2f0060198800ab
:1031f80030012000001688000000eb00301688001f
:103208000000eb0020168800f03e200040168800e1
:103218000000eb00701688000000eb0060168800c4
:10322800c16920009140780000ceb30000c0600062
:103238006040b3009ce6b700d16920009140780057
:1032480000ceb30000c060007040b3009de6b70038
:10325800016a20009140780000ceb30000c06000f1
:103268009040b300a0e6b700116a200091407800b2
:1032780000ceb30000c060000034a000a1e6b70093
:103288000000eb00800c8800416a20009140780023
:1032980000ceb30000c060005040b300a4e6b70001
:1032a800416c20009140780000ceb30000c060005f
:1032b8003040b300c4e6b7000080fa000000060002
:1032c8000400fa00101680004400de00610060006f
:1032d8000004e00004003200b09880000000e8001c
:1032e800b098880006003700b09880000000e00021
:1032f80003003400b09880000000e900b09888000e
:10330800b09880000000e00016003a00c0988000e5
:10331800100798001e009000e10f500009003200cd
:103328001e009000e20f5000010032000a00370032
:103338000000eb00c09888000000eb00000f780048
:103348001f0037000000eb00c09888001000200024
:10335800000f78001a0037000000eb00000f78001b
:1033680017003700b0988000e50f500006003a00bb
:10337800c09880000000e00003003a001000200020
:10338800c09888000c003700b1988000401f2000ca
:10339800808f500008003a00c0988000e10f50006c
:1033a80005003a000000eb00c098880020002000cb
:1033b800000f7800020037000000eb00000f7800d3
:1033c8001e0078000080fa00000006000000fa00e5
:1033d800004e2000001988000000eb0080198800ca
:1033e8000000eb001019880020f021002019880047
:1033f8002063a90021e3a8000080fa00000006006d
:103408000400fa00000f78001107980000702000ef
:10341800000f880000192000300f88000000eb0022
:10342800200f880000702000800f880000192000fd
:10343800b00f88000000eb00a00f88009e00780005
:10344800401e2000800878001e0178006000b80047
:1034580010019800210198001e0178006000b80052
:1034680030019800410198001e0178006000b80002
:1034780050019800610198001e0178006000b800b2
:1034880070019800010998001e0178006000b800da
:1034980010099800210998001e0178006000b80002
:1034a80030099800410998009e009000401f2000b4
:1034b800800878001e0190006000b8001001980094
:1034c800210198001e0190006000b80030019800aa
:1034d800410198001e0190006000b800500198005a
:1034e800610198001e0190006000b800700198000a
:1034f800010998001e0190006000b80010099800aa
:10350800210998001e0190006000b8003009980059
:10351800410998000080fa00000006000400fa0043
:10352800100798000000eb00000f78001e009000c4
:10353800401988002023a8001e0fe80020c3bf0000
:10354800614060000004e000fcff320000188000c9
:103558000080fa00000006000200fa00000f780060
:103568001e00780010007800100078000000d100dc
:10357800010020001e0178003001980041019800e8
:103588001e00780030019000c00190001e007800f5
:10359800a008900010089000000051008180590098
:1035a8001e01780050019800610198001e00780003
:1035b80050019000e0019000e0fc2f00f1ff2f0087
:1035c800800f5100818f59000e003d001e007800c9
:1035d80070019000800990001e007800e0009000c3
:1035e8005000900002004000838048000019b0009d
:1035f8000180b0001e017800300998004109980048
:10360800230037001e00780050019000e001900070
:103618002003200001002000800f5100818f5900f5
:10362800100034001e00780070019000800990009e
:103638001e007800e0009000500090000201400059
:103648008381480000e72f00f1ff2f0002004000af
:10365800838048001e0178003009980041099800cd
:103668000b0037001e007800700190008009900060
:103678001e007800e000900050009000020040001a
:10368800838048001e01780030099800410998009d
:103698001e007800c0009000300090001e017800e5
:1036a80010099800210998001e007800c0089000b1
:1036b800300890001e0178007001980001099800f8
:1036c8000080fa00000006000400fa0010079800c5
:1036d8001e009000100078009000780030ff2f0046
:1036e800008f60001e009000100178001e009000fe
:1036f80010009000100078004200dd009e0070006d
:103708001e00900020009000100078004300dd00ab
:1037180000807000000978000080fa0000000600b0
:103728000800fa0020079800310798002e00900042
:1037380070089000100178002e0090008010900012
:103748002e00900010109000008070000080ea00a9
:10375800000f61002e009000700990002e0090006c
:10376800801090003e0090000088b9009e00700014
:103778002e00900010109000008070000009780062
:103788000000eb0010079800030037001e009000af
:103798000000e800100798001e009000e90f500094
:1037a800faff34002e009000700990002e0090005f
:1037b800801090003e0090000088b9001e00700044
:1037c800000978000080fa00000006000e00fa00e8
:1037d80020079800310798002e009000700890008c
:1037e800900078002e009000201090000080ea00e1
:1037f80000806000100798002e009000700890006c
:10380800600798002e009000201090005007980044
:103818000000eb00400798003e0090000000e00028
:1038280002003a0011002000410798005e01900054
:10383800ce0190000390b900800078001e0090002f
:1038480000807000ee009000800878000000eb0017
:10385800000f7800010037001e0fe80092002000da
:103868009e0f1100fcff34000080fa0000000600e3
:103878000c00fa00889fbe008a9fbe008c1f78004b
:1038880020079800320798004307980051079800ce
:103898002e0090003e019000ce0190000288be00ec
:1038a8002e00900010989000b00090002e0090001c
:1038b800119898002e009000109890003e019000fa
:1038c800ce0190000288be005e0090000000e0007b
:1038d800190032002e009000309b9000c09b900091
:1038e800860078003e009000000ab8004e00900064
:1038f80000b0b90005017800000141003e009000c9
:103908000780b90000014100820278004128dd00eb
:103918004f21de0002017000cfa9de002e009000ca
:10392800e098900050989000000051008180590064
:1039380030079800410798002e00900000989000ea
:10394800b00090002e0090000198980040ba8000c6
:103958000000e000270032002e009000009e90003a
:103968002e00900040029000d00290008400780061
:103978003e009000000db8004e00900000a0b90075
:103988000b017800000141003e0090000580b9005d
:1039980000014100820578002e00900000989000f8
:1039a800200090001004be002e00900060039000dc
:1039b800f00390008800780006007800000ab8003c
:1039c80007c0b900050178000001410009b0b9003d
:1039d80000014100820278000a0042008b804a0000
:1039e800823e2000030020006df30700008ebe0019
:1039f8006c0037002e0190006000b800200198008c
:103a0800310198002e00900010989000b0009000ae
:103a18002e009000119898002e00900010989000a9
:103a28003e019000ce0190000288be002e0090005a
:103a380090999000030f78000000eb0010079800a1
:103a4800220037002e009000809990002e009000f0
:103a5800009890001005be001e0078001004be00fb
:103a68002e009000a09890001e0090004200dd00fb
:103a78000080e800008040001003be008800780045
:103a880006007800000ab80007c0b90005017800f0
:103a98000001410009b0b90000014100820278002c
:103aa80041a8de00cf80de000a0040008b8048007d
:103ab8008089be001e007800a0009000010f7800e9
:103ac8001e0090000000e800100798002e009000eb
:103ad80020989000100078008000e8001e009000f8
:103ae800808f5000d7ff3c002e0090000099900076
:103af800020f7800100020001007980022003700fd
:103b08002e00900020059000b00590001e0078005f
:103b18001004be002e009000a09890001e00900097
:103b28004200dd00a002b000008040001003be008b
:103b38008800780006007800000ab80007c0b900bd
:103b4800050178000001410009b0b90000014100f9
:103b58008202780041a8de00cf80de000000550018
:103b680081805d002e0190002001980031019800ad
:103b78001e007800a0019000030f78001e0090003e
:103b88000000e800100798002e0090002098900090
:103b9800100078008000e8001e009000808f500020
:103ba800d7ff3c002e009000009890001000be0047
:103bb8002e01900020019800310198002e009000fd
:103bc800b0009000200090004f0678004f05be001e
:103bd8004f04be000080fa00000006000a00fa0048
:103be800400798006000b800100798002107980067
:103bf8004e00900080989000010f78000000eb00c4
:103c0800300798000e0037001e0078001001be0033
:103c18001e009000ae009000020050008380580003
:103c280010079800210798001e007800a000900057
:103c3800010f78003e0090000000e800300798006f
:103c48003e009000e30f5000efff340040002000da
:103c5800300798000e0037001e0078001001be00e3
:103c68001e009000ae0090000000410081804900d5
:103c780010079800210798001e007800a000900007
:103c8800010f78003e0090000000e800300798001f
:103c98003e009000e90f5000efff34009e009000b6
:103ca80040012000000ab8001e0090006000b90022
:103cb80005017800000141002e0090007400b90051
:103cc800000141008202780004007800cf80de0005
:103cd8004e0190007099980001a198004e00900044
:103ce80080a09000709890000080fa000000060004
:103cf8000200fa00000f78001e00780010a1900062
:103d0800a0a190001e007800b00090002000900054
:103d180002004000838048001e01780010a198002e
:103d280021a198001e007800a0a0900010a090008b
:103d38000080fa00000006000400fa00000f780076
:103d4800110798001e0078009e0090000108780076
:103d58000080fa00000006000600fa00200798001c
:103d68000000eb00100798002e0190006000b800da
:103d780030a1980041a198002e00900090989000e2
:103d8800010f78002e00900030a19000c0a1900093
:103d98001e0078001000be0002004000838048002a
:103da8002e01900030a1980041a198001e007800d3
:103db800a0009000010f78001e0090000000e800ad
:103dc800100798002e009000109890009e0f500049
:103dd800ecff3a002e00900030a29000c0a29000a4
:103de8001e0090006101b9000400be006cf20700db
:103df8002e01900030a1980041a198002e0090005b
:103e0800c0a0900030a090000080fa0000000600da
:103e18001600fa00889fbe008a9fbe008c9fbe00d5
:103e2800000f98000000eb00700798000e08900043
:103e3800c9ff070010002000600798001d00370028
:103e4800ee009000a00c20000088b90080007800e7
:103e58000e08900000804000bfff0700ee009000b1
:103e68000e099000a00c20000088b900600cb0007a
:103e7800000041001001be00fe0090000e0a9000f4
:103e8800a00c20000088b900600cb00000004200bf
:103e98001000be00800f5100818f590002003d00c4
:103ea8006e009000700798006e0090000000e80017
:103eb800600798006e009000e30f5000e0ff3400a8
:103ec8000000eb006007980047003700ee02900002
:103ed800fe0090000e099000a00c20000088b90098
:103ee800600cb000000041001001be000e0a9000f6
:103ef800a00c200000a8b900a00bb00000004200f0
:103f08000288be00fe0090000e099000a00c200060
:103f18000088b900600cb000000041001000be002d
:103f280053f207004007980051079800ee009000f0
:103f38000e099000a00c20000088b900600cb000a9
:103f4800000041001000be0049f207002007980059
:103f5800310798002e019000be0190004e0090009d
:103f6800de009000ccf1070002002000037024005e
:103f78000ef30700008fbe001e00be0002002000e6
:103f880003f8230065f207000200200003f0230075
:103f980014f207000000e00001003d0005003700b2
:103fa8000200200003f823001e00be005df1070098
:103fb800008fbe006e0490001e00be000bf20700ca
:103fc8000001be000e0a9000a00c200000c0b9003d
:103fd800600bb000000042000288be006e00900036
:103fe8000000e800600798006e009000e30f5000a2
:103ff800b6ff34000e089000200b9300b00b93001e
:104008000e08900020149300b01493000e0890003e
:1040180050259200e02592000e089000502e920044
:10402800e02e92000e08900000819100908191008e
:10403800120f9800230f98000e0890000089910035
:10404800908991000e089000309a9000c09a9000d4
:104058000e089000c0a0900030a09000869fbe007f
:10406800889fbe008a9fbe008c9fbe001e0b9000da
:10407800ae0b9000869fbe00829fbe00849fbe004c
:10408800809fbe00805b2900801f7800e0512100de
:1040980063f30700e0fd2f00808747008080eb0076
:1040a800e0512100170807004f06be004f05be006b
:1040b8004f04be000080fa00000006000600fa0067
:1040c80010079800210798000000eb00000f780007
:1040d8001e009000ae009000219898000000eb00b0
:1040e800000f78002d0037009e0178001e00900018
:1040f80001062000808040001e0078004300dd009b
:1041080000804000680140009e0090004318dd00d8
:104118004006b000823078009e01e8001e00900042
:1041280001062000808040001e0078004300dd006a
:10413800008140009e0090004318dd006006b0003a
:10414800823078009e0178001e009000f000400048
:104158001e0078004300dd00008040006801400038
:104168009e0090004318dd00740040008230780003
:104178009e01e8001e009000f00040001e0078003c
:104188004300dd00008140009e0090004318dd00e0
:1041980076004000823078001e0fe8008000200082
:1041a8009e0f1000d0ff34001e0178001e00900002
:1041b80003062000808141009e0090004310dd002e
:1041c8004006b000833078001e00900001062000f1
:1041d800808040001e0078004300dd0080804000a1
:1041e8001e009000313098001e0178001e009000db
:1041f800f00140009e0090004310dd007400400074
:10420800833078001e009000f00040001e00780007
:104218004300dd00808040001e00900031089800b7
:104228001e00900001062000808040001e009000c3
:10423800119898001e009000f00040001e009000a9
:10424800019898000080fa00000006000600fa00b5
:1042580020a02000100798000000eb00000f780055
:104268003a0037001e009000b01090001e00900029
:1042780040109000808f50000d0032001e0090000a
:1042880030109000200798002e0090000000e000f9
:1042980003003d00ae0090008100ea00210798006d
:1042a80090ba8000ae009000808f50000400340067
:1042b8008000eb001e00900044fd0700200037003e
:1042c800110020001e00900040fd07001e00900015
:1042d800b01090001e00900040109000808f500099
:1042e80009003400110020001e0090000cfd07009a
:1042f8001e009000401090008000e8001e00900012
:10430800411098000e0037001e009000b010900079
:104318001e00900040109000808f500008003d0063
:104328008000eb001e009000fdfc07001e009000be
:10433800401090008000e9001e0090004110980095
:10434800c0a22000100798001e0fe80010002000ef
:104358009e0f1000c3ff34000080fa000000060022
:104368000400fa00000f78001e00780010007800a2
:104378008000eb00110798000000e00002003a00fe
:1043880010002000100798001e0078009e00900082
:10439800010878001e007800100078000000e00096
:1043a800080032008080eb00d05f29005507070025
:1043b800f0b8800001b98000d0988800e1988800a2
:1043c800070037008080eb00406129004d07070097
:1043d800d0988000e1988000f0b8880001b9880082
:1043e8000000eb0050b988000080fa0000000600c9
:1043f8000400fa0010079800980707000000e00082
:104408000800320060070700000f78009e0078005f
:10441800e031210064070700e13121001e0090000f
:10442800020007000080fa00000006000400fa00fd
:10443800000f780011079800010220001e8040003c
:104448001e017800f00041001e017800801f7800ee
:10445800811f7800821f7800c0622900801f7800c1
:104468001e0090005af50700e88757001e007800e4
:10447800940007000080fa00000006000800fa0017
:10448800000f78001107980022079800330798005a
:104498009e00780010002000c08098001e00780060
:1044a800be009000010878001e0078009e00900071
:1044b800110098001e007800ae00900021009800be
:1044c8000080fa00000006000400fa0010079800b7
:1044d80031002000506329000a0707000000eb00a4
:1044e800000f7800190037001e009000900090001f
:1044f8001e00780000004000008040001000780096
:1045080030f20700000178001e0090009000900033
:104518001e00780000004000008040001000780075
:1045280082007800f70607001e009000100078004f
:104538000000e9009e0f5000030034001100200025
:1045480090632900ef0607001e0fe8001e00900088
:10455800100078009e0f5000e3ff3c00510020003f
:10456800b0632900e70607001e009000040007005a
:104578000000eb0050ba88000080fa000000060036
:104588000400fa0010079800310020001064290088
:10459800dc0607000000eb00000f78001900370068
:1045a8001e009000a00090001e007800000040004f
:1045b800008040001000780002f207000001780037
:1045c8001e009000a00090001e007800000040002f
:1045d800008040001000780082007800c9060700bb
:1045e8001e009000100078000000e9009e0f5000a7
:1045f800030034001100200090632900c106070061
:104608001e0fe8001e009000100078009e0f50005a
:10461800e3ff3c005100200050642900b906070060
:104628000080fa00000006000400fa001007980055
:1046380050ba80000000e000030032001e00900025
:10464800a1ff07001d00370031002000b0642900d9
:10465800ac0607000000eb00000f780010003700e0
:104668001e009000660140001e0078006a00b90034
:10467800000041008080eb00a20607001e009000a9
:10468800100078000000e9009e0f5000030034007d
:1046980011002000906329009a0607001e0fe80009
:1046a8001e009000100078009e0f5000ecff3c00a8
:1046b80051002000f0642900920607000080fa00eb
:1046c800000006000400fa00881f78001007980010
:1046d8001e0090005200200051652900bff107001c
:1046e8000000e00003003a00807221001cff070070
:1046f800320137001e00900022002000b165290019
:10470800b6f107000000e00006003a0010002000a3
:1047180030b98800e1ff2f00e0652900790607001d
:10472800260137001e009000520020001167290062
:10473800aaf107000000e00006003a000000eb00c4
:1047480030b988008080eb00706729006d0607008b
:104758001a0137001e00900052002000416929000c
:104768009ef107000000e00003003a0000b12000bd
:10477800a7fd0700110137001e009000320020003d
:10478800a169290095f107000000e00095003a00b2
:104798001e00900070004000a2002000e16929007e
:1047a8008ef107000000e00005003a001e009000ae
:1047b8000002b0005ff1070010b98800ff00370061
:1047c8001e0090007000400082002000916a2900bd
:1047d80082f107000000e0000f003a001e00900080
:1047e8000002b00053f10700a0b988008080eb00f8
:1047f800206b2900430607001e0090000002b0004d
:104808008080eb003f0607008080eb00c06c290029
:104818003c060700e90037001e00900070004000c9
:1048280092002000216d29006cf107000000e000d3
:104838000f003a001e0090000002b0003df1070092
:1048480090b988008080eb00c06d29002d06070014
:104858001e0090000002b0008080eb0029060700cf
:104868008080eb00c06c290026060700d3003700c3
:104878001e0090007000400092002000416f290047
:1048880056f107000000e0000f003a001e009000fb
:104898000002b00027f10700c0b988008080eb0053
:1048a800d06f2900170607001e0090000002b00014
:1048b8008080eb00130607008080eb00c06c2900a5
:1048c80010060700bd0037001e0090007000400071
:1048d80090407800407129001040780080cf500047
:1048e80005003a001e0090000002b00011f1070018
:1048f80040518800b10037001e0090007000400051
:1049080090407800607129001040780080cf5000f6
:1049180005003a001e0090000002b00005f10700f3
:1049280090528800a50037001e00900070004000db
:1049380090407800807129001040780080cf5000a6
:1049480025003a000000eb00000f78001e00370039
:104958001e0478001e0090000002b000f5f0070069
:104968006101b900a00c200000c0b900e8004000b7
:1049780000b12000008040000288be001e027800be
:104988009e007800a00c20000088b900e8004000d4
:1049980000b12000008040001001be00803e2000d1
:1049a800010020000201500083815800a00c200063
:1049b80000a0b900ec00400000b1200000804000d9
:1049c8000288be001e0fe800400020009e0f100065
:1049d800dfff3400790037001e0090007a000700de
:1049e800760037001e00900042002000e171290087
:1049f800faf007000000e0001e003a001e009000d8
:104a0800700040007200200031722900f3f00700a6
:104a18000000e00006003a000000eb0030ba880011
:104a28008080eb00b0722900b605070063003700ec
:104a38001e009000700040004200200041762900ce
:104a4800e6f007000000e00007003a008000eb00f5
:104a580020a020005dfb07008000eb00c0a2200022
:104a68005afb0700550037001e009000560007004b
:104a7800520037001e00900052002000b176290035
:104a8800d6f007000000e0000a003a001e0090007f
:104a9800700040007200200031722900cff007003a
:104aa8000000e00045003a001000200030ba8800fd
:104ab800420037001e0090002200200011772900d4
:104ac800c6f007000000e0000a003a0011002000cc
:104ad80020a020003dfb0700485180001e009000e8
:104ae8007000400093f00700000044004051880027
:104af800320037001e009000220020004177290074
:104b0800b6f007000000e0000a003a00110020009b
:104b180020a020002dfb0700485180001e009000b7
:104b28007000400083f007000000540040518800e6
:104b3800220037001e009000220020007177290013
:104b4800a6f007000000e0000a003a00110020006b
:104b5800c0a220001dfb0700985280001e00900094
:104b68007000400073f00700000044009052880075
:104b7800120037001e00900022002000a1772900b3
:104b880096f007000000e0000a003a00110020003b
:104b9800c0a220000dfb0700985280001e00900064
:104ba8007000400063f00700000054009052880035
:104bb800020037001e009000030007004f04780031
:104bc8000080fa00000006000200fa00000f7800da
:104bd8008080eb00d07729004a0507001e00780086
:104be8008080eb004705070011002000207929008c
:104bf800440507009e007800708040008080eb002c
:104c08004005070011002000207929003d05070014
:104c1800010220001e8040008080eb00390507005b
:104c280051002000c06c2900360507000080fa00fa
:104c3800000006004e00fa00889fbe008a9fbe0052
:104c480017f9070067f907005bf90700dff90700a4
:104c5800c1a2200020a02000e9f907000000eb0015
:104c6800400798000000eb00400798002d0037002f
:104c7800ce009000a00c20000088b900e40040009d
:104c880000b12000008140006000b8000089be002b
:104c9800ce009000a00c20000088b90080007800a9
:104ca80000b12000008140006000b8000089be000b
:104cb800ce009000a00c20000088b900e800400059
:104cc80000b12000008140002003200001002000e6
:104cd8000089be00ce009000a00c20000088b9001a
:104ce800ec00400000b1200000814000603b200043
:104cf800010020000089be00ce009000a00c20001a
:104d08000088b9008000780000b1200000804000d1
:104d180041752100e9fc07004e0090000000e80002
:104d2800400798004e009000e40f5000d0ff340078
:104d38000000210061572400e0508800f1508800ed
:104d4800c02c200000518800000028001051880065
:104d58000000240020518800000022003051880003
:104d68008000eb0020a0200098fa07000000eb006c
:104d7800405188000000eb005051880000002100dd
:104d8800615724003052880041528800c02c20000e
:104d980050528800008020006052880000002100e6
:104da8007052880000402000805288008000eb008c
:104db800c0a2200085fa07000000eb00905288008e
:104dc8000000eb00a052880000202c0011002000f9
:104dd800080407006a004700418229000c00090006
:104de80031187800a001b100400220000e004000f8
:104df800437a29000c00090033187800a001b1009b
:104e0800420220000e014100ea004700d3002000c2
:104e180060a8200099fd07006000b800f0b888007d
:104e280001b988000000eb004007980043003700f4
:104e3800f2b8800003b98000d0b98000e1b98000e1
:104e4800800f5100818f5900f9ff39000000eb00f5
:104e5800300798002b003700be0490004e059000e4
:104e6800be0590004e0490003e009000abf907008c
:104e78006101b9004342dd00a00c200000d8b90050
:104e880000004200010620008080400000b12000a0
:104e9800008040000288be004341dd00a00c2000d5
:104ea80000d8b900000041000106200080804000c1
:104eb80000b12000008040001001be004352dd0018
:104ec800a00c200000c8b90000004200f00040001b
:104ed80000b12000008040000288be000000eb0006
:104ee800000f7800010037001e0fe8003006200090
:104ef8009e0f1000fcff34003e0090000000e80008
:104f0800300798003e009000e40f5000d2ff3400b4
:104f1800b0b980006101b900f0b8800001b9800023
:104f28000200400083804800d0b98800e1b98800b9
:104f38004e0090000000e800400798004e009000e6
:104f4800e90f5000baff3400f0b8800001b98000c2
:104f5800027d2000030020000000410081804900fc
:104f680010079800210798002d003700d2b980005b
:104f7800e3b98000f0b8800001b98000800f5100cb
:104f8800818f590003003600005080000000e000c7
:104f9800230034000050800060f907006101b90067
:104fa8000050800080007800a00c20000088b90024
:104fb8008000780000b12000008040008000eb00f5
:104fc8002bfa070000508000e50f50000b003a0054
:104fd8000000eb0000508800b0b980006101b90002
:104fe800f0b8800001b980000200400083804800ca
:104ff800d0b98800e1b98800090037000050800066
:105008000000e80000508800f0b8800001b9800076
:1050180061004000e0804800d0b98800e1b988000c
:10502800f2b8800003b980001e009000ae00900026
:10503800800f5100818f5900ccff390000b120004a
:1050480073fb070000003700530407000000e0006e
:1050580001003200ed030700d2b98000e3b98000f7
:10506800f0b8800001b98000800f5100818f59008d
:1050780003003600005080000000e00023003400e8
:105088000050800025f907006101b9000050800038
:1050980080007800a00c20000088b900800078000b
:1050a80000b120000080400011002000f0f9070046
:1050b80000508000e50f50000b003a000000eb00a4
:1050c80000508800b0b980006101b900f0b88000d4
:1050d80001b980000200400083804800d0b98800f0
:1050e800e1b9880009003700005080000000e8009e
:1050f80000508800f0b8800001b9800061004000cd
:10510800e0804800d0b98800e1b9880020b9800063
:105118000000e000ccff320069f807006027980023
:105128006e209000e10f50000c003200ee2090003d
:10513800e28f5000010032000a0037000000eb0047
:1051480030b9880040b980000000e00005003a004e
:105158008072210082fc0700020037008072210063
:105168007ffc070032bd800043bd8000f0b880009e
:1051780001b98000800f5100818f590009003e005d
:1051880032fc0700c0b980006101b900f0b88000a6
:1051980001b98000020040008380480030bd8800cb
:1051a80041bd880040b980000000e00003003a00db
:1051b8000073210070ba880002003700c072210015
:1051c80070ba8800f2b9800003ba8000f0b8800095
:1051d80001b98000800f5100818f590011003e00f5
:1051e80090b980006101b900f0b8800001b9800071
:1051f8000200400083804800f0b9880001ba8800a6
:1052080060b980008001eb00532798000000e0009f
:1052180002003a001000200050279800de2090007d
:1052280061b98800c074210027f9070030ba8000ee
:105238000000e000d700320012ba800023ba8000d4
:10524800f0b8800001b98000800f5100818f5900ab
:10525800d0003e00f0b8800001b98000823e2000f6
:105268000300200095ee07000004be00f0b880009f
:1052780001b98000823e2000030020007fee070075
:10528800c2a82000889fbe00809fbe00e08329003e
:10529800801f78009100200002007800acf1070020
:1052a800ea8757005051800040279800ce2190008f
:1052b8000300e00003003d004e2090000000ea00db
:1052c8004027980002712200ce21900011000900a9
:1052d8008201d8008000fd003027980050518000de
:1052e8000000e00003003d00d002200020279800c5
:1052f80002003700010320002127980060a9200040
:1053080000017800be219000831f78002e209000b5
:10531800801f780080842900801f78009100200079
:10532800020078008af10700e6875700a052800043
:10533800102798009e2090000100e00003003d0027
:105348009e2190008301ea00132798000271220031
:105358009e219000110009008201d8008000fd0004
:1053680000279800a05280000000e00003003d00e4
:10537800d0022000701f98000200370001032000af
:10538800711f980000aa2000000178008e2190006b
:10539800831f78007e189000801f78008084290081
:1053a800801f7800910020000200780068f1070053
:1053b800e68757008258800093588000a0aa2000f2
:1053c80000027800829fbe0000852900801f7800b7
:1053d80091002000040078005df10700e68757007f
:1053e800d25e8000e35e800040ab200000027800bf
:1053f800829fbe0000852900801f78009100200050
:105408000400780052f10700e68757002265800003
:1054180033658000e0ab200000027800829fbe0068
:1054280000852900801f7800910020000400780082
:1054380047f10700e6875700726b8000836b800096
:1054480080ac200000027800829fbe000085290001
:10545800801f780091002000040078003cf10700cc
:10546800e6875700c2718000d371800020ad20000c
:1054780000027800829fbe0000852900801f780006
:10548800910020000400780031f10700e6875700fa
:10549800a2588000b3588000c0ad200000027800f8
:1054a800829fbe0000852900801f7800910020009f
:1054b8000400780026f10700e6875700f25e8000b6
:1054c800035f800060ae200000027800829fbe006b
:1054d80000852900801f78009100200004007800d2
:1054e8001bf10700e687570042658000536580007e
:1054f80000af200000027800829fbe0000852900ce
:10550800801f7800910020000400780010f1070047
:10551800e6875700926b8000a36b8000a0af200045
:1055280000027800829fbe0000852900801f780055
:10553800910020000400780005f10700e687570075
:10554800e2718000f371800040b020000002780012
:10555800829fbe0000852900801f780091002000ee
:1055680004007800faf00700e687570060a82000da
:105578002dfc0700a0b980006101b900f0b88000d7
:1055880001b98000020040008380480010ba8800fa
:1055980021ba880060a5200095fb07000000eb00f9
:1055a80020b98800a8fe37001000fa00000f780024
:1055b80011079800220798003307980044079800bd
:1055c8005507980066079800770798001e0078002e
:1055d8009e009000210098001e0178006000b8002d
:1055e80030099800410998001e0178006000b80051
:1055f80050099800610998001e0178006000b80001
:1056080010119800211198001e0178006000b80060
:1056180070099800011198001e0078001eb99700c3
:10562800aeb9970032009800430098001e00780039
:105638007eb197008eb997005200980063009800d9
:105648001e0178006000b8000089be001e007800c6
:105658003eb99700ceb99700521898006318980081
:105668006e039000fe0390004e029000de02900050
:105678002e019000be0190001e0078000200070075
:105688000080fa00000006001400fa00889fbe009f
:10569800000f780012079800230798003407980035
:1056a8004507980056079800670798001e0078007d
:1056b8001e019000ae01900022209800332098002f
:1056c8001e0078003e019000ce0190004220980014
:1056d800532098001e0078005e019000ee019000b3
:1056e80062209800732098008041eb00335798009f
:1056f8006011b8005e009000ee00900037ec0700e3
:105708000000e000010032000200370010c0b300c2
:10571800305798003e5090000004a2000004e000ba
:1057280025003a000041eb00225798006011b800ac
:105738003e009000ce00900028ec07000000e0003a
:10574800010032000200370013c0b300235798004d
:105758002e5090000004a2000004e00016003a0059
:105768001e0078001e019000ae01900032109800d3
:10577800431098001e0178006000b800501198008e
:10578800611198001e0178006000b800701198003f
:10579800011998001e0178006000b80010199800df
:1057a800211998001e0178006000b800301998008f
:1057b80041199800c70037008041eb001357980043
:1057c8006011b8003e009000ce00900005ec070084
:1057d8000000e00001003c000200370010c0b300e8
:1057e800105798001e5090000004a2000004e0002a
:1057f8003e003a000041eb00025798006011b800e3
:105808005e009000ee009000f4eb07000000e0005e
:10581800010032000200370013c0b300035798009c
:105828000e5090000004a2000004e0002f003a008f
:105838003e009000ce0090000001be0039eb07004a
:105848000002be001e00780050199000e019900078
:105858000400be0090eb07001e019000ae0190000e
:1058680030eb07001e0178003011980041119800b4
:105878000200200003002c003e009000ce009000a3
:10588800caec07000002be001e0078005019900004
:10589800e01990000400be007feb07001e01900095
:1058a800ae0190001feb07001e0178005011980010
:1058b800611198001e0178006000b800701198000e
:1058c800011998001e0178000000200001f82b0043
:1058d80010199800211998001e0178006000b8007e
:1058e80030199800411998007a0037000040eb0001
:1058f800704f98006011b8003e009000ce009000f4
:10590800b6eb07000000e00001003200020037009b
:1059180012c0b300724f98007e4890000004a200a5
:105928000004e00010003a008041eb00634f98004b
:105938006011b8005e009000ee009000a9eb07002f
:105948000000e00001003c000200370010c0b30076
:10595800604f98006e4890000004a2000004e00028
:1059680001003a005b0037003e009000ce00900036
:105978000001be00ebea07000002be001e0078002e
:1059880050199000e01990000400be0042eb070097
:105998001e019000ae019000e2ea07000004be007c
:1059a8001e007800e0189000501890005e019000ea
:1059b800ee0190007dec07000200200003002400a7
:1059c80035eb07000001be000800be00d5ea07005d
:1059d8001e01780030119800411198001e007800cf
:1059e800e0189000501890005e019000ee019000c1
:1059f8006eec07000004be000200200003082c0023
:105a08003e009000ce00900068ec07000002be0047
:105a18001e00780050199000e01990000400be00a4
:105a28001deb07000001be000800be00bdea07002c
:105a38001e01780050119800611198003e009000f6
:105a4800ce0090000001be00b6ea07000002be00ca
:105a58001e00780050199000e01990000400be0064
:105a68000deb07000004be001e007800e01890004f
