:020000040000fa
:080000000002040000000000f2
:020000040000fa
:100400000fc921000e7f22000e01880000000000ad
:100410000c00070040f4220001002000110007003a
:10042000000020000000e000020032000000020096
:100430000000000028240200000000000040da0054
:100440000000fe004440a900802520000000e000dc
:100450000300320000002000a00188004440a800f2
:100460000000060091018800800078000000eb0089
:1004700015003700e280400032a0b4009101ba00bc
:10048000e280400032a0b4009102ba00e280400055
:1004900032a0b4000002eb00472bde00f507b200eb
:1004a000602ce10004003a000059eb008301e900f0
:1004b000fdff3e00040037006128e100010032002a
:1004c0000082eb00040007001101ba000200e00006
:1004d000e8ff3a00000006003159ba008301e90044
:1004e0000c0032002159ba008301e90008003200f3
:1004f0000400e00003003a00e280400032a0b400b3
:10050000f5ff370011d9ba008301e900faff3a007c
:100510008100e800e180400032a0b4000000060045
:100520000040da000000fe0003f0a200889fbe0039
:100530008a9fbe008c1f7800350107003c01330004
:100540006450e1004f0032006420e10052003200ac
:1005500003826c0007003b000905d0000306d000b1
:10056000820f54000c065d000200390002003200c8
:1005700089017800030678008582550004003d005b
:100580000003fd008103fd008502ea008b85420027
:10059000840f720002003b0060001000e080180031
:1005a0006011b8000005eb007a28e1000a0039006c
:1005b00006007800c75ddd00f707b2008780750090
:1005c0002d003700828171000a017800610560000a
:1005d0008180d1000080d3008502e900f9ff3b0053
:1005e000060440008784480002003b0060041400b9
:1005f000e0841c000988a300070032008a81710092
:1006000082817100610164008904d1000884d300f3
:100610008b05e800170037000978a30013003a00a3
:100620000b00e000130034008b05e90008044400cf
:1006300089844c000a4474000978a3000d003a0034
:100640000b00e000070034008b05e90008044400bb
:1006500089844c0001003a000b0020000978a300b7
:10066000f7ff32000001eb000200370082817100c9
:100670000a017800ab0007000cf0a70001f0a00011
:10068000f40037006420e10002003a00838f6c0020
:10069000f40033000801be000200be00ed00370088
:1006a000889fbe008a9fbe008c1f7800d80007007c
:1006b000df00330003866c006450e1002e0032003e
:1006c0006420e100330032006150e1002f0032006d
:1006d0006120e1003100320085855500eb07b00054
:1006e0000900200008042000050037000804440029
:1006f00089844c000a0031000603430087834b00c5
:100700000001530081815b00f8ff33000203be004b
:100710000800a0000804440089844c00f6ff39005a
:10072000c639dd0083017300010032001300200090
:100730008904d1000884d3000998a3000500320081
:100740000800a7000300a0008904d1000884d3009a
:100750008b05e8008904d1000884d3000001eb0078
:100760000281d2006f00070001f0a1000cf0a70089
:1007700001f0a000b70037006420e100b9003200aa
:100780000801be000200be00f7ff37006120e10053
:10079000b40032006000b800f3ff37000000200012
:1007a00001f82700f0ff3700839f68000100e00098
:1007b00002003d0060001000e08018000300e0002f
:1007c00002003d0060011100e0811900dc0007001b
:1007d0004f00e00002003b0060001000e0801800c5
:1007e0000000060014002000e8003700f4ff2f008e
:1007f000e60037000001be00700007000470a7008b
:1008000003f0a1006509b100160032000d003500ab
:100810006828e10006003500f0ff2f00f1ff2700f7
:100820000300e00013003b00010028000000050069
:1008300000004000818048008502e900fcff3a008a
:1008400008003700f88f420002003c008000eb00f7
:10085000000005008100d1000080d3008502e8007f
:10086000fcff3a000300e00002003b0060001000c3
:10087000e080180000000600889fbe008a9fbe002e
:10088000010578000100e0000400350008003c008c
:100890000000e0002000320005003700600010007a
:1008a000e080180002003b0001f02c001a00370025
:1008b0000004be006011b8006b0920000982cf005f
:1008c000020039000882cf000441b00069425200a2
:1008d0000e00320008003b0082817100610164005b
:1008e0008904d1000884d3008b05e8000442e800a5
:1008f000f9ff3a00050037000804440089844c00e1
:100900008b05e9000442e900fbff3a0005000700ff
:100910000af0a70001f0a0004f05be004f04be0082
:100920000000060081002000618055000b003d00a2
:100930000b00200061fe2f000100e1001d003400cb
:1009400082817100610164008904d1000884d300b0
:100950000000e800faff3a00710020006100640026
:1009600003007000020060000900320061044400ce
:10097000e0844c000988a500050032008b05e800e2
:100980006808e10002003a008904d1000884d3001d
:10099000f20f20000258e10005003d00c75ddd00b8
:1009a000f907b20089807500080078000000060091
:1009b0000bf827008b00780000000500c70ade0056
:1009c000f107b200f50fb20008003200e1cf42009b
:1009d000020032000170a00024000500810f7000a9
:1009e000010032000408050044000500810f70007a
:1009f00002003a00140005008502e90000004000f2
:100a000081c04800fcff3b000170a00024000500ed
:100a10000004be00e9ff07000003be000405be009d
:100a20000200be00e5ff0700844f750000000600cd
:100a30000200be006450e100050036006420e100c1
:100a4000020036000968a30001003a000800be0059
:100a50000160a0004f0678004f05be004f04be00a5
:100a600000000600f0ff2f00f1ff2700f9ff37001c
:100a7000889fbe008a9fbe008c1f7800e4ff07009d
:100a8000ebff330003866c006450e1002400320069
:100a90006420e100270032006150e10022003200b2
:100aa0006120e100210032008b854200eb07b1009c
:100ab0000134b800003ab8000804420089844a00b2
:100ac000013ab8000030b8008880400009014a00af
:100ad000040033000000400081804800020149000a
:100ae0008b05e900c909dd008301700001003200b7
:100af00013002000c814de004814dd004709de00a2
:100b00001200b200c808de000884700085ff0700ec
:100b100001f0a1000cf0a70001f0a000cdff37000c
:100b20006120e100cfff32000801be000200be00dc
:100b3000f7ff37006150e100fcff3a00c9ff3700c2
:100b40006022b800060220000000d0008180d200a0
:100b50000482d2008582d2000000a000020252006e
:100b600083825a00030031000202420083824a005d
:100b70000000a1000603e900f3ff3a0000000600b0
:100b8000efff07000400be0000000600889fbe00c3
:100b90008a9fbe00841f78009dff07004f007800e9
:100ba00011003300f0ff2f00838f6c0006003b0024
:100bb000040565000a00a7000800370009f0a60038
:100bc0001000200008003700820f5400838f5c0063
:100bd000030039001000200001003e00000020004a
:100be00009f0a7000000ea004f05be004f04be0058
:100bf0000000e000000006000001780000c2b30021
:100c0000010037000201e8009240780080cf5000d8
:100c1000fcff3200e9cf5000faff3200d0c2b3002f
:100c200080cf500003003a000201e80014c0b30076
:100c3000050037000042eb00b0c2b30080cf500087
:100c400001003a000201e8008000eb0005fd2f00e2
:100c5000040037006a08b9000080410085004000a8
:100c60000201e8009201fb0005804100e90f5000fd
:100c7000f8ff36000404e000010032008100ea00c1
:100c80000100780000000600800078003004e000d9
:100c9000feff3a00010050000000e90000000600dd
:100ca000810178000002eb000b003700e44078007f
:100cb0000104e000030032000402e80093cf50007a
:100cc000040032008180fb001380fb000080500094
:100cd000000006008301e800820f5200f3ff3a0093
:100ce000000005000000fa004fb99700e8815700a6
:100cf000020007000080fa00000006000c00fa0065
:100d0000881f7800000278008202780003017800d2
:100d10008001eb00e18f50000e0036000100e90079
:100d2000e0bf9f000004eb00a8bf9f0094bf9f009e
:100d3000b4bf9f00200c2000c0bf9f00850078003a
:100d40006e80570024020700800178001fb89700ca
:100d500008487800030078004f0478000080fa000b
:100d6000000006000c00fa00a0bf9f00c0bf9f005b
:100d7000c5ff0700b0bf9f00f0bf9f00100c200010
:100d8000d0bf9f0074815700efb097006c80570070
:100d90002e0007000080fa0000000600889fbe00b9
:100da000000478008144780000fd2f00000044001a
:100db000e90f500002003e00000178000d003700ee
:100dc00008007800540107000000e0000300320032
:100dd0000800780056010700000478000800780039
:100de0003b0107000000e0000700320090fa2f00ee
:100df000000144000980fb00800f510002003d000b
:100e00000280fb0001003700f00f20004f04be00fd
:100e100000000600881f780060c480004b010700b6
:100e200000047800340107000000e000faff3a00f7
:100e3000e10f44000300320061c480000800780024
:100e4000760107004f04780000000600ec87470099
:100e5000889fbe008a9fbe008c9fbe008e1f7800b8
:100e600081bf9f000207780060c488008046eb00c5
:100e7000040137008884fb00090078001e01070088
:100e8000800078000000e00002003200e1ff07006f
:100e9000fc00370050c2b300804f5400f0003a000d
:100ea0000fbd970020c0b300c0ef9f00d1ef9f009f
:100eb00081ef9f000300370040c0b300c0ef9f00e8
:100ec0000fbd97000fb99700b240780082bf9f0016
:100ed0008184fb0090c6b30080cf50003500320003
:100ee00017003e006640500080cf50006200320084
:100ef0000c003e007740500080cf500028003200a8
:100f000006003e000104e0009b003200a0c2b300d6
:100f100080cf50006e003a001d00370080c5b3003e
:100f20001600370040c6b30080cf500021003200c9
:100f30006440400080cf500065003a001200370046
:100f400030c7b30080cf50001e00320007003e00c3
:100f50006740500080cf50001100320063404000d5
:100f600080cf50005a003a001400370050c7b30039
:100f700080cf50000f0032006340400080cf50000f
:100f800053003a006500370020c0b300cbff3700a4
:100f9000dfe897008140e800d1ef9f00c8ff3700ed
:100fa0004fe9970080c0b300e24f5100c3ff3a0001
:100fb000c1ff3700acc0b300590037008cc0b3008c
:100fc0005700370093ff0700dfe897000104e000b7
:100fd00002003a004e017800d2b79f0060c4800042
:100fe000da00070000047800e10f4000a2003200a0
:100ff0008fec9700120037000a85e8008abf9f0037
:10100000160037008fb897001100fb00800f5400c6
:10101000f9ff32005fe997000204e00003003a00a4
:101020005fb0970008587800d0b79f008944e90066
:101030000a00320060c48000c40007000004780089
:101040000800e800e10f50000400360008007800b6
:10105000a90007000000e000eaff3200dfe8970087
:101060000104e00087003a008d46e8005fb1970078
:1010700001497800830037005fe897000004e00032
:1010800003003a008d46e800ce007800d1b79f00fb
:1010900060c48000ad000700e10f40007600320020
:1010a0005fe997000204e00003003a00dfb0970018
:1010b00080587800d1b79f000fe997000241e900fe
:1010c00082ef9f004240a9006e003400f0ff37001d
:1010d0000180fb0008fd2f0008004000e90f5000d0
:1010e0005f003e000a007800c3fe070080ef9f000b
:1010f00088007800030037000fb897000000e80070
:1011000080bf9f000fb997001200fb000100400054
:10111000e90f5000f8ff360069ff37000cc1b3003b
:101120003cff070060c480008800070000057800cd
:101130000040eb00e0ef9f00d0022000800f550040
:1011400005003a0060c480008000070000057800b8
:1011500011c0b300e1ef9f008c4078000a007800d6
:101160000eff0700e14f40000a003a0061c4800012
:101170000a007800a90007000d04e0004b003a00c7
:1011800060c48000300090000048a300430032009b
:10119000480037008fed97006044b8000c81fb00d9
:1011a000030020000800be00e70407000004be00a2
:1011b0008c4078000a007800f8fe07000080fb00f1
:1011c0000100200008044000898448008b45e900a4
:1011d0000700320060c480005c0007000005780052
:1011e0008c407800edfe0700e14f4000ebff3a0035
:1011f0008c4078000a007800e8fe0700e14f4000cc
:1012000003003a0061c480000a00780083000700f0
:101210006fe997000204e00002003200600414004d
:10122000e0841c005fe897000004e00015003a002d
:101230008d46e800cfe89700e4cf500003003a0065
:101240004e0078000888be000e0037000e81e900cd
:1012500002077800120078000808780009003700bb
:1012600060c4800039000700808f54000500320000
:10127000e10f40000b003a000d04e0000d003200c9
:101280000a0037008fb897003144780081bf9f0073
:101290000804e000f7fe3a00040037000000eb000d
:1012a0000500370061c480005c0007000d80fb0072
:1012b000010037000080eb004f0778004f06be00aa
:1012c0004f05be004f04be00cf00b1000000060075
:1012d0001004b100070035009001b1000400340093
:1012e0007000b100030035009001b10001003c0026
:1012f00010000500000005006900e1000400350051
:101300006d00e100030034000002b1000100320072
:1013100000000500100005001004b10003003500b6
:101320009001b10001003c00100005000000050024
:10133000800078001104b100030035009101b10074
:1013400001003c000050a00000000600881f78004b
:1013500000047800b00090000148a30007003a00a4
:101360000108a300050032000198a3000800320024
:10137000100090000000e0000500320038009000ee
:101380000040a000300498008080eb00200037006f
:101390000190a10031049800180090000000e000c6
:1013a000060034000000e9001004980018007800de
:1013b000b080fb00000c7800060037003800900079
:1013c0000068a300edff3a00080078003400070031
:1013d00080007800380090000078a3000c003a00ec
:1013e000fa8f500008003a00280090000000e0004a
:1013f000e2ff3200180090000000e800100498009e
:10140000180ce900ddff3700ed8f5000e2ff3200dd
:10141000010078004f047800000006000003780007
:1014200001027800e10f40001a0032003100900004
:101430000008a300170032000098a30015003a002e
:10144000a10390000700e00012003200910290001a
:101450006129b90051009000e1009000800f510017
:10146000818f59000b00320014007800870f500064
:1014700002003a00000ae800020037000500e80018
:10148000100298001400e900000a7800064878006d
:10149000010037000083eb00060078000000060022
:1014a0000200fa00889fbe008a1f780000047800be
:1014b0000000eb0010049800380090008080eb00e2
:1014c0000008a3003f003200a08821001004e000c3
:1014d00010003200298621008a8621001a00780037
:1014e0006c0545002010b20021102000810f500033
:1014f00002003a000900780036030700ec8444003b
:1015000060882100808f5400f4ff3a00a0882100f9
:101510000048eb0048009000580190000200e000f5
:101520000d003a001204980012002000e8805700d5
:1015300095030700e10f500003003a000ff89700f1
:101540008080fb001f003700380090000040a000a2
:101550003004980012003700a80090008a030700aa
:10156000100498000000e00003003200e10f40008a
:101570000d003a0003003700380090000040a00042
:1015800002003700380090000003b30030049800d8
:10159000a8009000010c78000000eb0010049800f7
:1015a0008080eb0007003700a8009000010c780055
:1015b0000000e9001004980001007800b080fb00f2
:1015c000000c7800010078004f0578004f04be0041
:1015d0000080fa0000000600fe874700889fbe00da
:1015e0008a9fbe008c9fbe008e1f7800f0b79f00c0
:1015f0000107780082bf9f000000eb00a0b79f00aa
:101600009f0237008006eb0050c2b30080cf50002d
:10161000090032000100fb00ffb09700a3020700a1
:10162000e10f400096023200afb097008100e80061
:10163000a1b79f00920237009e407800d0c2b3004d
:1016400080cf50000c00320007003c006d4050007d
:1016500080cf50000a0032006b40400080cf500025
:101660000e003a000800370000c3b30080cf5000de
:101670000a003a00060037000d30a00005003700d0
:101680000d00a000030037000d10a000010037007e
:101690000d20a0000e07e800e7ff37000d18a3009b
:1016a000010032000d00a1000d38a300010032003e
:1016b0000d20a1000100fb0002fd2f0002004000f0
:1016c000e90f50000e003e000002eb00c4b79f007f
:1016d00082017800cfb297006a28b9001e01fb0092
:1016e0000001410003014100c2b79f005e00fb0002
:1016f00003004000e90f50000b003e00f5ff3700eb
:101700000006eb00ccb79f00a0c2b30080cf500012
:1017100005003a000fb89700c000780080bf9f0016
:10172000c1b79f000e07e8000001eb00b2b79f00b1
:10173000e0c2b3009e4f100018003a000de0a00078
:101740008e00e80064405000914f1000020032000b
:10175000010778000c0037000fba9700c402780028
:1017600084bf9f00b5b79f000e87e8000b003700cd
:101770003fb697006a60b9000000410003004000d6
:10178000b0b79f000e07e8001e01fb0003fd2f000d
:1017900003004100e90f5000f5ff3600be4078001d
:1017a000e1d79f00c0c6b30080cf500022003200b6
:1017b0000f003c006940500080cf5000770032009d
:1017c00004003c000104e000310232006b40500094
:1017d0000f00370040c6b30080cf500093003200a6
:1017e0006540400080cf50008b003a008f003700ea
:1017f00030c7b30080cf50001a00320007003c0011
:101800006440500080cf5000110032000040e800da
:1018100080cf500080003a000f00370050c7b3005f
:1018200080cf5000800032006340400080cf5000e5
:1018300079003a0009003700000028000d48a30095
:1018400001003a000001200080867600d3ff3700b7
:101850000d60a000750037000d50a0000d70a000b5
:10186000720037008fb897004100780081bf9f0059
:10187000000478000000e00001003a0068832100c5
:101880008004eb00010037008104e8008900780043
:10189000088044001004e000fbff3a003fb19700cd
:1018a0000200e00003003200890f51000100310006
:1018b000820478000002eb00e4af9f00cfb29700f3
:1018c000898f52000200360009805200e0af9f006d
:1018d0004368de00e10660001b003a000d06780058
:1018e00009003700ffb0970000022000ef01070059
:1018f000e10f4000030032002fb097000000e80025
:10190000a0b79f000c06e800efa89700810f5600d3
:10191000f4ff3a000081eb00e2af9f000a003700bd
:10192000880078003100fb0001047800ffb09700c8
:10193000de010700e10f4000030032002fb29700e4
:101940000402e800a4b79f000900e90080047800c1
:10195000e10f4000f2ff3a000006eb000d00e0004e
:101960000a003a00c6013700ffb0970000022000cd
:10197000ce010700e10f400003003200afb2970034
:101980008502e800a5b79f000c06e8006fa8970045
:10199000800f5600f4ff3a00b90137008fb8970066
:1019a0004100780081bf9f00cf80de0001017800f8
:1019b000820178000205be000004be000203be00e2
:1019c0000002be004822de00482edd000402760040
:1019d000e4d79f000d48a3000a0032000404e00091
:1019e00008003200e14f42000600320071fd2f0076
:1019f0000180470004487800184098002900200022
:101a000002003700f0d79f001900200072fd2f0060
:101a100002844700a1ff370064fd2f0004844700c3
:101a2000190020009dff37000d0cb3000d00780059
:101a3000000cb20028003a000d00e00005003d0057
:101a40008fba97004505be004504be0085bf9f00c4
:101a5000140037000d48a3000b0032000fbe9700a2
:101a60004c00be008cbf9f004f89de00cf91de008e
:101a70000002be0002037800820378000605be0063
:101a80000404be00070037008fb8970041007800bb
:101a900081bf9f0000047800cfc4de0009057800f4
:101aa0008a057800e00f5400e08f5c00e00f5d00d5
:101ab000e08f5d001f003d003d00b3006000b800f6
:101ac0006011b80008045000898458000a055900c4
:101ad0008b855900170037000d00e00005003d0020
:101ae0000fb997004205be004204be0082bf9f00ae
:101af000100037000d48a300070032000fba97000e
:101b00004400be0084bf9f006011b8000205be0003
:101b10000004be00070037008fba97004500780028
:101b200085bf9f0000047800090020000a00200003
:101b30000b0020003fb697000c00e00007003a00c1
:101b4000e00f5400e08f5c00e00f5d00e08f5d006f
:101b500002003a0010002000b0b79f008d0078000e
:101b6000010cb200e1b79f0000042000808f5000fc
:101b70003000320003003c000100e00008003200a9
:101b800040003700000820006fb19700800f51001f
:101b900014003200000c2000800f510039003a0080
:101ba00014c0b300657921000b0037000400fb006e
:101bb0004300dd00050040005001be004000be00b3
:101bc0000040e10001c8e10002d0e10003d8e100db
:101bd0002b0039000442e800f44f5200f3ff3a00b2
:101be0002700370000012000010020006011b8002c
:101bf00014c0b3000040e10001c8e10002d0e100e0
:101c000003d8e1001e003900450020000000d0008c
:101c10008180d2000281d2008381d2008502e90056
:101c2000faff3a000442e800f04f5200f1ff3a0098
:101c30001300370080002000010020006011b80070
:101c400014c0b3000040e10001c8e10002d0e1008f
:101c500003d8e1000a0039003c0020000000d00059
:101c60008180d2000281d2008381d2000c06e9007b
:101c7000faff3a000442e800f54f5200f1ff3a0043
:101c8000e4d79f00efd097000100fb003fb1970021
:101c9000820f500002003d00e2d79f000400370091
:101ca0003fb29700800f520001003d00b0b79f0087
:101cb000cfb297000500e0000400320063806600a8
:101cc000020032008502e900c5b79f000de8a300bd
:101cd0000b0032004fb697003fb09700800f5600c0
:101ce00003003c008000eb00c1b79f0004003700f8
:101cf0004fb197003fb2970004015100c2b79f0057
:101d0000efd297000500fb000006eb00dcaf9f0060
:101d1000cfb09700808f5000020034000080500048
:101d2000d0af9f000d28a30037003200e18066008d
:101d30000d18a3000c003200d00220000100e000ca
:101d400001003a000080e900ffb09700d7000700cb
:101d5000e10f40000e0032002fb197000201e800b1
:101d6000a2b79f000a0037000100e000080032001f
:101d7000ffb0970000022000cc000700e10f4000f8
:101d8000030032002fb297000402e800a4b79f00be
:101d9000dfaa97000500e0000f0032000006eb000c
:101da000ffb0970000032000c0000700e10f4000d3
:101db000030032002fb097000000e800a0b79f009a
:101dc0000c06e800dfa89700810f5600f4ff3a00e8
:101dd0000001eb00d2af9f003fb29700c320dd00af
:101de000e07821008080400091b79f004220dd0014
:101df0006400500080b79f006320b900f0af9f00df
:101e00006306500084003700dfaa97000500e00059
:101e100011003200688066000f003a00000678006a
:101e2000ffb0970000022000a0000700e10f400073
:101e3000030032002fb097000000e800a0b79f0019
:101e40000c06e800dfa89700810f5600f4ff3a0067
:101e50000001eb00d2af9f00e18066000d18a300e7
:101e60000c003200d00220000100e00001003a0026
:101e70000080e900ffb097008c000700e10f4000f0
:101e8000d5ff32002fb297000402e800a4b79f00ec
:101e9000d1ff37000100e000cfff3200ffb0970014
:101ea0000002200081000700e10f4000caff32005d
:101eb000afb297008502e800a5b79f00c6ff3700c4
:101ec00000042000efb09700808f500031003200f6
:101ed00003003c000100e000080032003e00370033
:101ee000000820006fb19700800f510011003200f0
:101ef000000c2000800f510037003a001fb09700ff
:101f00003002be002003be000800be000a01be0071
:101f10003a020700a4002000050020006033b8004a
:101f20003d02070004c3b30004424000e4d79f0011
:101f300029003700d5832100d5b79f000d58a30095
:101f400002003a00e0842100d0b79f001400200076
:101f5000050020006033b8008fb097008100e900d1
:101f6000050033000402d0008582d2000683d2002f
:101f70008783d200f9ff37000800be000a01be00c7
:101f80001e0207006f0060005fb19700624078009a
:101f90001000370014002000050020006033b80056
:101fa0000c0078000000e900050033000402d000b6
:101fb0008582d2000683d2008783d200f9ff3700e2
:101fc0000800be000a01be000c0207006740600066
:101fd0000043b000e0d79f00efd097000100fb0066
:101fe000ffb0970031000700e10f4000030032000e
:101ff0002fb197000201e800a2b79f001fb297001f
:102000006802520094b79f008fb29700e48252009a
:1020100085b79f0063065600d0ff2f003fb19700a1
:102020000090b9007faa97000000420063005000b2
:10203000800f5600a2ff3a000d38a30010003200b6
:10204000dfaa97000500e0000d0034000006eb0059
:10205000ffb097000002200014000700e10f4000cd
:10206000030032002fb097000000e800a0b79f00e7
:102070000c06e800dfa89700810f5600f4ff3a0035
:10208000be407800e1d79f000104e0005dfd3a000a
:102090002fb097004f0778004f06be004f05be00d7
:1020a0004f04be00ef01b10000000600889fbe0093
:1020b0000001780001047800b10090000118a3002d
:1020c000400032000198a30003003a00180090007d
:1020d0000000e0003b003a000190a00031049800ad
:1020e00082047800f90fb200180090000000e000b0
:1020f00002003a0028009000000c7800ea8f54009b
:1021000006003a00380090000078a30003003a006f
:1021100088007800d0002000e4ff0700180290003b
:102120006121b90058009000e8009000800f510034
:10213000818f59000b0032000400e8001004980061
:102140001800780009587800000c780011c0b3001e
:10215000a088210001487800ea8f54000600320070
:102160001900370088007800094078004300070014
:102170008004780014003700380090000088a30025
:102180001100320018019000a80090004800900053
:10219000b600070098009000810f50000400320044
:1021a000380090000003b300300498008084eb00f6
:1021b0000000eb001004980028009000000c78004c
:1021c000010037008084eb00090078004f04be0056
:1021d00000000600881f780000047800300090009e
:1021e0000008a30007003200800078000120b20040
:1021f00004003a0011049800a8009000010c780037
:10220000170037000018a300190032000098a3003f
:1022100017003200a80090000100e0001400320016
:10222000180190000200e000110032004800900008
:102230008e00070098009000810f500003003200cc
:10224000380090000003b300300498000000eb0059
:102250001004980028009000000c780038009000ce
:102260000058a300020032000080eb00010037009c
:102270000000eb004f047800000006000200fa00a6
:10228000889fbe00a0ff9f0001047800b10090006d
:10229000810478000904b200020032000000fb0053
:1022a000360037000118a30005003a000103b3000f
:1022b00031049800190498000080eb002f003700cb
:1022c000580090000000e00006003a00480090002e
:1022d00012002000e68057006400070019049800ef
:1022e00024003700280090000000e00008003a00b9
:1022f0006088210020049800000c78002000200055
:1023000050049800100498000130a0003104980097
:1023100018019000a80090004800900053000700aa
:1023200028009000000c78000080eb00100498005a
:1023300018007800aff8970001587800000c78007a
:102340002ff89700ea4f50000a003a00380090003a
:102350000088a3000700320018019000a800900038
:10236000480090004100070019049800a800900060
:10237000010c7800aff897000100fb004f04be008d
:102380000080fa00000006000a00fa00881f7800aa
:10239000800178000000e00029003a0070c480004d
:1023a000e10f500008003200802320000000e00010
:1023b000050032000423200025232000672320008d
:1023c000800178000400370004222000252220002c
:1023d0006722200083222000144090000004e000c7
:1023e000040035008009eb00144090000074a00048
:1023f000104298000002eb000c003700130a200086
:10240000154478006140640002003a008301e9004d
:10241000fbff3a000402e8009541780061c06100ca
:10242000050032001700780080587800040351003e
:10243000820f5200f1ff3a000600510008003700f9
:1024400020002000a0bf9f00b3bf9f00c1bf9f001e
:10245000d2bf9f006c80570000c0da005fb89700c1
:102460004f0478000080fa00000006000a00fa001d
:1024700080017800e20f500028003e0070c4800008
:10248000e10f500008003200802320000000e0002f
:1024900005003200042320002523200046232000cd
:1024a000800178000400370004222000252220004b
:1024b0004622200083222000144090000004e00007
:1024c000040035008009eb00144090000074a00067
:1024d00010429800154090000028a30003003a0025
:1024e000154090000024a000904298008001eb006d
:1024f00007003700154090000008a300fdff3200e0
:1025000063c078000000fb00000b78008301e80046
:10251000828f5100f7ff3a0008003700300020009a
:10252000b0bf9f00c3bf9f00d1bf9f00e2bf9f000d
:102530006a80570000c0da006fb997000200780087
:102540000080fa0000000600020ab900001bb90072
:102550000200b80081004200810043000000060034
:10256000881f7800000478005001be004000be00c3
:102570000400400085804800060149008781490029
:10258000009cbe000294be000400e1000588e1004a
:102590000690e1000798e100020031006800440065
:1025a0001008e8004f04780000000600f487470098
:1025b000889fbe008a9fbe008c9fbe008e1f780041
:1025c0000205be000004be00d4b79f00e5b79f001f
:1025d000f6b79f0087bf9f000000eb00c0b79f00c9
:1025e000b0b79f00a0b79f0090b79f0080b79f0033
:1025f0000d042000bfb097004fb0970000014000cd
:102600000000e0000f003d004f08de0000007100f8
:10261000c0b79f004d00070001003d0012002000e0
:102620005000070001003d00120020005500070087
:1026300061000700660007000f004000c8ff0700a8
:10264000220037004f08de0000067100ccb79f0063
:102650003e00070001003d0012002000410007007d
:1026600001003d0012002000460007005200070054
:102670000fb297009fb297002fb39700bfb3970098
:10268000590007000000520081805a0002015b00df
:1026900083815b0080b79f0091b79f00a2b79f0026
:1026a000b3b79f000007eb004f0007000020e100d8
:1026b00001a8e10002b0e10003b8e100010031002f
:1026c0001e0020000e005600c0b79f004fb29700ba
:1026d0000400e00007003500100020000100200089
:1026e0006011b80008047000898470000a05710048
:1026f0008b8571008d06e900beff3a000400e00002
:1027000003003d00320007000f00400094ff070067
:102710004fa897000000e00004003a000fb49700b3
:102720009fb497002fb59700bfb597000800be0073
:102730000a01be004f0778004f06be004f05be00dd
:102740004f04be004f01b1000000060001804000b0
:1027500090b79f000001eb008fb097000100e000f0
:10276000000006000200700090b79f00018040004a
:1027700080b79f000001eb00ffa897000100e00078
:10278000000006000200700080b79f00018040003a
:102790006faa9700cf20de0001007000f0af9f000d
:1027a000040242000800be000a01be004f18de000d
:1027b0000002720000000600e4af9f00080444001d
:1027c00089844c000a054d008b854d0000000600f1
:1027d0003fb29700cfb297005fb39700efb3970077
:1027e00000fe2f00000006003fb09700cfb097001a
:1027f0005fb19700efb1970000000600881f7800d6
:1028000018002000881f780068ff07008f87e90004
:102810004f04780000000600801feb0063ff0700f4
:102820008f87e90000000600889fbe008a9fbe00d7
:102830008c1f78000205be000004be00e00f5000af
:10284000e08f5800e00f5900e08f59000c003d0068
:102850006000b8006011b800080450008984580076
:102860000a0559008b8559001c0020001f00070035
:1028700008003d00180007000006eb0005003700c7
:102880000006eb001900070002003d000f000700e2
:102890001c0020000800be000a01be00d7ff070090
:1028a0000203be000002be000c00e0000100320086
:1028b000060007000400be000601be004f067800b7
:1028c0004f05be004f04be00000006006000b800c7
:1028d0006011b800000037000402500085825800e3
:1028e000060359008783590000000600e00f5200dc
:1028f000e08f5a00e00f5b00e08f5b0000000600f5
:10290000889fbe008a9fbe008c1f78000205be0013
:102910000004be00e00f5000e08f5800e00f5900a7
:10292000e08f59000a003d006000b8006011b80057
:1029300008045000898458000a0559008b85590005
:102940001c0020001800070007003d0005003700ac
:102950000006eb001400070003003d006000b80013
:102960006011b800150007000800be000a01be0093
:10297000a9ff07000203be000002be000c00e00039
:10298000030032006000b8006011b8000b000700bf
:102990000400be000601be004f0678004f05be00d1
:1029a0004f04be0000000600e00f5200e08f5a0006
:1029b000e00f5b00e08f5b000000060004025000a7
:1029c00085825800060359008783590000000600dd
:020000040000fa
:0200000401f009
:04000c00f8ff0000f9
:020000040000fa
:0200000401f009
:040010007bff000072
:020000040000fa
:0200000401f009
:040014007fff00006a
:020000040000fa
:0200000401f009
:04001c00dfff000002
:020000040000fa
:1000080090020000900200009002000090020000a0
:100018009002000090020000900200009002000090
:100028009002000090020000900200008617000075
:10003800900200009002000090020000c417000027
:10004800900200009002000090020000702d000055
:10005800c42d0000900200009002000090020000f1
:100068009002000090020000900200009002000040
:100078009002000090020000900200009002000030
:100088009002000090020000900200009002000020
:100098009002000090020000900200009002000010
:1000a8009002000090020000900200009002000000
:1000b80090020000900200009002000090020000f0
:1000c80090020000900200009002000090020000e0
:1000d80090020000900200009002000090020000d0
:1000e80090020000900200009002000090020000c0
:1000f80090020000900200009002000090020000b0
:10010800900200009002000090020000900200009f
:10011800900200009002000090020000900200008f
:10012800900200009002000090020000900200007f
:10013800900200009002000090020000900200006f
:10014800900200009002000090020000900200005f
:10015800900200009002000090020000900200004f
:10016800900200009002000090020000900200003f
:10017800900200009002000090020000900200002f
:10018800900200009002000090020000900200001f
:10019800900200009002000090020000900200000f
:1001a80090020000900200009002000090020000ff
:1001b80090020000900200009002000090020000ef
:1001c80090020000900200009002000090020000df
:1001d80090020000900200009002000090020000cf
:1001e80090020000900200009002000090020000bf
:0801f8009002000090020000db
:020000040000fa
:10020800900200009002000090020000900200009e
:10021800900200009002000090020000900200008e
:100228009002000090020000900200008617000073
:10023800900200009002000090020000c417000025
:10024800900200009002000090020000702d000053
:10025800c42d0000900200009002000090020000ef
:10026800900200009002000090020000900200003e
:10027800900200009002000090020000900200002e
:10028800900200009002000090020000900200001e
:10029800900200009002000090020000900200000e
:1002a80090020000900200009002000090020000fe
:1002b80090020000900200009002000090020000ee
:1002c80090020000900200009002000090020000de
:1002d80090020000900200009002000090020000ce
:1002e80090020000900200009002000090020000be
:1002f80090020000900200009002000090020000ae
:10030800900200009002000090020000900200009d
:10031800900200009002000090020000900200008d
:10032800900200009002000090020000900200007d
:10033800900200009002000090020000900200006d
:10034800900200009002000090020000900200005d
:10035800900200009002000090020000900200004d
:10036800900200009002000090020000900200003d
:10037800900200009002000090020000900200002d
:10038800900200009002000090020000900200001d
:10039800900200009002000090020000900200000d
:1003a80090020000900200009002000090020000fd
:1003b80090020000900200009002000090020000ed
:1003c80090020000900200009002000090020000dd
:1003d80090020000900200009002000090020000cd
:1003e80090020000900200009002000090020000bd
:0803f8009002000090020000d9
:020000040000fa
:1029d0003c6d00003e5300007973000074650000f8
:1029e0006d2000007061000075730000696e0000ca
:1029f000673c00002f6d00003e0a0000003c000014
:102a00006d3e00005379000073740000656d000096
:102a10002072000065730000756d0000696e000093
:102a2000673c00002f6d00003e0a000000250000fa
:102a300073200000257300002025000073000000b3
:102a40003c6800003e000000090000003c2f000030
:102a5000683e00000a0000003c7500003e000000d7
:102a60003c2f0000753e00000a0000003c72000090
:102a70003e0000003c2f0000723e00000a000000f3
:102a8000706100007573000065000000676f000052
:102a9000003c00006d3e000053790000737400009c
:102aa000656d0000206700006f2100003c2f0000d2
:102ab0006d3e00000a0000007265000073650000b2
:102ac000740000003c6d00003e4500006e74000084
:102ad00065720000696e00006720000072650000ea
:102ae00073650000742000006d6f000064650000d5
:102af0002e3c00002f6d00003e0a00000063000025
:102b0000616c0000696200000073000065740000e1
:102b100000730000616d0000706c000065740000bf
:102b2000696d000065000000706f000073740000a4
:102b30007261000074650000003c00006d3e000002
:102b4000506f000073740000696e00006720000081
:102b500070650000726900006f640000207300005f
:102b600065740000207400006f200000003c00002d
:102b70002f6d00003e0a0000006200006c6900003a
:102b80006e6b00007261000074650000003c000084
:102b90006d3e0000426c0000696e00006b2000007a
:102ba00070650000726900006f640000207300000f
:102bb00065740000207400006f20000000730000a6
:102bc0007465000070720000617400006500000010
:102bd0003c6d00003e530000746500007020000052
:102be00070650000726900006f64000020730000cf
:102bf00065740000207400006f2000000078000061
:102c000000790000006100006c7000006861000045
:102c100000730000746f000070000000706f00000f
:102c200073740000696e0000670000003c6d0000d6
:102c30003e5000006f730000746900006e67000072
:102c400020730000746f0000707000006564000065
:102c50002e2000005479000070650000202700003d
:102c6000737400006172000074200000706f000037
:102c700073740000696e0000672700002074000074
:102c80006f20000072650000737500006d65000024
:102c90002e3c00002f6d00003e0a0000006d000079
:102ca0006f7400006f720000730000007374000006
:102cb000617200007400000078700000007800006d
:102cc0006d00000079700000007900006d000000c8
:102cd0003c6d00003e4300006f6d00006d61000020
:102ce0006e640000207500006e6b00006e6f0000c7
:102cf000776e00003a200000002000000000000075
:102d000073650000636f00006e64000073000000d4
:102d1000696e000000630000747300000000000092
:102d20008096000088960000889600008b96000030
:102d30008b9600008b9600008b9600008b9600000f
:102d40008b9600008b9600008b9600008b960000ff
:102d50008b960000546900006d650000005800006b
:102d60002d5300007465000070000000592d000014
:102d70005374000065700000005100007561000090
:102d800064410000005100007561000064420000d1
:102d90000051000075610000644300000051000014
:102da000756100006444000000540000656d00007f
:102db000700000005175000061640000415f000078
:102dc000666900006c74000000510000756100002d
:102dd000644200005f660000696c0000740000003f
:102de0005175000061640000435f000066690000e7
:102df0006c74000000510000756100006444000024
:102e00005f660000696c00007400000054650000fb
:102e10006d7000005f660000696c000074000000c7
:102e2000aa960000af960000b6960000bd9600007e
:102e3000c3960000c9960000cf960000d59600000a
:102e4000da960000e5960000f0960000fb96000080
:102e500006970000256c0000752e0000253000004c
:102e6000336c000075000000256300002e25000073
:102e70003034000064000000256c00006400000095
:020000040000fa
:102e80000000fa0090022000303a880044c7bf00da
:102e9000f043b20044e7b70041742000914078004d
:102ea00000ceb30000c0600044e7b700120020006d
:102eb00081072000a0092000337420008149780098
:102ec00080497800824978001200200061042000c7
:102ed0007005200023742000814978008049780023
:102ee0008249780043c7bf000047b200f04f50004e
:102ef000fcff3a0042c7bf000042b2000004e000fd
:102f0000fcff32000080fa00000006003600f800e6
:102f1000809fbe00829fbe00849fbe00869fbe0031
:102f20000000fa0050b8800061b8800061004000e5
:102f3000e080480050b8880061b8880054b880002c
:102f400065b8800070b880006101b9000400be005f
:102f50000bf70700e00f5000e08f580002003a0026
:102f60001000200080b888008460a9000080fa006a
:102f70004f03be004f02be004f01be004f00be0017
:102f80003600f900004006000000fa0084e0a900c5
:102f90000080fa00004006000000fa000000eb008c
:102fa0000008880070352100100888000001280002
:102fb000200888008460a9009460a8000080fa00be
:102fc000000006000000fa0000fc2f0060198800d5
:102fd00030012000001688000000eb003016880049
:102fe0000000eb0020168800f03e2000401688000c
:102ff0000000eb00701688000000eb0060168800ef
:10300000c16920009140780000ceb30000c060008c
:103010006040b3009ce6b700d16920009140780081
:1030200000ceb30000c060007040b3009de6b70062
:10303000016a20009140780000ceb30000c060001b
:103040009040b300a0e6b700116a200091407800dc
:1030500000ceb30000c060000034a000a1e6b700bd
:103060000000eb00800c8800416a2000914078004d
:1030700000ceb30000c060005040b300a4e6b7002b
:10308000416c20009140780000ceb30000c0600089
:103090003040b300c4e6b7000080fa00000006002c
:1030a0000400fa00101680004400de006100600099
:1030b0000004e00004003200109880000000e800e6
:1030c0001098880006003700109880000000e0008b
:1030d00003003400109880000000e9001098880078
:1030e000109880000000e00016003a002098800050
:1030f000100798001e009000e10f500009003200f8
:103100001e009000e20f5000010032000a0037005c
:103110000000eb00209888000000eb00000f780012
:103120001f0037000000eb002098880010002000ee
:10313000000f78001a0037000000eb00000f780045
:103140001700370010988000e50f500006003a0085
:10315000209880000000e00003003a0010002000ea
:10316000209888000c00370011988000401f200034
:10317000808f500008003a0020988000e10f500036
:1031800005003a000000eb00209888002000200095
:10319000000f7800020037000000eb00000f7800fd
:1031a0001e0078000080fa00000006000000fa000f
:1031b000004e2000001988000000eb0080198800f4
:1031c0000000eb001019880020f021002019880071
:1031d0002063a90021e3a8000080fa000000060097
:1031e0000400fa00000f780011079800007020001a
:1031f000000f880000192000300f88000000eb004d
:10320000200f880000702000800f88000019200027
:10321000b00f88000000eb00a00f88009e0078002f
:10322000401e2000800878001e0178006000b80071
:1032300010019800210198001e0178006000b8007c
:1032400030019800410198001e0178006000b8002c
:1032500050019800610198001e0178006000b800dc
:1032600070019800010998001e0178006000b80004
:1032700010099800210998001e0178006000b8002c
:1032800030099800410998009e009000401f2000de
:10329000800878001e0190006000b80010019800be
:1032a000210198001e0190006000b80030019800d4
:1032b000410198001e0190006000b8005001980084
:1032c000610198001e0190006000b8007001980034
:1032d000010998001e0190006000b80010099800d4
:1032e000210998001e0190006000b8003009980084
:1032f000410998000080fa00000006000400fa006e
:10330000100798000000eb00000f78001e009000ee
:10331000401988002023a8001e0fe80020c3bf002a
:10332000614060000004e000fcff320000188000f3
:103330000080fa00000006000200fa00000f78008a
:103340001e00780010007800100078000000d10006
:10335000010020001e017800300198004101980012
:103360001e00780030019000c00190001e0078001f
:10337000a0089000100890000000510081805900c2
:103380001e01780050019800610198001e0078002d
:1033900050019000e0019000e0fc2f00f1ff2f00b1
:1033a000800f5100818f59000e003d001e007800f3
:1033b00070019000800990001e007800e0009000ed
:1033c0005000900002004000838048000019b000c7
:1033d0000180b0001e017800300998004109980072
:1033e000230037001e00780050019000e00190009b
:1033f0002003200001002000800f5100818f590020
:10340000100034001e0078007001900080099000c8
:103410001e007800e0009000500090000201400083
:103420008381480000e72f00f1ff2f0002004000d9
:10343000838048001e0178003009980041099800f7
:103440000b0037001e00780070019000800990008a
:103450001e007800e0009000500090000200400044
:10346000838048001e0178003009980041099800c7
:103470001e007800c0009000300090001e0178000f
:1034800010099800210998001e007800c0089000db
:10349000300890001e017800700198000109980022
:1034a0000080fa00000006000400fa0010079800ef
:1034b0001e009000100078009000780030ff2f0070
:1034c000008f60001e009000100178001e00900028
:1034d00010009000100078004200dd009e00700097
:1034e0001e00900020009000100078004300dd00d6
:1034f00000807000000978000080fa0000000600db
:103500000800fa0020079800310798002e0090006c
:1035100070089000100178002e009000801090003c
:103520002e00900010109000008070000080ea00d3
:10353000000f61002e009000700990002e00900096
:10354000801090003e0090000088b9009e0070003e
:103550002e0090001010900000807000000978008c
:103560000000eb0010079800030037001e009000d9
:103570000000e800100798001e009000e90f5000be
:10358000faff34002e009000700990002e00900089
:10359000801090003e0090000088b9001e0070006e
:1035a000000978000080fa00000006000e00fa0012
:1035b00020079800310798002e00900070089000b6
:1035c000900078002e009000201090000080ea000b
:1035d00000806000100798002e0090007008900096
:1035e000600798002e00900020109000500798006f
:1035f0000000eb00400798003e0090000000e00053
:1036000002003a0011002000410798005e0190007e
:10361000ce0190000390b900800078001e00900059
:1036200000807000ee009000800878000000eb0041
:10363000000f7800010037001e0fe8009200200004
:103640009e0f1100fcff34000080fa00000006000d
:103650000c00fa00889fbe008a9fbe008c1f780075
:1036600020079800320798004307980051079800f8
:103670002e0090003e019000ce0190000288be0016
:103680002e00900010989000b00090002e00900046
:10369000119898002e009000109890003e01900024
:1036a000ce0190000288be005e0090000000e000a5
:1036b000090032002e00900050999000e09990008f
:1036c0003e009000ce009000020050008380580021
:1036d00030079800410798002e0090000098900055
:1036e000b00090002e00900001989800a0b98000d2
:1036f0000000e000270032002e009000009e9000a5
:103700002e00900040029000d002900084007800cb
:103710003e009000000db8004e00900000a0b900df
:103720000b017800000141003e0090000580b900c7
:1037300000014100820578002e0090000098900062
:10374000200090001004be002e0090006003900046
:10375000f00390008800780006007800000ab800a6
:1037600007c0b900050178000001410009b0b900a7
:1037700000014100820278000a0042008b804a006a
:10378000823e20000300200007f40700008ebe00e8
:103790006c0037002e0190006000b80020019800f6
:1037a000310198002e00900010989000b000900019
:1037b0002e009000119898002e0090001098900014
:1037c0003e019000ce0190000288be002e009000c5
:1037d00090999000030f78000000eb00100798000c
:1037e000220037002e009000809990002e0090005b
:1037f000009890001005be001e0078001004be0066
:103800002e009000a09890001e0090004200dd0065
:103810000080e800008040001003be0088007800af
:1038200006007800000ab80007c0b900050178005a
:103830000001410009b0b900000141008202780096
:1038400041a8de00cf80de000a0040008b804800e7
:103850008089be001e007800a0009000010f780053
:103860001e0090000000e800100798002e00900055
:1038700020989000100078008000e8001e00900062
:10388000808f5000d7ff3c002e00900000999000e0
:10389000020f780010002000100798002200370067
:1038a0002e00900020059000b00590001e007800ca
:1038b0001004be002e009000a09890001e00900002
:1038c0004200dd00a002b000008040001003be00f6
:1038d0008800780006007800000ab80007c0b90028
:1038e000050178000001410009b0b9000001410064
:1038f0008202780041a8de00cf80de000000550083
:1039000081805d002e019000200198003101980017
:103910001e007800a0019000030f78001e009000a8
:103920000000e800100798002e00900020989000fa
:10393000100078008000e8001e009000808f50008a
:10394000d7ff3c002e009000009890001000be00b1
:103950002e01900020019800310198002e00900067
:10396000b0009000200090004f0678004f05be0088
:103970004f04be000080fa00000006000a00fa00b2
:10398000400798006000b8001007980021079800d1
:103990004e00900080989000010f78000000eb002e
:1039a000300798000e0037001e0078001001be009e
:1039b0001e009000ae00900002005000838058006e
:1039c00010079800210798001e007800a0009000c2
:1039d000010f78003e0090000000e80030079800da
:1039e0003e009000e30f5000efff34004000200045
:1039f000300798000e0037001e0078001001be004e
:103a00001e009000ae00900000004100818049003f
:103a100010079800210798001e007800a000900071
:103a2000010f78003e0090000000e8003007980089
:103a30003e009000e90f5000efff34009e00900020
:103a400040012000000ab8001e0090006000b9008c
:103a500005017800000141002e0090007400b900bb
:103a60000001410082027800840078004e0090003e
:103a7000719898004e009000709890000080fa00b5
:103a8000000006000200fa00000f78001e00780017
:103a900000a1900090a190001e007800b00090005e
:103aa0002000900002004000838048001e01780042
:103ab00000a1980011a198001e00780090a090002d
:103ac00000a090000080fa00000006000400fa0048
:103ad000000f7800110798001e0078009e009000eb
:103ae000010878000080fa00000006000600fa00d5
:103af000200798000000eb0010079800ae0090002f
:103b00000000eb00a0a098002e009000909890007c
:103b1000010f78002e00900020a190001e00780078
:103b20001000be00800041002e00900021a09800ef
:103b30001e007800a0009000010f78001e00900089
:103b40000000e800100798002e00900010989000e8
:103b50009e0f5000efff3a002e00900020a0900032
:103b60001e019000110009000200d80080007800ba
:103b70002e00900021a098002e00900020a0900020
:103b8000cf80de000080fa00000006000600fa0088
:103b9000881f7800200798000000eb0010079800ad
:103ba00010002000000f7800140037009e007800fd
:103bb0002e019000600c20000088b90064004000d5
:103bc000000041001001be009e0090002e029000f7
:103bd000600c20000088b900640040000000420032
:103be0001000be00800f5100818f590002003d007f
:103bf0001e007800100798001e0fe800300020001b
:103c00009e0f1000e9ff34000000eb00000f780069
:103c10002b0037009e0278009e0090002e0190003d
:103c2000600c20000088b9006400400000004100e2
:103c30001001be002e029000600c200000a8b90008
:103c4000a00bb000000042000288be001e047800f5
:103c50009e0090002e019000600c20000088b900aa
:103c600064004000000041001000be004a0add0070
:103c7000c602de00850272004a02dd009e00780066
:103c80002e019000600c20000088b9006400400004
:103c9000000041001001be000400be00c2f2070097
:103ca0000001be002e029000600c200000c0b90090
:103cb000600bb000000042000288be001e0fe8004a
:103cc000300020009e0f1000d2ff34004f04780017
:103cd0000080fa00000006000600fa0010079800b5
:103ce000210798000000eb00000f78001e009000f4
:103cf000ae009000219898000000eb00000f7800c3
:103d00002d0037009e0178001e0090000106200063
:103d1000808040001e0078004300dd0000804000ed
:103d2000680140009e0090004318dd004006b0008e
:103d3000823078009e01e8001e00900001062000fd
:103d4000808040001e0078004300dd0000814000bc
:103d50009e0090004318dd006006b00082307800bd
:103d60009e0178001e009000f00040001e007800c8
:103d70004300dd0000804000680140009e0090008c
:103d80004318dd0074004000823078009e01e80096
:103d90001e009000f00040001e0078004300dd008f
:103da000008140009e0090004318dd007600400036
:103db000823078001e0fe800800020009e0f100067
:103dc000d0ff34001e0178001e0090000306200082
:103dd000808141009e0090004310dd004006b0004d
:103de000833078001e009000010620008080400093
:103df0001e0078004300dd00808040001e0090001f
:103e0000313098001e0178001e009000f001400043
:103e10009e0090004310dd00740040008330780065
:103e20001e009000f00040001e0078004300dd00fe
:103e3000808040001e009000310898001e00900015
:103e400001062000808040001e009000119898001c
:103e50001e009000f00040001e00900001989800a5
:103e60000080fa00000006000600fa0020a02000f2
:103e7000100798000000eb00000f78003a003700b0
:103e80001e009000b01090001e00900040109000a6
:103e9000808f50000d0032001e0090003010900006
:103ea000200798002e0090000000e00003003d0075
:103eb000ae0090008100ea0021079800f0b9800070
:103ec000ae009000808f5000040034008000eb00b2
:103ed0001e009000b5fd07002000370011002000f3
:103ee0001e009000b1fd07001e009000b010900071
:103ef0001e00900040109000808f50000900340098
:103f0000110020001e0090007dfd07001e009000a3
:103f1000401090008000e8001e00900041109800c2
:103f20000e0037001e009000b01090001e009000a0
:103f300040109000808f500008003d008000eb0092
:103f40001e0090006efd07001e00900040109000c3
:103f50008000e9001e00900041109800c0a22000df
:103f6000100798001e0fe800100020009e0f1000a0
:103f7000c3ff34000080fa00000006000400fa00cd
:103f8000000f78001e007800100078008000eb0021
:103f9000110798000000e00002003a001000200025
:103fa000100798001e0078009e009000010878001d
:103fb0001e007800100078000000e00008003200c9
:103fc0008080eb00804e29005507070050b8800024
:103fd00061b8800030988800419888000700370059
:103fe0008080eb00f04f29004d07070030988000db
:103ff0004198800050b8880061b888000000eb004c
:10400000b0b888000080fa00000006000400fa0042
:1040100010079800980707000000e0000800320031
:1040200060070700000f78009e007800a030210094
:1040300064070700a13021001e0090000200070065
:104040000080fa00000006000400fa00000f78006b
:1040500011079800010220001e8040001e01780018
:10406000f00041001e017800801f7800811f780059
:10407000821f780070512900801f78001e00900078
:1040800038f30700e88757001e0078009400070007
:104090000080fa00000006000800fa00000f780017
:1040a0001107980022079800330798009e007800b7
:1040b00010002000c08098001e007800be00900014
:1040c000010878001e0078009e0090001100980002
:1040d0001e007800ae009000210098000080fa00d9
:1040e000000006000400fa001007980031002000cc
:1040f000005229000a0707000000eb00000f7800bb
:10410000190037001e009000900090001e007800fb
:10411000000040000080400010007800daf2070044
:10412000000178001e009000900090001e007800b2
:1041300000004000008040001000780082007800fd
:10414000f70607001e009000100078000000e9004c
:104150009e0f50000300340011002000405229003f
:10416000ef0607001e0fe8001e0090001000780008
:104170009e0f5000e3ff3c005100200060522900d8
:10418000e70607001e009000040007000000eb0097
:10419000b0b988000080fa00000006000400fa00b0
:1041a0001007980031002000c0522900dc060700eb
:1041b0000000eb00000f7800190037001e0090008f
:1041c000a00090001e007800000040000080400029
:1041d00010007800acf20700000178001e0090008b
:1041e000a00090001e007800000040000080400009
:1041f0001000780082007800c90607001e009000b9
:10420000100078000000e9009e0f50000300340009
:104210001100200040522900c10607001e0fe800cf
:104220001e009000100078009e0f5000e3ff3c003d
:104230005100200000532900b90607000080fa0051
:10424000000006000400fa0010079800b0b98000d2
:104250000000e000030032001e009000a1ff0700f4
:104260001d0037003100200060532900ac06070014
:104270000000eb00000f7800100037001e009000d7
:10428000660140001e0078006a00b900000041008d
:104290008080eb00a20607001e009000100078004e
:1042a0000000e9009e0f50000300340011002000c0
:1042b000405229009a0607001e0fe8001e009000d9
:1042c000100078009e0f5000ecff3c0051002000d1
:1042d000a0532900920607000080fa0000000600a3
:1042e0000400fa00881f7800100798001e00900054
:1042f000520020000154290069f207000000e0008c
:1043000003003a00407121001cff07003201370012
:104310001e009000220020006154290060f2070076
:104320000000e00006003a001000200090b888006d
:10433000e1ff2f009054290079060700260137007d
:104340001e00900052002000c155290054f20700c1
:104350000000e00006003a000000eb0090b8880082
:104360008080eb00205629006d0607001a013700f7
:104370001e00900052002000f157290048f207006b
:104380000000e00003003a0000b12000fffd07003c
:10439000110137001e009000320020005158290002
:1043a0003ff207000000e00095003a001e00900078
:1043b00070004000a20020009158290038f2070048
:1043c0000000e00005003a001e0090000002b0006e
:1043d00009f2070070b88800ff0037001e00900047
:1043e0007000400082002000415929002cf2070093
:1043f0000000e0000f003a001e0090000002b00034
:10440000fdf1070000b988008080eb00d059290039
:10441000430607001e0090000002b0008080eb0001
:104420003f0607008080eb00705b29003c06070018
:10443000e90037001e00900070004000920020004c
:10444000d15b290016f207000000e0000f003a00df
:104450001e0090000002b000e7f10700f0b88800ed
:104460008080eb00705c29002d0607001e00900084
:104470000002b0008080eb00290607008080eb007e
:10448000705b290026060700d30037001e0090004d
:104490007000400092002000f15d290000f207004a
:1044a0000000e0000f003a001e0090000002b00083
:1044b000d1f1070020b988008080eb00805e2900e0
:1044c000170607001e0090000002b0008080eb007d
:1044d000130607008080eb00705b290010060700c0
:1044e000bd0037001e009000700040009040780032
:1044f000f05f29001040780080cf500005003a009e
:104500001e0090000002b000bbf10700405188007f
:10451000b10037001e00900070004000904078000d
:10452000106029001040780080cf500005003a004c
:104530001e0090000002b000aff10700905288000a
:10454000a50037001e0090007000400090407800e9
:10455000306029001040780080cf500025003a00dc
:104560000000eb00000f78001e0037001e047800ea
:104570001e0090000002b0009ff107006101b90029
:10458000600c200000c0b900e800400000b120002d
:10459000008040000288be001e0278009e00780065
:1045a000600c20000088b900e800400000b1200045
:1045b000008040001001be00803e2000010020006d
:1045c0000201500083815800600c200000a0b90057
:1045d000ec00400000b12000008040000288be00d6
:1045e0001e0fe800400020009e0f1000dfff340087
:1045f000790037001e0090007a000700760037002f
:104600001e0090004200200091602900a4f10700e4
:104610000000e0001e003a001e0090007000400004
:1046200072002000e16029009df107000000e00019
:1046300006003a000000eb0090b988008080eb0093
:1046400060612900b6050700630037001e00900076
:104650007000400042002000f164290090f1070042
:104660000000e00007003a008000eb0020a02000de
:10467000cefb07008000eb00c0a22000cbfb0700b0
:10468000550037001e00900056000700520037000a
:104690001e009000520020006165290080f1070093
:1046a0000000e0000a003a001e0090007000400088
:1046b00072002000e160290079f107000000e000ad
:1046c00045003a001000200090b9880042003700f1
:1046d0001e00900022002000c165290070f1070033
:1046e0000000e0000a003a001100200020a0200095
:1046f000aefb0700485180001e0090007000400093
:104700003df10700000044004051880032003700ae
:104710001e00900022002000f165290060f10700d2
:104720000000e0000a003a001100200020a0200054
:104730009efb0700485180001e0090007000400062
:104740002df107000000540040518800220037007e
:104750001e009000220020002166290050f1070071
:104760000000e0000a003a0011002000c0a2200072
:104770008efb0700985280001e00900070004000e1
:104780001df107000000440090528800120037001d
:104790001e009000220020005166290040f1070011
:1047a0000000e0000a003a0011002000c0a2200032
:1047b0007efb0700985280001e00900070004000b1
:1047c0000df10700000054009052880002003700ed
:1047d0001e009000030007004f0478000080fa00dc
:1047e000000006000200fa00000f78008080eb0055
:1047f000806629004a0507001e0078008080eb00d3
:104800004705070011002000d06729004405070074
:104810009e007800708040008080eb00400507001b
:1048200011002000d06729003d050700010220008b
:104830001e8040008080eb003905070051002000f9
:10484000705b2900360507000080fa0000000600b2
:104850004e00fa00889fbe008a9fbe0088f90700bc
:10486000d8f90700ccf9070050fa0700c1a22000d0
:1048700020a020005afa07000000eb004007980033
:104880000000eb00400798002d003700ce0090009c
:10489000600c20000088b900e400400000b1200056
:1048a000008140006000b8000089be00ce0090008a
:1048b000600c20000088b9008000780000b1200062
:1048c000008140006000b8000089be00ce0090006a
:1048d000600c20000088b900e800400000b1200012
:1048e0000081400020032000010020000089be005c
:1048f000ce009000600c20000088b900ec00400061
:1049000000b1200000814000603b20000100200039
:104910000089be00ce009000600c20000088b90025
:104920008000780000b12000008040000174210068
:10493000e9fc07004e0090000000e80040079800e6
:104940004e009000e40f5000d0ff34000000210022
:1049500061572400e0508800f1508800c02c2000ee
:104960000051880000002800105188000000240039
:104970002051880000002200305188008000eb00a8
:1049800020a0200009fb07000000eb004051880038
:104990000000eb0050518800000021006157240006
:1049a0003052880041528800c02c200050528800ac
:1049b00000802000605288000000210070528800b2
:1049c00000402000805288008000eb00c0a2200040
:1049d000f6fa07000000eb00905288000000eb00a0
:1049e000a052880000202c001100200008040700bd
:1049f0006a004700017129000c0009003118780095
:104a0000a001b100400220000e004000036929000f
:104a10000c00090033187800a001b1004202200008
:104a20000e014100ea004700d300200060a82000ea
:104a300099fd07006000b80050b8880061b8880090
:104a40000000eb00400798004300370052b8800098
:104a500063b8800030b9800041b98000800f5100f8
:104a6000818f5900f9ff39000000eb0030079800f2
:104a70002b003700be0490004e059000be0590004c
:104a80004e0490003e0090001cfa07006101b9003e
:104a90004342dd00600c200000d8b9000000420055
:104aa000010620008080400000b12000008040000e
:104ab0000288be004341dd00600c200000d8b90030
:104ac00000004100010620008080400000b120006d
:104ad000008040001001be004352dd00600c200049
:104ae00000c8b90000004200f000400000b1200002
:104af000008040000288be000000eb00000f78003c
:104b0000010037001e0fe800300620009e0f100045
:104b1000fcff34003e0090000000e80030079800e1
:104b20003e009000e40f5000d2ff340010b9800026
:104b30006101b90050b8800061b8800002004000f7
:104b40008380480030b9880041b988004e00900049
:104b50000000e800400798004e009000e90f500068
:104b6000baff340050b8800061b88000027d200098
:104b700003002000000041008180490010079800d8
:104b8000210798002d00370032b9800043b980001a
:104b900050b8800061b88000800f5100818f5900ab
:104ba00003003600005080000000e00023003400c5
:104bb00000508000d1f907006101b9000050800069
:104bc00080007800600c20000088b9008000780028
:104bd00000b12000008040008000eb009cfa07003c
:104be00000508000e50f50000b003a000000eb0081
:104bf0000050880010b980006101b90050b88000f1
:104c000061b88000020040008380480030b988000d
:104c100041b9880009003700005080000000e8001a
:104c20000050880050b8800061b8800061004000ea
:104c3000e080480030b9880041b9880052b880004f
:104c400063b880001e009000ae009000800f5100fd
:104c5000818f5900ccff390000b12000cbfb070049
:104c600000003700530407000000e000010032009c
:104c7000ed03070032b9800043b9800050b88000ce
:104c800061b88000800f5100818f59000300360009
:104c9000005080000000e00023003400005080003d
:104ca00096f907006101b90000508000800078008b
:104cb000600c20000088b9008000780000b120005e
:104cc000008040001100200061fa070000508000c1
:104cd000e50f50000b003a000000eb000050880088
:104ce00010b980006101b90050b8800061b880003f
:104cf000020040008380480030b9880041b9880034
:104d000009003700005080000000e80000508800d3
:104d100050b8800061b8800061004000e080480029
:104d200030b9880041b9880080b880000000e000f8
:104d3000ccff3200daf80700602798006e20900060
:104d4000e10f50000c003200ee209000e28f500086
:104d5000010032000a0037000000eb0090b8880024
:104d6000a0b880000000e00005003a00407121007a
:104d700082fc070002003700407121007ffc070021
:104d800092bc8000a3bc800050b8800061b8800055
:104d9000800f5100818f590009003e0032fc07004e
:104da00020b980006101b90050b8800061b880006e
:104db000020040008380480090bc8800a1bc8800ad
:104dc000a0b880000000e00003003a00c07121009c
:104dd000d0b988000200370080712100d0b9880066
:104de00052b9800063b9800050b8800061b880007b
:104df000800f5100818f590011003e00f0b88000f3
:104e00006101b90050b8800061b880000200400024
:104e10008380480050b9880061b98800c0b880001c
:104e20008001eb00532798000000e00002003a00e8
:104e30001000200050279800de209000c1b88800a4
:104e40008073210098f9070090b980000000e0000d
:104e5000d700320072b9800083b9800050b880005a
:104e600061b88000800f5100818f5900d0003e0052
:104e700050b8800061b88000823e2000030020000e
:104e80003fef07000004be0050b8800061b880000a
:104e9000823e20000300200029ef0700c2a8200066
:104ea000889fbe00809fbe00a0722900801f7800ee
:104eb00091002000020078008aef0700ea8757007f
:104ec0005051800040279800ce2190000300e00060
:104ed00003003d004e2090000000ea0040279800ab
:104ee00002712200ce219000110009008201d80039
:104ef0008000fd0030279800505180000000e00045
:104f000003003d00d0022000202798000200370057
:104f1000010320002127980060a9200000017800eb
:104f2000be219000831f78002e209000801f780003
:104f300040732900801f7800910020000200780053
:104f400068ef0700e6875700a052800010279800fe
:104f50009e2090000100e00003003d009e21900093
:104f60008301ea0013279800027122009e2190001d
:104f7000110009008201d8008000fd000027980080
:104f8000a05280000000e00003003d00d00220009d
:104f9000701f98000200370001032000711f980065
:104fa00000aa2000000178008e219000831f780065
:104fb0007e189000801f780040732900801f7800c1
:104fc000910020000200780046ef0700e6875700b6
:104fd0008258800093588000a0aa20000002780028
:104fe000829fbe00c0732900801f780091002000be
:104ff000040078003bef0700e6875700b25e8000b0
:10500000c35e800040ab200000027800829fbe009b
:10501000c0732900801f78009100200004007800f0
:1050200030ef0700e6875700e2648000f3648000f9
:10503000e0ab200000027800829fbe00c073290010
:10504000801f7800910020000400780025ef070001
:10505000e6875700126b8000236b800080ac200035
:1050600000027800829fbe00c0732900801f780074
:1050700091002000040078001aef0700e68757002f
:10508000427180005371800020ad20000002780042
:10509000829fbe00c0732900801f7800910020000d
:1050a000040078000fef0700e6875700a258800041
:1050b000b3588000c0ad200000027800829fbe007f
:1050c000c0732900801f7800910020000400780040
:1050d00004ef0700e6875700d25e8000e35e8000a1
:1050e00060ae200000027800829fbe00c0732900dd
:1050f000801f78009100200004007800f9ee07007e
:10510000e6875700026580001365800000af20002d
:1051100000027800829fbe00c0732900801f7800c3
:105120009100200004007800eeee0700e6875700ab
:10513000326b8000436b8000a0af2000000278003b
:10514000829fbe00c0732900801f7800910020005c
:1051500004007800e3ee0700e687570062718000e4
:105160007371800040b0200000027800829fbe0072
:10517000c0732900801f780091002000040078008f
:10518000d8ee0700e687570060a820002dfc070036
:1051900000b980006101b90050b8800061b880009a
:1051a000020040008380480070b9880081b98800ff
:1051b00060a5200095fb07000000eb0080b8880088
:1051c000a8fe37001000fa00000f780011079800c1
:1051d0002207980033079800440798005507980065
:1051e00066079800770798001e0078009e009000e0
:1051f000210098001e0178006000b8003009980076
:10520000410998001e0178006000b800500998001c
:10521000610998001e0178006000b8001011980024
:10522000211198001e0178006000b80070099800f4
:10523000011198001e0078001eb99700aeb99700c2
:1052400032009800430098001e0078007eb197005d
:105250008eb9970052009800630098001e017800f4
:105260006000b8000089be001e0078003eb99700bb
:10527000ceb9970052189800631898006e039000fa
:10528000fe0390004e029000de0290002e0190007e
:10529000be0190001e007800020007000080fa00a6
:1052a000000006001400fa00889fbe00000f78007e
:1052b00012079800230798003407980045079800c4
:1052c00056079800670798001e0078001e0190009e
:1052d000ae01900022209800332098001e00780034
:1052e0003e019000ce01900042209800532098008b
:1052f0001e0078005e019000ee0190006220980090
:10530000732098008041eb00335798006011b8007b
:105310005e009000ee00900032ed07000000e0001b
:10532000010032000200370010c0b300305798006f
:105330003e5090000004a2000004e00025003a0066
:105340000041eb00225798006011b8003e00900029
:10535000ce00900023ed07000000e00001003200c5
:105360000200370013c0b300235798002e5090005e
:105370000004a2000004e00016003a001e007800bd
:105380001e019000ae01900032109800431098006a
:105390001e0178006000b80050119800611198005b
:1053a0001e0178006000b800701198000119980083
:1053b0001e0178006000b8001019980021199800ab
:1053c0001e0178006000b80030199800411998005b
:1053d000c70037008041eb00135798006011b800f8
:1053e0003e009000ce00900000ed07000000e000bd
:1053f00001003c000200370010c0b30010579800b5
:105400001e5090000004a2000004e0003e003a009c
:105410000041eb00025798006011b8005e00900058
:10542000ee009000efec07000000e0000100320009
:105430000200370013c0b300035798000e509000cd
:105440000004a2000004e0002f003a003e0090009b
:10545000ce0090000001be0034ec07000002be0048
:105460001e00780050199000e01990000400be0062
:105470008bec07001e019000ae0190002bec0700a2
:105480001e017800301198004111980002002000a0
:1054900003002c003e009000ce00900074ed070049
:1054a0000002be001e00780050199000e019900024
:1054b0000400be007aec07001e019000ae019000cf
:1054c0001aec07001e017800501198006111980035
:1054d0001e0178006000b800701198000119980052
:1054e0001e0178000000200001f82b001019980020
:1054f000211998001e0178006000b800301998004a
:10550000411998007a0037000040eb00704f980076
:105510006011b8003e009000ce009000b1ec070092
:105520000000e000010032000200370012c0b300aa
:10553000724f98007e4890000004a2000004e00032
:1055400010003a008041eb00634f98006011b800f2
:105550005e009000ee009000a4ec07000000e00068
:1055600001003c000200370010c0b300604f9800fb
:105570006e4890000004a2000004e00001003a0020
:105580005b0037003e009000ce0090000001be009e
:10559000e6eb07000002be001e00780050199000e4
:1055a000e01990000400be003dec07001e019000d1
:1055b000ae019000ddeb07000004be001e00780085
:1055c000e0189000501890005e019000ee019000ed
:1055d00027ed0700020020000300240030ec070044
:1055e0000001be000800be00d0eb07001e017800dd
:1055f00030119800411198001e007800e0189000ca
:10560000501890005e019000ee01900018ed070028
:105610000004be000200200003082c003e009000a1
:10562000ce00900012ed07000002be001e007800c0
:1056300050199000e01990000400be0018ec07001b
:105640000001be000800be00b8eb07001e01780094
:1056500050119800611198003e009000ce0090001b
:105660000001be00b1eb07000002be001e00780082
:1056700050199000e01990000400be0008ec0700eb
:105680000004be001e007800e01890005018900042
:105690005e019000ee019000f5ec07000200200092
:1056a00003002400feeb07000001be000800be005e
:1056b0009eeb07001e019000ae0190009aeb0700e0
:1056c0001e01780070119800011998001e017800e1
:1056d0006000b80010199800211998001e01780088
:1056e0000000200001f823003019980041199800ab
:1056f0004f04be000080fa00000006000a00fa0015
:10570000889fbe008a9fbe00400798004e00900010
:105710001001be004e009000200090001000be005e
:10572000000051008180590020079800310798003f
:105730004e00900030149000c01490002e00900095
:10574000be0090004cec07000001be000800be0047
:10575000c7ec07000005be004e00900050149000fa
:10576000e01490004e009000c008900030089000b7
:1057700041ec07000001be000800be00bcec0700c1
:105780000001be000a00be0068eb07000005be0075
:105790004e00900070149000801c90004e0090000d
:1057a000e00890005008900033ec07000001be00b4
:1057b0000800be00aeec07000001be000a00be00fb
:1057c0005aeb07000005be004e009000101c900030
:1057d000a01c90004e009000801090007008900077
:1057e00025ec07000001be000800be00a0ec070089
:1057f0000001be000a00be004ceb07000005be0021
:105800004e009000301c9000c01c90004e00900094
:10581000a01090001010900017ec07000001be00cf
:105820000800be0092ec07000001be000a00be00a6
:105830003eeb0700efeb0700008fbe004e0090002c
:10584000c0089000300890004e0190005009980068
:10585000610998004e0090002e019000be0190005a
:1058600032089800430898004e0090008010900085
:10587000700890004e0190001011980021119800be
:105880004e009000c000900030009000be0f50000d
:10589000ae8f580005003d004e0090003001900092
:1058a000c0019000028fbe000a0037004e00900039
:1058b000e000900050009000be0f5000ae8f5800e6
:1058c000040034004e00900050019000e001900070
:1058d000028fbe004e0090001e01be0072089800ac
:1058e000031098001e0078004f05be004f04be0054
:1058f0000080fa00000006000600fa00000f7800a1
:1059000012079800230798001e0078001001be00bf
:105910001e009000ae009000800f5100818f590052
:10592000250032001e00780010099000a0099000a8
:105930001e009000ae009000800f5100818f590032
:10594000060034001e007800a008900010089000a7
:105950001e0178000089be000d0037001e0078008f
:1059600070019000800990001e009000ae00900031
:10597000800f5100818f590005003d001e00780006
:1059800080089000700090001e0178000089be0021
:105990001e009000ae009000b7eb0700a2702d0033
:1059a00033ca230032ec070092eb07001e01780097
:1059b00000219800112198000080fa0000000600e4
:1059c0000200fa00000f78001e0178006000b800a5
:1059d00030099800410998001e0178006000b80065
:1059e00050099800610998001e0178006000b80015
:1059f00070099800011198001e0178006000b8003d
:105a000010119800211198000080fa000000060093
:105a10000400fa00008fbe000000eb0070878800d1
:105a20000000eb00808788000000eb00d097880022
:105a30000000eb00909788000000eb00a097880022
:105a40000000eb00c09788000000eb00e0978800a2
:105a50000000eb00f09788000000eb000098880041
:105a60000000eb00001188001e00be004409dd00ac
