:020000040000fa
:080000000002040000000000f2
:020000040000fa
:100400000f9e21000e7f22000e01880000000000d8
:100410000c00070040ae2200010020001100070080
:10042000000020000000e000020032000000020096
:100430000000000098250200000000000040da00e3
:100440000000fe004440a900602d20000000e000f4
:100450000300320000002000a00188004440a800f2
:100460000000060091018800800078000000eb0089
:1004700015003700e280400032a0b4009101ba00bc
:10048000e280400032a0b4009102ba00e280400055
:1004900032a0b4000002eb00472bde00f507b200eb
:1004a000602ce10004003a000059eb008301e900f0
:1004b000fdff3e00040037006128e100010032002a
:1004c0000082eb00040007001101ba000200e00006
:1004d000e8ff3a00000006003159ba008301e90044
:1004e0000c0032002159ba008301e90008003200f3
:1004f0000400e00003003a00e280400032a0b400b3
:10050000f5ff370011d9ba008301e900faff3a007c
:100510008100e800e180400032a0b4000000060045
:100520000040da000000fe0003f0a200889fbe0039
:100530008a9fbe008c1f7800350107003c01330004
:100540006450e1004f0032006420e10052003200ac
:1005500003826c0007003b000905d0000306d000b1
:10056000820f54000c065d000200390002003200c8
:1005700089017800030678008582550004003d005b
:100580000003fd008103fd008502ea008b85420027
:10059000840f720002003b0060001000e080180031
:1005a0006011b8000005eb007a28e1000a0039006c
:1005b00006007800c75ddd00f707b2008780750090
:1005c0002d003700828171000a017800610560000a
:1005d0008180d1000080d3008502e900f9ff3b0053
:1005e000060440008784480002003b0060041400b9
:1005f000e0841c000988a300070032008a81710092
:1006000082817100610164008904d1000884d300f3
:100610008b05e800170037000978a30013003a00a3
:100620000b00e000130034008b05e90008044400cf
:1006300089844c000a4474000978a3000d003a0034
:100640000b00e000070034008b05e90008044400bb
:1006500089844c0001003a000b0020000978a300b7
:10066000f7ff32000001eb000200370082817100c9
:100670000a017800ab0007000cf0a70001f0a00011
:10068000f40037006420e10002003a00838f6c0020
:10069000f40033000801be000200be00ed00370088
:1006a000889fbe008a9fbe008c1f7800d80007007c
:1006b000df00330003866c006450e1002e0032003e
:1006c0006420e100330032006150e1002f0032006d
:1006d0006120e1003100320085855500eb07b00054
:1006e0000900200008042000050037000804440029
:1006f00089844c000a0031000603430087834b00c5
:100700000001530081815b00f8ff33000203be004b
:100710000800a0000804440089844c00f6ff39005a
:10072000c639dd0083017300010032001300200090
:100730008904d1000884d3000998a3000500320081
:100740000800a7000300a0008904d1000884d3009a
:100750008b05e8008904d1000884d3000001eb0078
:100760000281d2006f00070001f0a1000cf0a70089
:1007700001f0a000b70037006420e100b9003200aa
:100780000801be000200be00f7ff37006120e10053
:10079000b40032006000b800f3ff37000000200012
:1007a00001f82700f0ff3700839f68000100e00098
:1007b00002003d0060001000e08018000300e0002f
:1007c00002003d0060011100e0811900dc0007001b
:1007d0004f00e00002003b0060001000e0801800c5
:1007e0000000060014002000e8003700f4ff2f008e
:1007f000e60037000001be00700007000470a7008b
:1008000003f0a1006509b100160032000d003500ab
:100810006828e10006003500f0ff2f00f1ff2700f7
:100820000300e00013003b00010028000000050069
:1008300000004000818048008502e900fcff3a008a
:1008400008003700f88f420002003c008000eb00f7
:10085000000005008100d1000080d3008502e8007f
:10086000fcff3a000300e00002003b0060001000c3
:10087000e080180000000600889fbe008a9fbe002e
:10088000010578000100e0000400350008003c008c
:100890000000e0002000320005003700600010007a
:1008a000e080180002003b0001f02c001a00370025
:1008b0000004be006011b8006b0920000982cf005f
:1008c000020039000882cf000441b00069425200a2
:1008d0000e00320008003b0082817100610164005b
:1008e0008904d1000884d3008b05e8000442e800a5
:1008f000f9ff3a00050037000804440089844c00e1
:100900008b05e9000442e900fbff3a0005000700ff
:100910000af0a70001f0a0004f05be004f04be0082
:100920000000060081002000618055000b003d00a2
:100930000b00200061fe2f000100e1001d003400cb
:1009400082817100610164008904d1000884d300b0
:100950000000e800faff3a00710020006100640026
:1009600003007000020060000900320061044400ce
:10097000e0844c000988a500050032008b05e800e2
:100980006808e10002003a008904d1000884d3001d
:10099000f20f20000258e10005003d00c75ddd00b8
:1009a000f907b20089807500080078000000060091
:1009b0000bf827008b00780000000500c70ade0056
:1009c000f107b200f50fb20008003200e1cf42009b
:1009d000020032000170a00024000500810f7000a9
:1009e000010032000408050044000500810f70007a
:1009f00002003a00140005008502e90000004000f2
:100a000081c04800fcff3b000170a00024000500ed
:100a10000004be00e9ff07000003be000405be009d
:100a20000200be00e5ff0700844f750000000600cd
:100a30000200be006450e100050036006420e100c1
:100a4000020036000968a30001003a000800be0059
:100a50000160a0004f0678004f05be004f04be00a5
:100a600000000600f0ff2f00f1ff2700f9ff37001c
:100a7000889fbe008a9fbe008c1f7800e4ff07009d
:100a8000ebff330003866c006450e1002400320069
:100a90006420e100270032006150e10022003200b2
:100aa0006120e100210032008b854200eb07b1009c
:100ab0000134b800003ab8000804420089844a00b2
:100ac000013ab8000030b8008880400009014a00af
:100ad000040033000000400081804800020149000a
:100ae0008b05e900c909dd008301700001003200b7
:100af00013002000c814de004814dd004709de00a2
:100b00001200b200c808de000884700085ff0700ec
:100b100001f0a1000cf0a70001f0a000cdff37000c
:100b20006120e100cfff32000801be000200be00dc
:100b3000f7ff37006150e100fcff3a00c9ff3700c2
:100b40006022b800060220000000d0008180d200a0
:100b50000482d2008582d2000000a000020252006e
:100b600083825a00030031000202420083824a005d
:100b70000000a1000603e900f3ff3a0000000600b0
:100b8000efff07000400be0000000600889fbe00c3
:100b90008a9fbe00841f78009dff07004f007800e9
:100ba00011003300f0ff2f00838f6c0006003b0024
:100bb000040565000a00a7000800370009f0a60038
:100bc0001000200008003700820f5400838f5c0063
:100bd000030039001000200001003e00000020004a
:100be00009f0a7000000ea004f05be004f04be0058
:100bf0000000e000000006000001780000c2b30021
:100c0000010037000201e8009240780080cf5000d8
:100c1000fcff3200e9cf5000faff3200d0c2b3002f
:100c200080cf500003003a000201e80014c0b30076
:100c3000050037000042eb00b0c2b30080cf500087
:100c400001003a000201e8008000eb0005fd2f00e2
:100c5000040037006a08b9000080410085004000a8
:100c60000201e8009201fb0005804100e90f5000fd
:100c7000f8ff36000404e000010032008100ea00c1
:100c80000100780000000600800078003004e000d9
:100c9000feff3a00010050000000e90000000600dd
:100ca000810178000002eb000b003700e44078007f
:100cb0000104e000030032000402e80093cf50007a
:100cc000040032008180fb001380fb000080500094
:100cd000000006008301e800820f5200f3ff3a0093
:100ce000000005000000fa004fb99700e8815700a6
:100cf000020007000080fa00000006000c00fa0065
:100d0000881f7800000278008202780003017800d2
:100d10008001eb00e18f50000e0036000100e90079
:100d2000e0bf9f000004eb00a8bf9f0094bf9f009e
:100d3000b4bf9f00200c2000c0bf9f00850078003a
:100d40006e80570024020700800178001fb89700ca
:100d500008487800030078004f0478000080fa000b
:100d6000000006000c00fa00a0bf9f00c0bf9f005b
:100d7000c5ff0700b0bf9f00f0bf9f00100c200010
:100d8000d0bf9f0074815700efb097006c80570070
:100d90002e0007000080fa0000000600889fbe00b9
:100da000000478008144780000fd2f00000044001a
:100db000e90f500002003e00000178000d003700ee
:100dc00008007800540107000000e0000300320032
:100dd0000800780056010700000478000800780039
:100de0003b0107000000e0000700320090fa2f00ee
:100df000000144000980fb00800f510002003d000b
:100e00000280fb0001003700f00f20004f04be00fd
:100e100000000600881f7800e0ae80004b0107004c
:100e200000047800340107000000e000faff3a00f7
:100e3000e10f440003003200e1ae800008007800ba
:100e4000760107004f04780000000600ec87470099
:100e5000889fbe008a9fbe008c9fbe008e1f7800b8
:100e600081bf9f0002077800e0ae88008046eb005b
:100e7000040137008884fb00090078001e01070088
:100e8000800078000000e00002003200e1ff07006f
:100e9000fc00370050c2b300804f5400f0003a000d
:100ea0000fbd970020c0b300c0ef9f00d1ef9f009f
:100eb00081ef9f000300370040c0b300c0ef9f00e8
:100ec0000fbd97000fb99700b240780082bf9f0016
:100ed0008184fb0090c6b30080cf50003500320003
:100ee00017003e006640500080cf50006200320084
:100ef0000c003e007740500080cf500028003200a8
:100f000006003e000104e0009b003200a0c2b300d6
:100f100080cf50006e003a001d00370080c5b3003e
:100f20001600370040c6b30080cf500021003200c9
:100f30006440400080cf500065003a001200370046
:100f400030c7b30080cf50001e00320007003e00c3
:100f50006740500080cf50001100320063404000d5
:100f600080cf50005a003a001400370050c7b30039
:100f700080cf50000f0032006340400080cf50000f
:100f800053003a006500370020c0b300cbff3700a4
:100f9000dfe897008140e800d1ef9f00c8ff3700ed
:100fa0004fe9970080c0b300e24f5100c3ff3a0001
:100fb000c1ff3700acc0b300590037008cc0b3008c
:100fc0005700370093ff0700dfe897000104e000b7
:100fd00002003a004e017800d2b79f00e0ae8000d8
:100fe000da00070000047800e10f4000a2003200a0
:100ff0008fec9700120037000a85e8008abf9f0037
:10100000160037008fb897001100fb00800f5400c6
:10101000f9ff32005fe997000204e00003003a00a4
:101020005fb0970008587800d0b79f008944e90066
:101030000a003200e0ae8000c4000700000478001f
:101040000800e800e10f50000400360008007800b6
:10105000a90007000000e000eaff3200dfe8970087
:101060000104e00087003a008d46e8005fb1970078
:1010700001497800830037005fe897000004e00032
:1010800003003a008d46e800ce007800d1b79f00fb
:10109000e0ae8000ad000700e10f400076003200b6
:1010a0005fe997000204e00003003a00dfb0970018
:1010b00080587800d1b79f000fe997000241e900fe
:1010c00082ef9f004240a9006e003400f0ff37001d
:1010d0000180fb0008fd2f0008004000e90f5000d0
:1010e0005f003e000a007800c3fe070080ef9f000b
:1010f00088007800030037000fb897000000e80070
:1011000080bf9f000fb997001200fb000100400054
:10111000e90f5000f8ff360069ff37000cc1b3003b
:101120003cff0700e0ae8000880007000005780063
:101130000040eb00e0ef9f00d0022000800f550040
:1011400005003a00e0ae800080000700000578004e
:1011500011c0b300e1ef9f008c4078000a007800d6
:101160000eff0700e14f40000a003a00e1ae8000a8
:101170000a007800a90007000d04e0004b003a00c7
:10118000e0ae8000300090000048a3004300320031
:10119000480037008fed97006044b8000c81fb00d9
:1011a000030020000800be00e70407000004be00a2
:1011b0008c4078000a007800f8fe07000080fb00f1
:1011c0000100200008044000898448008b45e900a4
:1011d00007003200e0ae80005c00070000057800e8
:1011e0008c407800edfe0700e14f4000ebff3a0035
:1011f0008c4078000a007800e8fe0700e14f4000cc
:1012000003003a00e1ae80000a0078008300070086
:101210006fe997000204e00002003200600414004d
:10122000e0841c005fe897000004e00015003a002d
:101230008d46e800cfe89700e4cf500003003a0065
:101240004e0078000888be000e0037000e81e900cd
:1012500002077800120078000808780009003700bb
:10126000e0ae800039000700808f54000500320096
:10127000e10f40000b003a000d04e0000d003200c9
:101280000a0037008fb897003144780081bf9f0073
:101290000804e000f7fe3a00040037000000eb000d
:1012a00005003700e1ae80005c0007000d80fb0008
:1012b000010037000080eb004f0778004f06be00aa
:1012c0004f05be004f04be00cf00b1000000060075
:1012d0001004b100070035009001b1000400340093
:1012e0007000b100030035009001b10001003c0026
:1012f00010000500000005006900e1000400350051
:101300006d00e100030034000002b1000100320072
:1013100000000500100005001004b10003003500b6
:101320009001b10001003c00100005000000050024
:10133000800078001104b100030035009101b10074
:1013400001003c000050a00000000600881f78004b
:1013500000047800b00090000148a30007003a00a4
:101360000108a300050032000198a3000800320024
:10137000100090000000e0000500320038009000ee
:101380000040a000300498008080eb00200037006f
:101390000190a10031049800180090000000e000c6
:1013a000060034000000e9001004980018007800de
:1013b000b080fb00000c7800060037003800900079
:1013c0000068a300edff3a00080078003400070031
:1013d00080007800380090000078a3000c003a00ec
:1013e000fa8f500008003a00280090000000e0004a
:1013f000e2ff3200180090000000e800100498009e
:10140000180ce900ddff3700ed8f5000e2ff3200dd
:10141000010078004f047800000006000003780007
:1014200001027800e10f40001a0032003100900004
:101430000008a300170032000098a30015003a002e
:10144000a10390000700e00012003200910290001a
:101450006129b90051009000e1009000800f510017
:10146000818f59000b00320014007800870f500064
:1014700002003a00000ae800020037000500e80018
:10148000100298001400e900000a7800064878006d
:10149000010037000083eb00060078000000060022
:1014a0000200fa00889fbe008a1f780000047800be
:1014b0000000eb0010049800380090008080eb00e2
:1014c0000008a3003f003200a05d21001004e000ee
:1014d00010003200295b21008a5b21001a0078008d
:1014e0006c0545002010b20021102000810f500033
:1014f00002003a000900780036030700ec8444003b
:10150000605d2100808f5400f4ff3a00a05d21004f
:101510000048eb0048009000580190000200e000f5
:101520000d003a001204980012002000e8805700d5
:1015300095030700e10f500003003a000ff89700f1
:101540008080fb001f003700380090000040a000a2
:101550003004980012003700a80090008a030700aa
:10156000100498000000e00003003200e10f40008a
:101570000d003a0003003700380090000040a00042
:1015800002003700380090000003b30030049800d8
:10159000a8009000010c78000000eb0010049800f7
:1015a0008080eb0007003700a8009000010c780055
:1015b0000000e9001004980001007800b080fb00f2
:1015c000000c7800010078004f0578004f04be0041
:1015d0000080fa0000000600fe874700889fbe00da
:1015e0008a9fbe008c9fbe008e1f7800f0b79f00c0
:1015f0000107780082bf9f000000eb00a0b79f00aa
:101600009f0237008006eb0050c2b30080cf50002d
:10161000090032000100fb00ffb09700a3020700a1
:10162000e10f400096023200afb097008100e80061
:10163000a1b79f00920237009e407800d0c2b3004d
:1016400080cf50000c00320007003c006d4050007d
:1016500080cf50000a0032006b40400080cf500025
:101660000e003a000800370000c3b30080cf5000de
:101670000a003a00060037000d30a00005003700d0
:101680000d00a000030037000d10a000010037007e
:101690000d20a0000e07e800e7ff37000d18a3009b
:1016a000010032000d00a1000d38a300010032003e
:1016b0000d20a1000100fb0002fd2f0002004000f0
:1016c000e90f50000e003e000002eb00c4b79f007f
:1016d00082017800cfb297006a28b9001e01fb0092
:1016e0000001410003014100c2b79f005e00fb0002
:1016f00003004000e90f50000b003e00f5ff3700eb
:101700000006eb00ccb79f00a0c2b30080cf500012
:1017100005003a000fb89700c000780080bf9f0016
:10172000c1b79f000e07e8000001eb00b2b79f00b1
:10173000e0c2b3009e4f100018003a000de0a00078
:101740008e00e80064405000914f1000020032000b
:10175000010778000c0037000fba9700c402780028
:1017600084bf9f00b5b79f000e87e8000b003700cd
:101770003fb697006a60b9000000410003004000d6
:10178000b0b79f000e07e8001e01fb0003fd2f000d
:1017900003004100e90f5000f5ff3600be4078001d
:1017a000e1d79f00c0c6b30080cf500022003200b6
:1017b0000f003c006940500080cf5000770032009d
:1017c00004003c000104e000310232006b40500094
:1017d0000f00370040c6b30080cf500093003200a6
:1017e0006540400080cf50008b003a008f003700ea
:1017f00030c7b30080cf50001a00320007003c0011
:101800006440500080cf5000110032000040e800da
:1018100080cf500080003a000f00370050c7b3005f
:1018200080cf5000800032006340400080cf5000e5
:1018300079003a0009003700000028000d48a30095
:1018400001003a000001200080867600d3ff3700b7
:101850000d60a000750037000d50a0000d70a000b5
:10186000720037008fb897004100780081bf9f0059
:10187000000478000000e00001003a0068582100f0
:101880008004eb00010037008104e8008900780043
:10189000088044001004e000fbff3a003fb19700cd
:1018a0000200e00003003200890f51000100310006
:1018b000820478000002eb00e4af9f00cfb29700f3
:1018c000898f52000200360009805200e0af9f006d
:1018d0004368de00e10660001b003a000d06780058
:1018e00009003700ffb0970000022000ef01070059
:1018f000e10f4000030032002fb097000000e80025
:10190000a0b79f000c06e800efa89700810f5600d3
:10191000f4ff3a000081eb00e2af9f000a003700bd
:10192000880078003100fb0001047800ffb09700c8
:10193000de010700e10f4000030032002fb29700e4
:101940000402e800a4b79f000900e90080047800c1
:10195000e10f4000f2ff3a000006eb000d00e0004e
:101960000a003a00c6013700ffb0970000022000cd
:10197000ce010700e10f400003003200afb2970034
:101980008502e800a5b79f000c06e8006fa8970045
:10199000800f5600f4ff3a00b90137008fb8970066
:1019a0004100780081bf9f00cf80de0001017800f8
:1019b000820178000205be000004be000203be00e2
:1019c0000002be004822de00482edd000402760040
:1019d000e4d79f000d48a3000a0032000404e00091
:1019e00008003200e14f42000600320071fd2f0076
:1019f0000180470004487800184098002900200022
:101a000002003700f0d79f001900200072fd2f0060
:101a100002844700a1ff370064fd2f0004844700c3
:101a2000190020009dff37000d0cb3000d00780059
:101a3000000cb20028003a000d00e00005003d0057
:101a40008fba97004505be004504be0085bf9f00c4
:101a5000140037000d48a3000b0032000fbe9700a2
:101a60004c00be008cbf9f004f89de00cf91de008e
:101a70000002be0002037800820378000605be0063
:101a80000404be00070037008fb8970041007800bb
:101a900081bf9f0000047800cfc4de0009057800f4
:101aa0008a057800e00f5400e08f5c00e00f5d00d5
:101ab000e08f5d001f003d003d00b3006000b800f6
:101ac0006011b80008045000898458000a055900c4
:101ad0008b855900170037000d00e00005003d0020
:101ae0000fb997004205be004204be0082bf9f00ae
:101af000100037000d48a300070032000fba97000e
:101b00004400be0084bf9f006011b8000205be0003
:101b10000004be00070037008fba97004500780028
:101b200085bf9f0000047800090020000a00200003
:101b30000b0020003fb697000c00e00007003a00c1
:101b4000e00f5400e08f5c00e00f5d00e08f5d006f
:101b500002003a0010002000b0b79f008d0078000e
:101b6000010cb200e1b79f0000042000808f5000fc
:101b70003000320003003c000100e00008003200a9
:101b800040003700000820006fb19700800f51001f
:101b900014003200000c2000800f510039003a0080
:101ba00014c0b300654e21000b0037000400fb0099
:101bb0004300dd00050040005001be004000be00b3
:101bc0000040e10001c8e10002d0e10003d8e100db
:101bd0002b0039000442e800f44f5200f3ff3a00b2
:101be0002700370000012000010020006011b8002c
:101bf00014c0b3000040e10001c8e10002d0e100e0
:101c000003d8e1001e003900450020000000d0008c
:101c10008180d2000281d2008381d2008502e90056
:101c2000faff3a000442e800f04f5200f1ff3a0098
:101c30001300370080002000010020006011b80070
:101c400014c0b3000040e10001c8e10002d0e1008f
:101c500003d8e1000a0039003c0020000000d00059
:101c60008180d2000281d2008381d2000c06e9007b
:101c7000faff3a000442e800f54f5200f1ff3a0043
:101c8000e4d79f00efd097000100fb003fb1970021
:101c9000820f500002003d00e2d79f000400370091
:101ca0003fb29700800f520001003d00b0b79f0087
:101cb000cfb297000500e0000400320063806600a8
:101cc000020032008502e900c5b79f000de8a300bd
:101cd0000b0032004fb697003fb09700800f5600c0
:101ce00003003c008000eb00c1b79f0004003700f8
:101cf0004fb197003fb2970004015100c2b79f0057
:101d0000efd297000500fb000006eb00dcaf9f0060
:101d1000cfb09700808f5000020034000080500048
:101d2000d0af9f000d28a30037003200e18066008d
:101d30000d18a3000c003200d00220000100e000ca
:101d400001003a000080e900ffb09700d7000700cb
:101d5000e10f40000e0032002fb197000201e800b1
:101d6000a2b79f000a0037000100e000080032001f
:101d7000ffb0970000022000cc000700e10f4000f8
:101d8000030032002fb297000402e800a4b79f00be
:101d9000dfaa97000500e0000f0032000006eb000c
:101da000ffb0970000032000c0000700e10f4000d3
:101db000030032002fb097000000e800a0b79f009a
:101dc0000c06e800dfa89700810f5600f4ff3a00e8
:101dd0000001eb00d2af9f003fb29700c320dd00af
:101de000e04d21008080400091b79f004220dd003f
:101df0006400500080b79f006320b900f0af9f00df
:101e00006306500084003700dfaa97000500e00059
:101e100011003200688066000f003a00000678006a
:101e2000ffb0970000022000a0000700e10f400073
:101e3000030032002fb097000000e800a0b79f0019
:101e40000c06e800dfa89700810f5600f4ff3a0067
:101e50000001eb00d2af9f00e18066000d18a300e7
:101e60000c003200d00220000100e00001003a0026
:101e70000080e900ffb097008c000700e10f4000f0
:101e8000d5ff32002fb297000402e800a4b79f00ec
:101e9000d1ff37000100e000cfff3200ffb0970014
:101ea0000002200081000700e10f4000caff32005d
:101eb000afb297008502e800a5b79f00c6ff3700c4
:101ec00000042000efb09700808f500031003200f6
:101ed00003003c000100e000080032003e00370033
:101ee000000820006fb19700800f510011003200f0
:101ef000000c2000800f510037003a001fb09700ff
:101f00003002be002003be000800be000a01be0071
:101f10003a020700a4002000050020006033b8004a
:101f20003d02070004c3b30004424000e4d79f0011
:101f300029003700d5582100d5b79f000d58a300c0
:101f400002003a00e0592100d0b79f0014002000a1
:101f5000050020006033b8008fb097008100e900d1
:101f6000050033000402d0008582d2000683d2002f
:101f70008783d200f9ff37000800be000a01be00c7
:101f80001e0207006f0060005fb19700624078009a
:101f90001000370014002000050020006033b80056
:101fa0000c0078000000e900050033000402d000b6
:101fb0008582d2000683d2008783d200f9ff3700e2
:101fc0000800be000a01be000c0207006740600066
:101fd0000043b000e0d79f00efd097000100fb0066
:101fe000ffb0970031000700e10f4000030032000e
:101ff0002fb197000201e800a2b79f001fb297001f
:102000006802520094b79f008fb29700e48252009a
:1020100085b79f0063065600d0ff2f003fb19700a1
:102020000090b9007faa97000000420063005000b2
:10203000800f5600a2ff3a000d38a30010003200b6
:10204000dfaa97000500e0000d0034000006eb0059
:10205000ffb097000002200014000700e10f4000cd
:10206000030032002fb097000000e800a0b79f00e7
:102070000c06e800dfa89700810f5600f4ff3a0035
:10208000be407800e1d79f000104e0005dfd3a000a
:102090002fb097004f0778004f06be004f05be00d7
:1020a0004f04be00ef01b10000000600889fbe0093
:1020b0000001780001047800b10090000118a3002d
:1020c000400032000198a30003003a00180090007d
:1020d0000000e0003b003a000190a00031049800ad
:1020e00082047800f90fb200180090000000e000b0
:1020f00002003a0028009000000c7800ea8f54009b
:1021000006003a00380090000078a30003003a006f
:1021100088007800d0002000e4ff0700180290003b
:102120006121b90058009000e8009000800f510034
:10213000818f59000b0032000400e8001004980061
:102140001800780009587800000c780011c0b3001e
:10215000a05d210001487800ea8f5400060032009b
:102160001900370088007800094078004300070014
:102170008004780014003700380090000088a30025
:102180001100320018019000a80090004800900053
:10219000b600070098009000810f50000400320044
:1021a000380090000003b300300498008084eb00f6
:1021b0000000eb001004980028009000000c78004c
:1021c000010037008084eb00090078004f04be0056
:1021d00000000600881f780000047800300090009e
:1021e0000008a30007003200800078000120b20040
:1021f00004003a0011049800a8009000010c780037
:10220000170037000018a300190032000098a3003f
:1022100017003200a80090000100e0001400320016
:10222000180190000200e000110032004800900008
:102230008e00070098009000810f500003003200cc
:10224000380090000003b300300498000000eb0059
:102250001004980028009000000c780038009000ce
:102260000058a300020032000080eb00010037009c
:102270000000eb004f047800000006000200fa00a6
:10228000889fbe00a0ff9f0001047800b10090006d
:10229000810478000904b200020032000000fb0053
:1022a000360037000118a30005003a000103b3000f
:1022b00031049800190498000080eb002f003700cb
:1022c000580090000000e00006003a00480090002e
:1022d00012002000e68057006400070019049800ef
:1022e00024003700280090000000e00008003a00b9
:1022f000605d210020049800000c78002000200080
:1023000050049800100498000130a0003104980097
:1023100018019000a80090004800900053000700aa
:1023200028009000000c78000080eb00100498005a
:1023300018007800aff8970001587800000c78007a
:102340002ff89700ea4f50000a003a00380090003a
:102350000088a3000700320018019000a800900038
:10236000480090004100070019049800a800900060
:10237000010c7800aff897000100fb004f04be008d
:102380000080fa00000006000a00fa00881f7800aa
:10239000800178000000e00029003a00f0ae8000e3
:1023a000e10f500008003200802320000000e00010
:1023b000050032000423200025232000672320008d
:1023c000800178000400370004222000252220002c
:1023d0006722200083222000144090000004e000c7
:1023e000040035008009eb00144090000074a00048
:1023f000104298000002eb000c003700130a200086
:10240000154478006140640002003a008301e9004d
:10241000fbff3a000402e8009541780061c06100ca
:10242000050032001700780080587800040351003e
:10243000820f5200f1ff3a000600510008003700f9
:1024400020002000a0bf9f00b3bf9f00c1bf9f001e
:10245000d2bf9f006c80570000c0da005fb89700c1
:102460004f0478000080fa00000006000a00fa001d
:1024700080017800e20f500028003e00f0ae80009e
:10248000e10f500008003200802320000000e0002f
:1024900005003200042320002523200046232000cd
:1024a000800178000400370004222000252220004b
:1024b0004622200083222000144090000004e00007
:1024c000040035008009eb00144090000074a00067
:1024d00010429800154090000028a30003003a0025
:1024e000154090000024a000904298008001eb006d
:1024f00007003700154090000008a300fdff3200e0
:1025000063c078000000fb00000b78008301e80046
:10251000828f5100f7ff3a0008003700300020009a
:10252000b0bf9f00c3bf9f00d1bf9f00e2bf9f000d
:102530006a80570000c0da006fb997000200780087
:102540000080fa0000000600020ab900001bb90072
:102550000200b80081004200810043000000060034
:10256000881f7800000478005001be004000be00c3
:102570000400400085804800060149008781490029
:10258000009cbe000294be000400e1000588e1004a
:102590000690e1000798e100020031006800440065
:1025a0001008e8004f04780000000600f487470098
:1025b000889fbe008a9fbe008c9fbe008e1f780041
:1025c0000205be000004be00d4b79f00e5b79f001f
:1025d000f6b79f0087bf9f000000eb00c0b79f00c9
:1025e000b0b79f00a0b79f0090b79f0080b79f0033
:1025f0000d042000bfb097004fb0970000014000cd
:102600000000e0000f003d004f08de0000007100f8
:10261000c0b79f004d00070001003d0012002000e0
:102620005000070001003d00120020005500070087
:1026300061000700660007000f004000c8ff0700a8
:10264000220037004f08de0000067100ccb79f0063
:102650003e00070001003d0012002000410007007d
:1026600001003d0012002000460007005200070054
:102670000fb297009fb297002fb39700bfb3970098
:10268000590007000000520081805a0002015b00df
:1026900083815b0080b79f0091b79f00a2b79f0026
:1026a000b3b79f000007eb004f0007000020e100d8
:1026b00001a8e10002b0e10003b8e100010031002f
:1026c0001e0020000e005600c0b79f004fb29700ba
:1026d0000400e00007003500100020000100200089
:1026e0006011b80008047000898470000a05710048
:1026f0008b8571008d06e900beff3a000400e00002
:1027000003003d00320007000f00400094ff070067
:102710004fa897000000e00004003a000fb49700b3
:102720009fb497002fb59700bfb597000800be0073
:102730000a01be004f0778004f06be004f05be00dd
:102740004f04be004f01b1000000060001804000b0
:1027500090b79f000001eb008fb097000100e000f0
:10276000000006000200700090b79f00018040004a
:1027700080b79f000001eb00ffa897000100e00078
:10278000000006000200700080b79f00018040003a
:102790006faa9700cf20de0001007000f0af9f000d
:1027a000040242000800be000a01be004f18de000d
:1027b0000002720000000600e4af9f00080444001d
:1027c00089844c000a054d008b854d0000000600f1
:1027d0003fb29700cfb297005fb39700efb3970077
:1027e00000fe2f00000006003fb09700cfb097001a
:1027f0005fb19700efb1970000000600881f7800d6
:1028000018002000881f780068ff07008f87e90004
:102810004f04780000000600801feb0063ff0700f4
:102820008f87e90000000600889fbe008a9fbe00d7
:102830008c1f78000205be000004be00e00f5000af
:10284000e08f5800e00f5900e08f59000c003d0068
:102850006000b8006011b800080450008984580076
:102860000a0559008b8559001c0020001f00070035
:1028700008003d00180007000006eb0005003700c7
:102880000006eb001900070002003d000f000700e2
:102890001c0020000800be000a01be00d7ff070090
:1028a0000203be000002be000c00e0000100320086
:1028b000060007000400be000601be004f067800b7
:1028c0004f05be004f04be00000006006000b800c7
:1028d0006011b800000037000402500085825800e3
:1028e000060359008783590000000600e00f5200dc
:1028f000e08f5a00e00f5b00e08f5b0000000600f5
:10290000889fbe008a9fbe008c1f78000205be0013
:102910000004be00e00f5000e08f5800e00f5900a7
:10292000e08f59000a003d006000b8006011b80057
:1029300008045000898458000a0559008b85590005
:102940001c0020001800070007003d0005003700ac
:102950000006eb001400070003003d006000b80013
:102960006011b800150007000800be000a01be0093
:10297000a9ff07000203be000002be000c00e00039
:10298000030032006000b8006011b8000b000700bf
:102990000400be000601be004f0678004f05be00d1
:1029a0004f04be0000000600e00f5200e08f5a0006
:1029b000e00f5b00e08f5b000000060004025000a7
:1029c00085825800060359008783590000000600dd
:020000040000fa
:0200000401f009
:04000c00f8ff0000f9
:020000040000fa
:0200000401f009
:040010007bff000072
:020000040000fa
:0200000401f009
:040014007fff00006a
:020000040000fa
:0200000401f009
:04001c00dfff000002
:020000040000fa
:1000080090020000900200009002000090020000a0
:100018009002000090020000900200009002000090
:1000280090020000900200009002000004180000f6
:1000380090020000900200009002000042180000a8
:1000480090020000900200009002000016290000b3
:100058006a2900009002000090020000900200004f
:100068009002000090020000900200009002000040
:100078009002000090020000900200009002000030
:100088009002000090020000900200009002000020
:100098009002000090020000900200009002000010
:1000a8009002000090020000900200009002000000
:1000b80090020000900200009002000090020000f0
:1000c80090020000900200009002000090020000e0
:1000d80090020000900200009002000090020000d0
:1000e80090020000900200009002000090020000c0
:1000f80090020000900200009002000090020000b0
:10010800900200009002000090020000900200009f
:10011800900200009002000090020000900200008f
:10012800900200009002000090020000900200007f
:10013800900200009002000090020000900200006f
:10014800900200009002000090020000900200005f
:10015800900200009002000090020000900200004f
:10016800900200009002000090020000900200003f
:10017800900200009002000090020000900200002f
:10018800900200009002000090020000900200001f
:10019800900200009002000090020000900200000f
:1001a80090020000900200009002000090020000ff
:1001b80090020000900200009002000090020000ef
:1001c80090020000900200009002000090020000df
:1001d80090020000900200009002000090020000cf
:1001e80090020000900200009002000090020000bf
:0801f8009002000090020000db
:020000040000fa
:10020800900200009002000090020000900200009e
:10021800900200009002000090020000900200008e
:1002280090020000900200009002000004180000f4
:1002380090020000900200009002000042180000a6
:1002480090020000900200009002000016290000b1
:100258006a2900009002000090020000900200004d
:10026800900200009002000090020000900200003e
:10027800900200009002000090020000900200002e
:10028800900200009002000090020000900200001e
:10029800900200009002000090020000900200000e
:1002a80090020000900200009002000090020000fe
:1002b80090020000900200009002000090020000ee
:1002c80090020000900200009002000090020000de
:1002d80090020000900200009002000090020000ce
:1002e80090020000900200009002000090020000be
:1002f80090020000900200009002000090020000ae
:10030800900200009002000090020000900200009d
:10031800900200009002000090020000900200008d
:10032800900200009002000090020000900200007d
:10033800900200009002000090020000900200006d
:10034800900200009002000090020000900200005d
:10035800900200009002000090020000900200004d
:10036800900200009002000090020000900200003d
:10037800900200009002000090020000900200002d
:10038800900200009002000090020000900200001d
:10039800900200009002000090020000900200000d
:1003a80090020000900200009002000090020000fd
:1003b80090020000900200009002000090020000ed
:1003c80090020000900200009002000090020000dd
:1003d80090020000900200009002000090020000cd
:1003e80090020000900200009002000090020000bd
:0803f8009002000090020000d9
:020000040000fa
:1029d0003c6d00003e5300007973000074650000f8
:1029e0006d2000007061000075730000696e0000ca
:1029f000673c00002f6d00003e0a0000003c000014
:102a00006d3e00005379000073740000656d000096
:102a10002072000065730000756d0000696e000093
:102a2000673c00002f6d00003e0a000000250000fa
:102a300073200000257300002025000073000000b3
:102a40003c6800003e000000090000003c2f000030
:102a5000683e00000a0000003c7500003e000000d7
:102a60003c2f0000753e00000a0000003c72000090
:102a70003e0000003c2f0000723e00000a000000f3
:102a8000706100007573000065000000676f000052
:102a9000003c00006d3e00004265000067690000d8
:102aa0006e6e0000696e000067200000636f00001a
:102ab00075720000736500002e3c00002f6d000051
:102ac0003e0a00000072000065730000657400009b
:102ad000003c00006d3e0000456e00007465000083
:102ae000726900006e6700002072000065730000cc
:102af00065740000206d00006f640000652e00000a
:102b00003c2f00006d3e00000a00000074650000cc
:102b100073740000003c00006d3e0000537900001b
:102b200073740000656d0000206d00007573000077
:102b300074200000626500002070000061750000d4
:102b40007365000064200000746f000020640000c2
:102b50006f2000007465000073740000696e00004f
:102b6000672e00003c2f00006d3e00000a000000b0
:102b70006f6e0000003c00006d3e0000456e0000de
:102b800074650000726900006e6700002074000028
:102b900065730000742000006d6f00006465000024
:102ba0002e200000547900007065000020270000ee
:102bb0007465000073740000206f000066660000fa
:102bc00027200000746f0000206500007869000075
:102bd000742e00003c2f00006d3e00000a00000033
:102be0006f660000660000003c6d00003e4500007e
:102bf00078690000746900006e67000020740000ae
:102c000065730000742000006d6f000064650000b3
:102c10002e3c00002f6d00003e0a00000061000005
:102c20006e6700006c650000003c00006d3e000017
:102c30005465000073740000206d00006f64000094
:102c40006520000069730000206f000066660000c8
:102c50002e2000005479000070650000202700003d
:102c60007465000073740000206f00006e27000080
:102c7000207400006f200000656e00007465000085
:102c8000722000007465000073740000206d000065
:102c90006f640000652e00003c2f00006d3e0000b8
:102ca0000a000000686500006967000068740000a1
:102cb000007300006574000000730000616d000087
:102cc000706c000065740000696d00006500000014
:102cd000706f000073740000726100007465000082
:102ce000003c00006d3e0000506f00007374000057
:102cf000696e0000672000007065000072690000c6
:102d00006f640000207300006574000020740000f0
:102d10006f200000003c00002f6d00003e0a000004
:102d2000006200006c6900006e6b000072610000c0
:102d300074650000003c00006d3e0000426c000025
:102d4000696e00006b200000706500007269000071
:102d50006f640000207300006574000020740000a0
:102d60006f200000007300007465000070720000a6
:102d700061740000650000003c6d00003e530000df
:102d8000746500007020000070650000726900002a
:102d90006f64000020730000657400002074000060
:102da0006f20000000780000007900000061000042
:102db0006c7000006861000000730000746f000018
:102dc00070000000706f000073740000696e0000f6
:102dd000670000003c6d00003e5000006f73000073
:102de000746900006e67000020730000746f0000bb
:102df00070700000656400002e200000547900000f
:102e000070650000202700007374000061720000ec
:102e100074200000706f000073740000696e000081
:102e200067270000207400006f200000726500001a
:102e3000737500006d6500002e3c00002f6d0000d2
:102e40003e0a0000006d00006f7400006f72000009
:102e500073000000737400006172000074000000d1
:102e600078700000007800006d0000003c6d0000ec
:102e70003e4300006f6d00006d6100006e64000055
:102e8000207500006e6b00006e6f0000776e000012
:102e90003a200000002000000000000073650000e0
:102ea000636f00006e64000073000000696e000034
:102eb0000063000074730000000000004e970000e3
:102ec0005697000056970000599700005997000048
:102ed0005997000059970000546900006d65000083
:102ee000005800002d5300007465000070000000c1
:102ef000582d0000456e0000630000005175000071
:102f00006164000041000000517500006164000030
:102f100042000000517500006164000043000000a1
:102f20005175000061640000440000006c970000cf
:102f300071970000789700007e970000849700004a
:102f40008a97000090970000256c0000752e000005
:102f500025300000336c0000750000002563000080
:102f6000302e0000253000003464000000250000f1
:0c2f70006c6400000025000064000000fc
:020000040000fa
:102f7c000000fa0090022000303a880044c7bf00dd
:102f8c00f043b20044e7b700417420009140780050
:102f9c0000ceb30000c0600044e7b7001200200070
:102fac0081072000a009200033742000814978009b
:102fbc0080497800824978001200200061042000ca
:102fcc007005200023742000814978008049780026
:102fdc008249780043c7bf000047b200f04f500051
:102fec00fcff3a0042c7bf000042b2000004e00000
:102ffc00fcff32000080fa00000006003600f800ea
:10300c00809fbe00829fbe00849fbe00869fbe0034
:10301c000000fa0010a5800021a58000610040008e
:10302c00e080480010a5880021a5880014a5800028
:10303c0025a5800030a580006101b9000400be0008
:10304c00ccf60700e00f5000e08f580002003a0069
:10305c001000200040a588008460a9000080fa00c0
:10306c004f03be004f02be004f01be004f00be001a
:10307c003600f900004006000000fa0084e0a900c8
:10308c000080fa00004006000000fa000000eb008f
:10309c000008880070352100100888000001280005
:1030ac00200888008460a9009460a8000080fa00c1
:1030bc00000006000000fa0000fc2f0060198800d8
:1030cc0030012000001688000000eb00301688004c
:1030dc000000eb0020168800f03e2000401688000f
:1030ec000000eb00701688000000eb0060168800f2
:1030fc00c16920009140780000ceb30000c0600090
:10310c006040b3009ce6b700d16920009140780084
:10311c0000ceb30000c060007040b3009de6b70065
:10312c00016a20009140780000ceb30000c060001e
:10313c009040b300a0e6b700116a200091407800df
:10314c0000ceb30000c060000034a000a1e6b700c0
:10315c000000eb00800c8800416a20009140780050
:10316c0000ceb30000c060005040b300a4e6b7002e
:10317c00416c20009140780000ceb30000c060008c
:10318c003040b300c4e6b7000080fa00000006002f
:10319c000400fa00101680004400de00610060009c
:1031ac000004e00004003200d08480000000e8003d
:1031bc00d084880006003700d08480000000e00036
:1031cc0003003400d08480000000e900d084880023
:1031dc00d08480000000e00016003a00e0848000fb
:1031ec00100798001e009000e10f500009003200fb
:1031fc001e009000e20f5000010032000a00370060
:10320c000000eb00e08488000000eb00000f780069
:10321c001f0037000000eb00e08488001000200045
:10322c00000f78001a0037000000eb00000f780048
:10323c0017003700d0848000e50f500006003a00dc
:10324c00e08480000000e00003003a001000200041
:10325c00e08488000c003700d1848000401f2000df
:10326c00808f500008003a00e0848000e10f50008d
:10327c0005003a000000eb00e084880020002000ec
:10328c00000f7800020037000000eb00000f780000
:10329c001e0078000080fa00000006000000fa0012
:1032ac00004e2000001988000000eb0080198800f7
:1032bc000000eb001019880020f021002019880074
:1032cc002063a90021e3a8000080fa00000006009a
:1032dc000400fa00000f780011079800007020001d
:1032ec00000f880000192000300f88000000eb0050
:1032fc00200f880000702000800f8800001920002b
:10330c00b00f88000000eb00a00f88009e00780032
:10331c00401e2000800878001e0178006000b80074
:10332c0010019800210198001e0178006000b8007f
:10333c0030019800410198001e0178006000b8002f
:10334c0050019800610198001e0178006000b800df
:10335c0070019800010998001e0178006000b80007
:10336c0010099800210998001e0178006000b8002f
:10337c0030099800410998009e009000401f2000e1
:10338c00800878001e0190006000b80010019800c1
:10339c00210198001e0190006000b80030019800d7
:1033ac00410198001e0190006000b8005001980087
:1033bc00610198001e0190006000b8007001980037
:1033cc00010998001e0190006000b80010099800d7
:1033dc00210998001e0190006000b8003009980087
:1033ec00410998000080fa00000006000400fa0071
:1033fc00100798000000eb00000f78001e009000f2
:10340c00401988002023a8001e0fe80020c3bf002d
:10341c00614060000004e000fcff320000188000f6
:10342c000080fa00000006000200fa00000f78008d
:10343c001e00780010007800100078000000d10009
:10344c00010020001e017800300198004101980015
:10345c001e00780030019000c00190001e00780022
:10346c00a0089000100890000000510081805900c5
:10347c001e01780050019800610198001e00780030
:10348c0050019000e0019000e0fc2f00f1ff2f00b4
:10349c00800f5100818f59000e003d001e007800f6
:1034ac0070019000800990001e007800e0009000f0
:1034bc005000900002004000838048000019b000ca
:1034cc000180b0001e017800300998004109980075
:1034dc00230037001e00780050019000e00190009e
:1034ec002003200001002000800f5100818f590023
:1034fc00100034001e0078007001900080099000cc
:10350c001e007800e0009000500090000201400086
:10351c008381480000e72f00f1ff2f0002004000dc
:10352c00838048001e0178003009980041099800fa
:10353c000b0037001e00780070019000800990008d
:10354c001e007800e0009000500090000200400047
:10355c00838048001e0178003009980041099800ca
:10356c001e007800c0009000300090001e01780012
:10357c0010099800210998001e007800c0089000de
:10358c00300890001e017800700198000109980025
:10359c000080fa00000006000400fa00889fbe00bc
:1035ac00000f78001107980014a5800025a5800055
:1035bc001e00900022002000110009000200d8001b
:1035cc006101b9000400be006af50700e00f50006d
:1035dc00e08f580003003a0020a780000000ea00aa
:1035ec0020a788001e007800cf80de009ff4070023
:1035fc0062662600831124001af507000004be0041
:10360c0020a78000cf80de0098f407000001be00e8
:10361c000800be0013f5070073f407004f04be004a
:10362c000080fa00000006000400fa001007980061
:10363c001e009000100078009000780030ff2f00e2
:10364c00008f60001e009000100178001e0090009a
:10365c0010009000100078004200dd009e00700009
:10366c001e00900020009000100078004300dd0048
:10367c0000807000000978000080fa00000006004d
:10368c000800fa0020079800310798002e009000df
:10369c0070109000100178002e009000801890009f
:1036ac002e00900010189000008070000080ea003e
:1036bc00000f61002e009000701190002e00900001
:1036cc00801890003e0090000088b9009e007000a9
:1036dc002e009000101890000080700000097800f7
:1036ec000000eb0010079800030037001e0090004c
:1036fc000000e800100798001e009000e90f500031
:10370c00faff34002e009000701190002e009000f3
:10371c00801890003e0090000088b9001e007000d8
:10372c00000978000080fa00000006000e00fa0084
:10373c0020079800310798002e0090007010900020
:10374c00900078002e009000201890000080ea0075
:10375c0000806000100798002e0090007010900000
:10376c00600798002e0090002018900050079800d9
:10377c000000eb00400798003e0090000000e000c5
:10378c0002003a0011002000410798005e019000f1
:10379c00ce0190000390b900800078001e009000cc
:1037ac0000807000ee009000800878000000eb00b4
:1037bc00000f7800010037001e0fe8009200200077
:1037cc009e0f1100fcff34000080fa000000060080
:1037dc000400fa00889fbe008a9fbe00000f78008c
:1037ec00110798001e0090006103b9001e007800bc
:1037fc0020029000b002900086007800040078004f
:10380c00000db80005b0b9000b01780000014100b3
:10381c0007a0b90000014100820578001e00780065
:10382c00100090006104b9001e0078004003900065
:10383c00d00390008800780006007800000ab800d9
:10384c0007c0b900050178000001410009b0b900ba
:10385c0000014100820278000a0042008b804a007d
:10386c00a200200003002000ccf3070080007800a9
:10387c001e007800110098001e0078009e00900039
:10388c00010878001e007800100090004f05be0063
:10389c004f04be000080fa00000006000400fa008d
:1038ac00000f78001e007800100078008000eb00fc
:1038bc00110798000000e00002003a001000200000
:1038cc00100798001e0078009e00900001087800f8
:1038dc001e007800100078000000e00008003200a4
:1038ec008080eb00804e2900da06070010a58000ce
:1038fc0021a58000f084880001858800070037002e
:10390c008080eb00f04f2900d2060700f084800085
:10391c000185800010a5880021a588000000eb001f
:10392c0070a588000080fa00000006000400fa0070
:10393c00100798001d0707000000e0000800320087
:10394c00e5060700000f78009e007800200a210091
:10395c00e9060700210a21001e0090000200070062
:10396c000080fa00000006000400fa00000f780046
:10397c0011079800010220001e8040001e017800f3
:10398c00f00041001e017800801f7800811f780034
:10399c00821f780070512900801f78001e00900053
:1039ac00edf40700e88757001e007800f1000700cf
:1039bc000080fa00000006000800fa00000f7800f2
:1039cc001107980022079800330798009e00780092
:1039dc0010002000e02098001e007800be0090002f
:1039ec00010878001e0078009e00900011009800dd
:1039fc001e007800ae009000210098000080fa00b4
:103a0c00000006000400fa001007980031002000a6
:103a1c00005229008f0607000000eb00000f780011
:103a2c00190037001e009000900090001e007800d6
:103a3c000000400000804000100078008ff4070068
:103a4c00000178001e009000900090001e0078008d
:103a5c0000004000008040001000780082007800d8
:103a6c007c0607001e009000100078000000e900a2
:103a7c009e0f50000300340011002000405229001a
:103a8c00740607001e0fe8001e009000100078005e
:103a9c009e0f5000e3ff3c005100200060522900b3
:103aac006c0607001e009000040007000000eb00ed
:103abc0060a688000080fa00000006000400fa00ee
:103acc001007980031002000c05229006106070041
:103adc000000eb00000f7800190037001e0090006a
:103aec00a00090001e007800000040000080400004
:103afc001000780061f40700000178001e009000af
:103b0c00a00090001e0078000000400000804000e3
:103b1c0010007800820078004e0607001e0090000e
:103b2c00100078000000e9009e0f500003003400e4
:103b3c001100200040522900460607001e0fe80025
:103b4c001e009000100078009e0f5000e3ff3c0018
:103b5c0051002000005329003e0607000080fa00a7
:103b6c00000006000400fa001007980060a6800010
:103b7c000000e000030032001e009000a1ff0700cf
:103b8c001d0037003100200060532900310607006a
:103b9c000000eb00000f7800100037001e009000b2
:103bac00660140001e0078006a00b9000000410068
:103bbc008080eb00270607001e00900010007800a4
:103bcc000000e9009e0f500003003400110020009b
:103bdc00405229001f0607001e0fe8001e0090002f
:103bec00100078009e0f5000ecff3c0051002000ac
:103bfc00a0532900170607000080fa0000000600f9
:103c0c000e00fa00000f78001207980023079800a6
:103c1c0034079800450798005607980067079800e6
:103c2c001e0078001e019000ae0190000288be00bc
:103c3c001e0078003e019000ce01900022009800fa
:103c4c00330098001e0078005e019000ee01900099
:103c5c0042009800530098000080fa000000060013
:103c6c001200fa00000f7800120798002307980042
:103c7c001e00780020019000b0019000720798009f
:103c8c00030f98001e0078001001be001e0090006b
:103c9c00ae0090000200500083805800500798003e
:103cac00610798005e029000ee029000e00f520057
:103cbc00e08f5a00060035005e009000ee00900088
:103ccc00eaf2070030079800410798001600370009
:103cdc005e009000610160006000b80003002000ed
:103cec0002007000838070005e029000ee02900073
:103cfc008501d1000481d300020070008380700024
:103d0c00daf2070030079800410798003e01900056
:103d1c00ce0190003e009000ce00900000f2070013
:103d2c0030079800410798001e0078004001900071
:103d3c00d00190003e009000ce00900049f30700a7
:103d4c00a9f207007e0190008e099000020040004d
:103d5c00838048000080fa00000006000200fa0090
:103d6c00000f78001e007800205088000080fa00b8
:103d7c00000006000200fa00881f7800000f78008f
:103d8c001e0078005200200001542900c1f30700e6
:103d9c000000e00003003a00c04a2100bffe07000b
:103dac002f0137001e0078002200200061542900ea
:103dbc00b8f307000000e00006003a0010002000f5
:103dcc0050a58800e1ff2f0090542900a1050700a1
:103ddc00230137001e0078005200200031562900c4
:103dec00acf307000000e00006003a000000eb0016
:103dfc0050a588008080eb0090562900950507009f
:103e0c00170137001e00780042002000615829007d
:103e1c00a0f307000000e00044003a0060a5800019
:103e2c000000e00004003a008080eb00b05829004c
:103e3c00880507000a0137009e007800708040005a
:103e4c0022002000815b290092f307000000e000b3
:103e5c0006003a001000200070a588008080eb005e
:103e6c00b05b29007b050700fd0037009e00780041
:103e7c007080400042002000015f290085f307009c
:103e8c000000e00006003a000000eb0070a588007e
:103e9c008080eb00405f29006e050700f0003700c2
:103eac009e0078007080400052002000f1602900d4
:103ebc0078f307000000e0000b003a0070a58000ca
:103ecc00e10f500004003a00010220001e80400067
:103edc0046f30700e20037008080eb0050612900b8
:103eec005c050700de0037009e0078007080400003
:103efc00620020002165290066f307000000e00045
:103f0c0007003a0070a58000e10f5000d4003a0081
:103f1c00010220001e80400034f30700d00037005f
:103f2c001e007800d1000700cd0037001e0078007d
:103f3c00320020009165290056f307000000e000d4
:103f4c0070003a009e00780070804000a2002000b3
:103f5c00d16529004ff307000000e00005003a008e
:103f6c00010220001e80400020f3070030a58800cd
:103f7c00bb0037009e00780070804000820020005b
:103f8c008166290043f307000000e0000f003a00af
:103f9c00010220001e80400014f30700c0a5880019
:103fac008080eb00106729002a0507000102200021
:103fbc001e8040008080eb00260507008080eb000f
:103fcc00b068290023050700a50037009e00780083
:103fdc007080400092002000116929002df3070029
:103fec000000e0000f003a00010220001e8040009b
:103ffc00fef20700b0a588008080eb00b0692900b4
:10400c0014050700010220001e8040008080eb0098
:10401c00100507008080eb00b06829000d05070033
:10402c008f0037009e0078007080400092002000c6
:10403c00316b290017f307000000e0000f003a0075
:10404c00010220001e804000e8f20700e0a5880075
:10405c008080eb00c06b2900fe04070001022000e9
:10406c001e8040008080eb00fa0407008080eb008b
:10407c00b0682900f7040700790037009e0078002b
:10408c007080400090407800306d2900104078001e
:10409c0080cf500005003a00010220001e80400035
:1040ac00d2f20700a0a688006d0037009e007800b1
:1040bc007080400090407800506d290010407800ce
:1040cc0080cf500005003a00010220001e80400005
:1040dc00c6f20700b0a68800610037009e00780089
:1040ec007080400090407800706d2900104078007e
:1040fc0080cf50005a0032001e0078005b00070091
:10410c00570037001e00780042002000d16d2900b6
:10411c00e0f207000000e0001e003a009e0078006c
:10412c007080400072002000216e2900d9f2070037
:10413c000000e00006003a000000eb0050a68800ea
:10414c008080eb00a06e2900c204070044003700f9
:10415c009e007800708040004200200031722900df
:10416c00ccf207000000e00007003a008000eb00f2
:10417c0040b020006dfd07008000eb00a0b32000d4
:10418c006afd0700360037001e0078003700070074
:10419c00330037001e00780052002000a172290065
:1041ac00bcf207000000e0000a003a009e00780014
:1041bc007080400072002000216e2900b5f20700cb
:1041cc000000e00026003a001000200050a68800f5
:1041dc00230037001e007800220020000173290004
:1041ec00acf207000000e0000b003a0011002000c8
:1041fc0040b020004dfd07009e007800708040000c
:10420c007af2070080007800a0a6800000804000b1
:10421c00a0a68800120037001e00780022002000a3
:10422c00317329009bf207000000e0000a003a00fd
:10423c001100200040b020003cfd0700a8a6800023
:10424c009e0078007080400068f207000000540067
:10425c00a0a68800020037001e00780003000700ab
:10426c004f0478000080fa00000006000200fa00fb
:10427c00000f78008080eb00607329007504070044
:10428c001e0078008080eb007204070011002000f3
:10429c00b07429006f0407009e0078007080400005
:1042ac008080eb006b04070011002000b074290023
:1042bc0068040700010220001e8040008080eb0093
:1042cc006404070051002000b06829006104070055
:1042dc000080fa00000006001000fa00000f7800c1
:1042ec00110798002207980033079800440798009c
:1042fc005507980066079800770798001e0078000d
:10430c009e009000210098001e0178006000b8000b
:10431c0030099800410998001e0178006000b8002f
:10432c0050099800610998001e0178006000b800df
:10433c0010119800211198001e0178006000b8003f
:10434c0070099800011198001e0078001eb99700a2
:10435c00aeb9970032009800430098001e00780018
:10436c007eb197008eb997005200980063009800b8
:10437c001e0178006000b8000089be001e007800a5
:10438c003eb99700ceb99700521898006318980060
:10439c006e039000fe0390004e029000de0290002f
:1043ac002e019000be0190001e0078000200070054
:1043bc000080fa00000006001400fa00889fbe007e
:1043cc00000f780012079800230798003407980014
:1043dc004507980056079800670798001e0078005c
:1043ec001e019000ae01900022209800332098000e
:1043fc001e0078003e019000ce01900042209800f3
:10440c00532098001e0078005e019000ee01900091
:10441c0062209800732098008041eb00335798007d
:10442c006011b8005e009000ee009000eaf007000a
:10443c000000e000010032000200370010c0b300a1
:10444c00305798003e5090000004a2000004e00099
:10445c0025003a000041eb00225798006011b8008b
:10446c003e009000ce009000dbf007000000e00062
:10447c00010032000200370013c0b300235798002c
:10448c002e5090000004a2000004e00016003a0038
:10449c001e0078001e019000ae01900032109800b2
:1044ac00431098001e0178006000b800501198006d
:1044bc00611198001e0178006000b800701198001e
:1044cc00011998001e0178006000b80010199800be
:1044dc00211998001e0178006000b800301998006e
:1044ec0041199800c70037008041eb001357980022
:1044fc006011b8003e009000ce009000b8f00700ac
:10450c000000e00001003c000200370010c0b300c6
:10451c00105798001e5090000004a2000004e00008
:10452c003e003a000041eb00025798006011b800c1
:10453c005e009000ee009000a7f007000000e00085
:10454c00010032000200370013c0b300035798007b
:10455c000e5090000004a2000004e0002f003a006e
:10456c003e009000ce0090000001be00ecef070072
:10457c000002be001e00780050199000e019900057
:10458c000400be0043f007001e019000ae01900035
:10459c00e3ef07001e0178003011980041119800dc
:1045ac000200200003002c003e009000ce00900082
:1045bc002cf107000002be001e007800501990007c
:1045cc00e01990000400be0032f007001e019000bc
:1045dc00ae019000d2ef07001e0178005011980038
:1045ec00611198001e0178006000b80070119800ed
:1045fc00011998001e0178000000200001f82b0022
:10460c0010199800211998001e0178006000b8005c
:10461c0030199800411998007a0037000040eb00df
:10462c00704f98006011b8003e009000ce009000d2
:10463c0069f007000000e0000100320002003700c2
:10464c0012c0b300724f98007e4890000004a20084
:10465c000004e00010003a008041eb00634f98002a
:10466c006011b8005e009000ee0090005cf0070056
:10467c000000e00001003c000200370010c0b30055
:10468c00604f98006e4890000004a2000004e00007
:10469c0001003a005b0037003e009000ce00900015
:1046ac000001be009eef07000002be001e00780055
:1046bc0050199000e01990000400be00f5ef0700bf
:1046cc001e019000ae01900095ef07000004be00a3
:1046dc001e007800e0189000501890005e019000c9
:1046ec00ee019000dff00700020020000300240020
:1046fc00e8ef07000001be000800be0088ef0700cd
:10470c001e01780030119800411198001e007800ad
:10471c00e0189000501890005e019000ee0190009f
:10472c00d0f007000004be000200200003082c009b
:10473c003e009000ce009000caf007000002be00c0
:10474c001e00780050199000e01990000400be0083
:10475c00d0ef07000001be000800be0070ef07009c
:10476c001e01780050119800611198003e009000d5
:10477c00ce0090000001be0069ef07000002be00f1
:10478c001e00780050199000e01990000400be0043
:10479c00c0ef07000004be001e007800e018900077
:1047ac00501890005e019000ee019000adf00700f3
:1047bc000200200003002400b6ef07000001be0039
:1047cc000800be0056ef07001e019000ae019000dd
:1047dc0052ef07001e017800701198000119980023
:1047ec001e0178006000b80010199800211998007b
:1047fc001e0178000000200001f8230030199800f9
:10480c00411998004f04be000080fa000000060019
:10481c000a00fa00889fbe008a9fbe0040079800dd
:10482c004e0090001001be004e0090002000900041
:10483c001000be0000005100818059002007980034
:10484c00310798004e00900030149000c014900076
:10485c002e009000be00900004f007000001be0086
:10486c000800be007ff007000005be004e0090005f
:10487c0050149000e01490004e009000c00890007e
:10488c0030089000f9ef07000001be000800be00e0
:10489c0074f007000001be000a00be0020ef070004
:1048ac000005be004e00900070149000801c90001b
:1048bc004e009000e008900050089000ebef0700cd
:1048cc000001be000800be0066f007000001be003b
:1048dc000a00be0012ef07000005be004e0090005b
:1048ec00101c9000a01c90004e00900080109000b6
:1048fc0070089000ddef07000001be000800be004c
:10490c0058f007000001be000a00be0004ef0700cb
:10491c000005be004e009000301c9000c01c9000a2
:10492c004e009000a010900010109000cfef0700e8
:10493c000001be000800be004af007000001be00e6
:10494c000a00be00f6ee0700a7ef0700008fbe00be
:10495c004e009000c0089000300890004e0190006e
:10496c0050099800610998004e0090002e019000ab
:10497c00be01900032089800430898004e00900049
:10498c0080109000700890004e019000101198005b
:10499c00211198004e009000c00090003000900053
:1049ac00be0f5000ae8f580005003d004e00900029
:1049bc0030019000c0019000028fbe000a00370049
:1049cc004e009000e000900050009000be0f500090
:1049dc00ae8f5800040034004e009000500190003f
:1049ec00e0019000028fbe004e0090001e01be0040
:1049fc0072089800031098001e0078004f05be0046
:104a0c004f04be000080fa00000006000600fa0009
:104a1c00000f780012079800230798001e007800fa
:104a2c001001be001e009000ae009000800f5100df
:104a3c00818f5900250032001e007800100990006b
:104a4c00a00990001e009000ae009000800f510055
:104a5c00818f5900060034001e007800a0089000d9
:104a6c00100890001e0178000089be000d00370070
:104a7c001e00780070019000800990001e009000cc
:104a8c00ae009000800f5100818f590005003d0051
:104a9c001e00780080089000700090001e017800c5
:104aac000089be001e009000ae0090006fef070062
:104abc00a2702d0033ca2300eaef07004aef07006b
:104acc001e01780000219800112198000080fa0046
:104adc00000006000200fa00000f78001e017800aa
:104aec006000b80030099800410998001e01780058
:104afc006000b80050099800610998001e01780008
:104b0c006000b80070099800011198001e0178002f
:104b1c006000b80010119800211198000080fa0074
:104b2c00000006005a00fa00889fbe0010f907002a
:104b3c0060f9070054f90700d8f90700a1b3200069
:104b4c0040b02000e2f907000000eb00000f7800f5
:104b5c000000eb00000f7800110037001e007800f9
:104b6c000e81e8006c00b9006400400000014100b7
:104b7c00f0002000010020000089be001e0078001b
:104b8c000e81e8006c00b900680040000001410093
:104b9c0050052000010020000089be001e0fe80017
:104bac00300020009e0f1000ecff340000002100ac
:104bbc00615724007059880081598800c02c20004e
:104bcc009059880000002800a0598800000024009b
:104bdc00b059880000002200c05988008000eb000a
:104bec0040b02000d1fa07000000210061572400da
:104bfc00205b8800315b8800c02c2000405b880063
:104c0c0000802000505b880000002100605b880061
:104c1c0000402000705b88008000eb00a0b32000f7
:104c2c00c2fa070000202c001100200048010700e8
:104c3c00200320000e0040006179290006000900c5
:104c4c0031187800e000b100000420000e00400094
:104c5c00e37529000600090033187800e000b10064
:104c6c00020420000e014100210320008e80400030
:104c7c007300200000ba20004ffb07006000b80052
:104c8c0010a5880021a58800170207000000e0008d
:104c9c0001003200b101070040a580000000e000d7
:104cac00fdff32003af90700402f98004e28900083
:104cbc00e10f50000c003200ce289000e28f500023
:104ccc00010032000a0037000000eb0050a58800fc
:104cdc0060a580000000e00005003a00c04a2100f9
:104cec00eefa070002003700c04a2100ebfa070079
:104cfc00f2a5800003a6800010a5800021a58000ed
:104d0c00800f5100818f59000300360090508000b5
:104d1c000000e0001b00340090508000b3f9070045
:104d2c0000017800905080006c00b9008000780081
:104d3c000e80e8000100400082007800a4fa070011
:104d4c0090508000e50f50000b003a000000eb0083
:104d5c0090508800d0a580006101b90010a580009a
:104d6c0021a580000200400083804800f0a5880047
:104d7c0001a6880003003700905080000000e80076
:104d8c009050880040b02000a7f90700a0b3200085
:104d9c00a5f9070002a7800013a7800010a58000ca
:104dac0021a58000800f5100818f590040003e00ea
:104dbc00a1a68000c0a68000808f50000c0032009d
:104dcc00a0a68000302f9800be2990000300e000c0
:104ddc0003003d003e2890000000ea00302f9800b0
:104dec00e0a68000be289000808f500004003400a4
:104dfc008000eb0040b020004cfa07002400370084
:104e0c001100200040b0200048fa0700a1a6800045
:104e1c00c0a68000808f50000d00340011002000cf
:104e2c0040b0200016fa0700c0a680000000e80081
:104e3c00c0a68800d0588000e15880006100400076
:104e4c00e0804800d0588800e158880010003700f6
:104e5c00a1a68000c0a68000808f50000c003d00f1
:104e6c008000eb0040b0200005fa0700c0a68000cf
:104e7c000000e900c0a68800d0588000e1588000ee
:104e8c0061005000e0805800d0588800e15888003c
:104e9c00e0a580006101b90010a5800021a580006b
:104eac00020040008380480000a7880011a78800fa
:104ebc0060a580000000e00003003a00404b210098
:104ecc0080a6880002003700004b210080a68800d5
:104edc0012a6800023a6800010a5800021a58000ca
:104eec00800f5100818f590011003e00b0a5800049
:104efc006101b90010a5800021a5800002004000ce
:104f0c008380480010a6880021a6880080a5800018
:104f1c008001eb00232f98000000e00002003a0013
:104f2c0010002000202f9800ae28900081a588004a
:104f3c00e04c2100bcf9070050a680000000e00006
:104f4c007e00320032a6800043a6800010a58000af
:104f5c0021a58000800f5100818f590077003e0001
:104f6c0010a5800021a58000823e200003002000b7
:104f7c0000ef07000004be0010a5800021a58000f2
:104f8c00823e200003002000eaee070062ba2000f7
:104f9c00889fbe00809fbe00407a2900801f780049
:104fac0091002000020078004bef0700ea875700c1
:104fbc00c0a68000102f98009e2990000300e000ee
:104fcc0003003d001e2890000000ea00102f9800fe
:104fdc00027122009e299000110009008201d80064
:104fec008000fd00002f9800c0a680000000e000ab
:104ffc0003003d00d002200070279800020037000b
:10500c00010320007127980000bb200000017800ec
:10501c008e299000831f78007e209000801f7800de
:10502c00e07a2900801f78009100200002007800af
:10503c0029ef0700e6875700d2588000e35880001c
:10504c00a0bb200000027800829fbe00707b29006c
:10505c00801f780091002000040078001eef0700ec
:10506c00e68757000e80e8009000780040bc2000d6
:10507c0000017800811f7800b07b2900801f780028
:10508c00910020000200780013ef0700e48757001e
:10509c000e80e800e0009000e0bc200000017800e9
:1050ac00811f7800b07b2900801f780091002000c0
:1050bc000200780008ef0700e48757000e80e80034
:1050cc00c008900080bd200000017800811f78008e
:1050dc00b07b2900801f780091002000020078002e
:1050ec00fdee0700e48757000e80e800a01090004a
:1050fc0020be200000017800811f7800b07b2900c1
:10510c00801f78009100200002007800f2ee07006a
:10511c00e487570000ba200092fa0700c0a580006f
:10512c006101b90010a5800021a58000020040009b
:10513c008380480030a6880041a6880000b7200074
:10514c00faf907000000eb0040a58800cefe3700fe
:10515c000400fa00008fbe000000eb0030748800e1
:10516c000000eb00407488000000eb009084880085
:10517c000000eb00508488000000eb006084880085
:10518c000000eb00808488000000eb00a084880005
:10519c000000eb00b08488000000eb00c0848800a5
:1051ac000000eb00001188001e00be004409dd0069
:1051bc00cc01de00830171004401dd006053270047
:1051cc00c12520005bee07000000e90040118800bb
:1051dc001122200091407800c0cfb30000c06000c5
:1051ec0021e2b7000000eb001011880022c2bf00c2
:1051fc00f043b20022e2b70023a2a90023e2a900e7
:10520c0021e2a8002342a8009580a8008580a9006f
:10521c009560a8008560a9000080fa0000000600d7
:10522c003600f800809fbe00821f78000000fa0054
:10523c00a08480000000e0001d003a001800370038
:10524c0032748000301180008040780060c82000eb
:10525c0000004100014878003174800060c82000d3
:10526c000080400010407800ea4f500002003a00e5
:10527c0010002000c0848800307480000000e8001a
:10528c0002202000110009000200d8008000fd005f
:10529c0030748800908480000000e80090848800be
:1052ac0022c2bf00614060000004e000e4ff3a004d
:1052bc008560a9000080fa004f0178004f00be0005
:1052cc003600f900004006003600f800809fbe0052
:1052dc00821f78000000fa00b08480000000e0001b
:1052ec0018003a001000370061848000a0e820000c
:1052fc0000804000104078000000fb002011880066
:10530c00608480000000e8000220200011000900e9
:10531c000200d8008000fd0060848800808480003a
:10532c000000e9008084880023c2bf006240600056
:10533c000004e00003003a00808480000000e000dc
:10534c00e9ff3c008580a9000080fa004f0178003d
:10535c004f00be003600f900004006000000fa00c5
:10536c008580a8000080fa00000006000000fa000a
:10537c0023c2bf00624060000004e000fcff3a0062
:10538c0050052000201188000080fa000000060063
:10539c000400fa00000f780011079800100020009c
:1053ac00b08488001400370023c2bf006240600044
:1053bc000004e000fcff3a0061848000a0e82000bb
:1053cc0000804000104078000000fb002011880095
:1053dc00608480000000e800022020001100090019
:1053ec000200d8008000fd0060848800808480006a
:1053fc000000e90080848800808480000000e000c8
:10540c00e9ff3a000900370023c2bf006240600088
:10541c000004e000fcff3a001e0078001040780009
:10542c000000fb00201188001e0fe8001e009000f9
:10543c000000e900100798001e009000e10f4000ea
:10544c00f1ff3a000000eb00b08488000080fa0005
:10545c00000006000400fa00000f78001107980005
:10546c0014003700528480001e00780090407800b1
:10547c00a0e8200000004100014878005084800022
:10548c000000e80002202000110009000200d800f2
:10549c008000fd00508488001e0fe800808480008e
:1054ac000000e800808488001e0090000000e900e5
:1054bc00100798001e0090000000e000040032006d
:1054cc001e007800104078000004e000e5ff3a0070
:1054dc000080fa00000006000000fa0090848000b2
:1054ec000080fa00000006000000fa0080848000b2
:1054fc000080fa00000006000400fa00000f78009b
:10550c001107980010002000a0848800908480006f
:10551c000000e000200032001400370041748000cd
:10552c0060c8200000804000904078001e00780089
:10553c00014878001e0fe800407480000000e8006d
:10554c0002202000110009000200d8008000fd009c
:10555c0040748800908480000000e90090848800ea
:10556c001e0090000000e900100798001e0090003b
:10557c000000e00003003200908480000000e00096
:10558c00e6ff3a001e0078008040eb0001487800ee
:10559c000000eb00c08488000000eb00a0848800b1
:1055ac008560a8000080fa00000006000000fa00e8
:0c55bc00c08480000080fa00000006009f
:020000040000fa
:1055c800860c000014040000000000009a1000007f
:1055d8000804000000000000e414000002000000bd
:1055e8000200000001000000a214000042000000b8
:1055f800020000000000000000020000000001009e
:105608000001000000000000000000000100fa0096
:10561800002900000a00040000000000000000004b
:105628000000000000000000000100000100c400ac
:1056380002b21400b21400000000000000000000d4
:1056480000102700102700000000000000080000dc
:105658008604000000000000dc15000002000000c5
:1056680000000000b0150000260000000200000045
:10567800b215d80015000000d81509000000000078
:105688000200d60015000000d61506000201000031
:1056980000000000000000000000060002020000f8
:1056a80000000000d6150000060000000000000001
:1056b800e6140000a0000000020000000100000045
:1056c8000000000000000a000000000000000000c8
:1056d800006400000000000000000000e803000073
:1056e800000000000000100027000000000000007b
:1056f80000a08600010000000000000040420f00ea
:1057080000000000000080009698000000000000e3
:105718000000e100f50500000000000000ca9a0042
:105728003b00000000000000e40b540002000000f1
:105738000000e80076481700000000000010a500ef
:10574800d4e8000000000000a0724e001809000014
:10575800000040007a10f3005a0000000080c600e4
:10576800a47e8d000300000000c16f00f2862300b4
:10577800000000008a5d78004563010000006400b5
:10578800a7b3b600e00d000000e889000423c700b5
:105798008a000000861500002a00000002000000b0
:1057a800286e75006c6c29000030310032333400eb
:1057b8003536370038394100424344004546000039
:1057c8003031320033343500363738003961620001
:1057d8006364650066000000de150000020000003a
:0c57e800020000000100000000000000b2
:00000001FF
